{"abi":[{"type":"constructor","inputs":[],"stateMutability":"nonpayable"},{"type":"function","name":"UPGRADE_INTERFACE_VERSION","inputs":[],"outputs":[{"name":"","type":"string","internalType":"string"}],"stateMutability":"view"},{"type":"function","name":"baseAsset","inputs":[],"outputs":[{"name":"","type":"address","internalType":"address"}],"stateMutability":"view"},{"type":"function","name":"dexAdapter","inputs":[],"outputs":[{"name":"","type":"address","internalType":"contract PaxDexAdapter"}],"stateMutability":"view"},{"type":"function","name":"executeGroupTrade","inputs":[{"name":"tokenIn","type":"address","internalType":"address"},{"name":"tokenOut","type":"address","internalType":"address"},{"name":"amountIn","type":"uint256","internalType":"uint256"},{"name":"amountOutMinimum","type":"uint256","internalType":"uint256"}],"outputs":[],"stateMutability":"nonpayable"},{"type":"function","name":"followers","inputs":[{"name":"","type":"address","internalType":"address"}],"outputs":[{"name":"deposited","type":"uint256","internalType":"uint256"},{"name":"waterMark","type":"uint256","internalType":"uint256"}],"stateMutability":"view"},{"type":"function","name":"initialize","inputs":[{"name":"_leader","type":"address","internalType":"address"},{"name":"_vaultName","type":"string","internalType":"string"},{"name":"_baseAsset","type":"address","internalType":"address"},{"name":"_riskManager","type":"address","internalType":"address"},{"name":"_dexAdapter","type":"address","internalType":"address"},{"name":"_revenueSplitter","type":"address","internalType":"address"}],"outputs":[],"stateMutability":"nonpayable"},{"type":"function","name":"leader","inputs":[],"outputs":[{"name":"","type":"address","internalType":"address"}],"stateMutability":"view"},{"type":"function","name":"owner","inputs":[],"outputs":[{"name":"","type":"address","internalType":"address"}],"stateMutability":"view"},{"type":"function","name":"proxiableUUID","inputs":[],"outputs":[{"name":"","type":"bytes32","internalType":"bytes32"}],"stateMutability":"view"},{"type":"function","name":"renounceOwnership","inputs":[],"outputs":[],"stateMutability":"nonpayable"},{"type":"function","name":"revenueSplitter","inputs":[],"outputs":[{"name":"","type":"address","internalType":"contract RevenueSplitter"}],"stateMutability":"view"},{"type":"function","name":"riskManager","inputs":[],"outputs":[{"name":"","type":"address","internalType":"contract RiskManager"}],"stateMutability":"view"},{"type":"function","name":"settleFollowerProfit","inputs":[{"name":"follower","type":"address","internalType":"address"}],"outputs":[],"stateMutability":"nonpayable"},{"type":"function","name":"subscribe","inputs":[{"name":"amount","type":"uint256","internalType":"uint256"}],"outputs":[],"stateMutability":"nonpayable"},{"type":"function","name":"totalVaultTVL","inputs":[],"outputs":[{"name":"","type":"uint256","internalType":"uint256"}],"stateMutability":"view"},{"type":"function","name":"transferOwnership","inputs":[{"name":"newOwner","type":"address","internalType":"address"}],"outputs":[],"stateMutability":"nonpayable"},{"type":"function","name":"unsubscribe","inputs":[{"name":"amount","type":"uint256","internalType":"uint256"}],"outputs":[],"stateMutability":"nonpayable"},{"type":"function","name":"upgradeToAndCall","inputs":[{"name":"newImplementation","type":"address","internalType":"address"},{"name":"data","type":"bytes","internalType":"bytes"}],"outputs":[],"stateMutability":"payable"},{"type":"function","name":"vaultName","inputs":[],"outputs":[{"name":"","type":"string","internalType":"string"}],"stateMutability":"view"},{"type":"event","name":"FollowerSubscribed","inputs":[{"name":"follower","type":"address","indexed":true,"internalType":"address"},{"name":"amount","type":"uint256","indexed":false,"internalType":"uint256"}],"anonymous":false},{"type":"event","name":"FollowerUnsubscribed","inputs":[{"name":"follower","type":"address","indexed":true,"internalType":"address"},{"name":"amount","type":"uint256","indexed":false,"internalType":"uint256"}],"anonymous":false},{"type":"event","name":"Initialized","inputs":[{"name":"version","type":"uint64","indexed":false,"internalType":"uint64"}],"anonymous":false},{"type":"event","name":"OwnershipTransferred","inputs":[{"name":"previousOwner","type":"address","indexed":true,"internalType":"address"},{"name":"newOwner","type":"address","indexed":true,"internalType":"address"}],"anonymous":false},{"type":"event","name":"ProfitSettled","inputs":[{"name":"follower","type":"address","indexed":true,"internalType":"address"},{"name":"profitGenerated","type":"uint256","indexed":false,"internalType":"uint256"}],"anonymous":false},{"type":"event","name":"TradeExecuted","inputs":[{"name":"tokenIn","type":"address","indexed":true,"internalType":"address"},{"name":"tokenOut","type":"address","indexed":true,"internalType":"address"},{"name":"totalAmountSwapped","type":"uint256","indexed":false,"internalType":"uint256"}],"anonymous":false},{"type":"event","name":"Upgraded","inputs":[{"name":"implementation","type":"address","indexed":true,"internalType":"address"}],"anonymous":false},{"type":"error","name":"AddressEmptyCode","inputs":[{"name":"target","type":"address","internalType":"address"}]},{"type":"error","name":"ERC1967InvalidImplementation","inputs":[{"name":"implementation","type":"address","internalType":"address"}]},{"type":"error","name":"ERC1967NonPayable","inputs":[]},{"type":"error","name":"FailedCall","inputs":[]},{"type":"error","name":"InvalidInitialization","inputs":[]},{"type":"error","name":"NotInitializing","inputs":[]},{"type":"error","name":"OwnableInvalidOwner","inputs":[{"name":"owner","type":"address","internalType":"address"}]},{"type":"error","name":"OwnableUnauthorizedAccount","inputs":[{"name":"account","type":"address","internalType":"address"}]},{"type":"error","name":"SafeERC20FailedOperation","inputs":[{"name":"token","type":"address","internalType":"address"}]},{"type":"error","name":"UUPSUnauthorizedCallContext","inputs":[]},{"type":"error","name":"UUPSUnsupportedProxiableUUID","inputs":[{"name":"slot","type":"bytes32","internalType":"bytes32"}]}],"bytecode":{"object":"0x60a06040523073ffffffffffffffffffffffffffffffffffffffff1660809073ffffffffffffffffffffffffffffffffffffffff16815250348015610042575f5ffd5b5061005161005660201b60201c565b6101d1565b5f61006561015460201b60201c565b9050805f0160089054906101000a900460ff16156100af576040517ff92ee8a900000000000000000000000000000000000000000000000000000000815260040160405180910390fd5b67ffffffffffffffff8016815f015f9054906101000a900467ffffffffffffffff1667ffffffffffffffff16146101515767ffffffffffffffff815f015f6101000a81548167ffffffffffffffff021916908367ffffffffffffffff1602179055507fc7f505b2f371ae2175ee4913f4499e1f2633a7b5936321eed1cdaeb6115181d267ffffffffffffffff60405161014891906101b8565b60405180910390a15b50565b5f5f61016461016d60201b60201c565b90508091505090565b5f7ff0c57e16840df040f15088dc2f81fe391c3923bec73e23a9662efc9c229c6a005f1b905090565b5f67ffffffffffffffff82169050919050565b6101b281610196565b82525050565b5f6020820190506101cb5f8301846101a9565b92915050565b608051612ad26101f75f395f818161134b015281816113a0015261155a0152612ad25ff3fe608060405260043610610113575f3560e01c8063715018a61161009f578063a988b5c211610063578063a988b5c21461034c578063ad0b27fb14610376578063ad3cb1cc1461039e578063cdf456e1146103c8578063f2fde38b146103f257610113565b8063715018a61461027b5780638da5cb5b1461029157806391f03efd146102bb57806395d955e2146102e55780639d2b86f61461032257610113565b806340eedabb116100e657806340eedabb146101b957806347842663146101e35780634f1ef2861461020d57806352d1902d146102295780636d5b57d61461025357610113565b80630ace9ca0146101175780630f574ba71461014157806320db00b014610169578063339f20a014610191575b5f5ffd5b348015610122575f5ffd5b5061012b61041a565b6040516101389190611dce565b60405180910390f35b34801561014c575f5ffd5b5061016760048036038101906101629190611e32565b6104a6565b005b348015610174575f5ffd5b5061018f600480360381019061018a9190611fe3565b61064a565b005b34801561019c575f5ffd5b506101b760048036038101906101b29190612088565b61091f565b005b3480156101c4575f5ffd5b506101cd610b9d565b6040516101da91906120c2565b60405180910390f35b3480156101ee575f5ffd5b506101f7610bc1565b6040516102049190612136565b60405180910390f35b610227600480360381019061022291906121ed565b610be6565b005b348015610234575f5ffd5b5061023d610c05565b60405161024a919061225f565b60405180910390f35b34801561025e575f5ffd5b5061027960048036038101906102749190612278565b610c36565b005b348015610286575f5ffd5b5061028f610ed4565b005b34801561029c575f5ffd5b506102a5610ee7565b6040516102b291906120c2565b60405180910390f35b3480156102c6575f5ffd5b506102cf610f1c565b6040516102dc91906122fc565b60405180910390f35b3480156102f0575f5ffd5b5061030b60048036038101906103069190612088565b610f41565b604051610319929190612324565b60405180910390f35b34801561032d575f5ffd5b50610336610f61565b604051610343919061236b565b60405180910390f35b348015610357575f5ffd5b50610360610f86565b60405161036d9190612384565b60405180910390f35b348015610381575f5ffd5b5061039c60048036038101906103979190611e32565b610f8c565b005b3480156103a9575f5ffd5b506103b26110f6565b6040516103bf9190611dce565b60405180910390f35b3480156103d3575f5ffd5b506103dc61112f565b6040516103e991906120c2565b60405180910390f35b3480156103fd575f5ffd5b5061041860048036038101906104139190612088565b611154565b005b60018054610427906123ca565b80601f0160208091040260200160405190810160405280929190818152602001828054610453906123ca565b801561049e5780601f106104755761010080835404028352916020019161049e565b820191905f5260205f20905b81548152906001019060200180831161048157829003601f168201915b505050505081565b5f81116104e8576040517f08c379a00000000000000000000000000000000000000000000000000000000081526004016104df90612444565b60405180910390fd5b61053633308360025f9054906101000a900473ffffffffffffffffffffffffffffffffffffffff1673ffffffffffffffffffffffffffffffffffffffff166111d8909392919063ffffffff16565b8060065f3373ffffffffffffffffffffffffffffffffffffffff1673ffffffffffffffffffffffffffffffffffffffff1681526020019081526020015f205f015f828254610584919061248f565b925050819055508060065f3373ffffffffffffffffffffffffffffffffffffffff1673ffffffffffffffffffffffffffffffffffffffff1681526020019081526020015f206001015f8282546105da919061248f565b925050819055508060075f8282546105f2919061248f565b925050819055503373ffffffffffffffffffffffffffffffffffffffff167f8905707d23c5aac221ae40d295833e3a0872161b8c6c8a15450518c8caebef8b8260405161063f9190612384565b60405180910390a250565b5f61065361122d565b90505f815f0160089054906101000a900460ff161590505f825f015f9054906101000a900467ffffffffffffffff1690505f5f8267ffffffffffffffff1614801561069b5750825b90505f60018367ffffffffffffffff161480156106ce57505f3073ffffffffffffffffffffffffffffffffffffffff163b145b9050811580156106dc575080155b15610713576040517ff92ee8a900000000000000000000000000000000000000000000000000000000815260040160405180910390fd5b6001855f015f6101000a81548167ffffffffffffffff021916908367ffffffffffffffff1602179055508315610760576001855f0160086101000a81548160ff0219169083151502179055505b6107698b611240565b8a5f5f6101000a81548173ffffffffffffffffffffffffffffffffffffffff021916908373ffffffffffffffffffffffffffffffffffffffff16021790555089600190816107b7919061266a565b508860025f6101000a81548173ffffffffffffffffffffffffffffffffffffffff021916908373ffffffffffffffffffffffffffffffffffffffff1602179055508760035f6101000a81548173ffffffffffffffffffffffffffffffffffffffff021916908373ffffffffffffffffffffffffffffffffffffffff1602179055508660045f6101000a81548173ffffffffffffffffffffffffffffffffffffffff021916908373ffffffffffffffffffffffffffffffffffffffff1602179055508560055f6101000a81548173ffffffffffffffffffffffffffffffffffffffff021916908373ffffffffffffffffffffffffffffffffffffffff1602179055508315610912575f855f0160086101000a81548160ff0219169083151502179055507fc7f505b2f371ae2175ee4913f4499e1f2633a7b5936321eed1cdaeb6115181d260016040516109099190612785565b60405180910390a15b5050505050505050505050565b5f60065f8373ffffffffffffffffffffffffffffffffffffffff1673ffffffffffffffffffffffffffffffffffffffff1681526020019081526020015f2090505f61096c825f0154611254565b90508160010154811115610b98575f82600101548261098b919061279e565b90506109fa60055f9054906101000a900473ffffffffffffffffffffffffffffffffffffffff168260025f9054906101000a900473ffffffffffffffffffffffffffffffffffffffff1673ffffffffffffffffffffffffffffffffffffffff1661125d9092919063ffffffff16565b5f60055f9054906101000a900473ffffffffffffffffffffffffffffffffffffffff1673ffffffffffffffffffffffffffffffffffffffff166377a87df060025f9054906101000a900473ffffffffffffffffffffffffffffffffffffffff16845f5f9054906101000a900473ffffffffffffffffffffffffffffffffffffffff166040518463ffffffff1660e01b8152600401610a9a939291906127d1565b6020604051808303815f875af1158015610ab6573d5f5f3e3d5ffd5b505050506040513d601f19601f82011682018060405250810190610ada919061281a565b9050610b28858260025f9054906101000a900473ffffffffffffffffffffffffffffffffffffffff1673ffffffffffffffffffffffffffffffffffffffff166112f69092919063ffffffff16565b8082610b34919061279e565b83610b3f919061279e565b84600101819055508473ffffffffffffffffffffffffffffffffffffffff167fd8efb109c8f24e975d355769033ecab3141e036ddef8f19c615003220403cf8a83604051610b8d9190612384565b60405180910390a250505b505050565b5f5f9054906101000a900473ffffffffffffffffffffffffffffffffffffffff1681565b60035f9054906101000a900473ffffffffffffffffffffffffffffffffffffffff1681565b610bee611349565b610bf78261142f565b610c01828261143a565b5050565b5f610c0e611558565b7f360894a13ba1a3210667c828492db98dca3e2076cc3735a920a3ca505d382bbc5f1b905090565b610c3e6115df565b60035f9054906101000a900473ffffffffffffffffffffffffffffffffffffffff1673ffffffffffffffffffffffffffffffffffffffff166301dc80775f5f9054906101000a900473ffffffffffffffffffffffffffffffffffffffff166040518263ffffffff1660e01b8152600401610cb891906120c2565b602060405180830381865afa158015610cd3573d5f5f3e3d5ffd5b505050506040513d601f19601f82011682018060405250810190610cf7919061287a565b610d36576040517f08c379a0000000000000000000000000000000000000000000000000000000008152600401610d2d906128ef565b60405180910390fd5b610d8260045f9054906101000a900473ffffffffffffffffffffffffffffffffffffffff16838673ffffffffffffffffffffffffffffffffffffffff1661125d9092919063ffffffff16565b5f60045f9054906101000a900473ffffffffffffffffffffffffffffffffffffffff1673ffffffffffffffffffffffffffffffffffffffff1663fe029156868686866040518563ffffffff1660e01b8152600401610de3949392919061290d565b6020604051808303815f875af1158015610dff573d5f5f3e3d5ffd5b505050506040513d601f19601f82011682018060405250810190610e23919061281a565b905081811015610e68576040517f08c379a0000000000000000000000000000000000000000000000000000000008152600401610e5f9061299a565b60405180910390fd5b8373ffffffffffffffffffffffffffffffffffffffff168573ffffffffffffffffffffffffffffffffffffffff167fad559ea7e44788d51a5db6d67fc2c8a295a8f35a08b02e2b427160b7c7dbfe7885604051610ec59190612384565b60405180910390a35050505050565b610edc6115df565b610ee55f611666565b565b5f5f610ef1611737565b9050805f015f9054906101000a900473ffffffffffffffffffffffffffffffffffffffff1691505090565b60045f9054906101000a900473ffffffffffffffffffffffffffffffffffffffff1681565b6006602052805f5260405f205f91509050805f0154908060010154905082565b60055f9054906101000a900473ffffffffffffffffffffffffffffffffffffffff1681565b60075481565b5f60065f3373ffffffffffffffffffffffffffffffffffffffff1673ffffffffffffffffffffffffffffffffffffffff1681526020019081526020015f20905081815f01541015611012576040517f08c379a000000000000000000000000000000000000000000000000000000000815260040161100990612a02565b60405180910390fd5b61101b3361091f565b81815f015f82825461102d919061279e565b925050819055508160075f828254611045919061279e565b92505081905550805f015481600101819055506110a4338360025f9054906101000a900473ffffffffffffffffffffffffffffffffffffffff1673ffffffffffffffffffffffffffffffffffffffff166112f69092919063ffffffff16565b3373ffffffffffffffffffffffffffffffffffffffff167f21b25670e898ec378f820d28b664b8633d67b7b62e3ecc8067d3314d17a478a0836040516110ea9190612384565b60405180910390a25050565b6040518060400160405280600581526020017f352e302e3000000000000000000000000000000000000000000000000000000081525081565b60025f9054906101000a900473ffffffffffffffffffffffffffffffffffffffff1681565b61115c6115df565b5f73ffffffffffffffffffffffffffffffffffffffff168173ffffffffffffffffffffffffffffffffffffffff16036111cc575f6040517f1e4fbdf70000000000000000000000000000000000000000000000000000000081526004016111c391906120c2565b60405180910390fd5b6111d581611666565b50565b6111e684848484600161175e565b61122757836040517f5274afe700000000000000000000000000000000000000000000000000000000815260040161121e91906120c2565b60405180910390fd5b50505050565b5f5f6112376117cf565b90508091505090565b6112486117f8565b61125181611838565b50565b5f819050919050565b5f8373ffffffffffffffffffffffffffffffffffffffff1663dd62ed3e30856040518363ffffffff1660e01b8152600401611299929190612a20565b602060405180830381865afa1580156112b4573d5f5f3e3d5ffd5b505050506040513d601f19601f820116820180604052508101906112d8919061281a565b90506112f0848484846112eb919061248f565b6118bc565b50505050565b611303838383600161196e565b61134457826040517f5274afe700000000000000000000000000000000000000000000000000000000815260040161133b91906120c2565b60405180910390fd5b505050565b7f000000000000000000000000000000000000000000000000000000000000000073ffffffffffffffffffffffffffffffffffffffff163073ffffffffffffffffffffffffffffffffffffffff1614806113f657507f000000000000000000000000000000000000000000000000000000000000000073ffffffffffffffffffffffffffffffffffffffff166113dd6119d0565b73ffffffffffffffffffffffffffffffffffffffff1614155b1561142d576040517fe07c8dba00000000000000000000000000000000000000000000000000000000815260040160405180910390fd5b565b6114376115df565b50565b8173ffffffffffffffffffffffffffffffffffffffff166352d1902d6040518163ffffffff1660e01b8152600401602060405180830381865afa9250505080156114a257506040513d601f19601f8201168201806040525081019061149f9190612a71565b60015b6114e357816040517f4c9c8ce30000000000000000000000000000000000000000000000000000000081526004016114da91906120c2565b60405180910390fd5b7f360894a13ba1a3210667c828492db98dca3e2076cc3735a920a3ca505d382bbc5f1b811461154957806040517faa1d49a4000000000000000000000000000000000000000000000000000000008152600401611540919061225f565b60405180910390fd5b6115538383611a23565b505050565b7f000000000000000000000000000000000000000000000000000000000000000073ffffffffffffffffffffffffffffffffffffffff163073ffffffffffffffffffffffffffffffffffffffff16146115dd576040517fe07c8dba00000000000000000000000000000000000000000000000000000000815260040160405180910390fd5b565b6115e7611a95565b73ffffffffffffffffffffffffffffffffffffffff16611605610ee7565b73ffffffffffffffffffffffffffffffffffffffff161461166457611628611a95565b6040517f118cdaa700000000000000000000000000000000000000000000000000000000815260040161165b91906120c2565b60405180910390fd5b565b5f61166f611737565b90505f815f015f9054906101000a900473ffffffffffffffffffffffffffffffffffffffff16905082825f015f6101000a81548173ffffffffffffffffffffffffffffffffffffffff021916908373ffffffffffffffffffffffffffffffffffffffff1602179055508273ffffffffffffffffffffffffffffffffffffffff168173ffffffffffffffffffffffffffffffffffffffff167f8be0079c531659141344cd1fd0a4f28419497f9722a3daafe3b4186f6b6457e060405160405180910390a3505050565b5f7f9016d09d72d40fdae2fd8ceac6b6234c7706214fd39c1cd1e609a0528c199300905090565b5f5f6323b872dd60e01b9050604051815f525f1960601c87166004525f1960601c86166024528460445260205f60645f5f8c5af1925060015f511483166117bc5783831516156117b0573d5f823e3d81fd5b5f883b113d1516831692505b806040525f606052505095945050505050565b5f7ff0c57e16840df040f15088dc2f81fe391c3923bec73e23a9662efc9c229c6a005f1b905090565b611800611a9c565b611836576040517fd7e6bcf800000000000000000000000000000000000000000000000000000000815260040160405180910390fd5b565b6118406117f8565b5f73ffffffffffffffffffffffffffffffffffffffff168173ffffffffffffffffffffffffffffffffffffffff16036118b0575f6040517f1e4fbdf70000000000000000000000000000000000000000000000000000000081526004016118a791906120c2565b60405180910390fd5b6118b981611666565b50565b6118c88383835f611aba565b611969576118d983835f6001611aba565b61191a57826040517f5274afe700000000000000000000000000000000000000000000000000000000815260040161191191906120c2565b60405180910390fd5b6119278383836001611aba565b61196857826040517f5274afe700000000000000000000000000000000000000000000000000000000815260040161195f91906120c2565b60405180910390fd5b5b505050565b5f5f63a9059cbb60e01b9050604051815f525f1960601c86166004528460245260205f60445f5f8b5af1925060015f511483166119c25783831516156119b6573d5f823e3d81fd5b5f873b113d1516831692505b806040525050949350505050565b5f6119fc7f360894a13ba1a3210667c828492db98dca3e2076cc3735a920a3ca505d382bbc5f1b611b1c565b5f015f9054906101000a900473ffffffffffffffffffffffffffffffffffffffff16905090565b611a2c82611b25565b8173ffffffffffffffffffffffffffffffffffffffff167fbc7cd75a20ee27fd9adebab32041f755214dbc6bffa90cc0225b39da2e5c2d3b60405160405180910390a25f81511115611a8857611a828282611bee565b50611a91565b611a90611cdf565b5b5050565b5f33905090565b5f611aa561122d565b5f0160089054906101000a900460ff16905090565b5f5f63095ea7b360e01b9050604051815f525f1960601c86166004528460245260205f60445f5f8b5af1925060015f51148316611b0e578383151615611b02573d5f823e3d81fd5b5f873b113d1516831692505b806040525050949350505050565b5f819050919050565b5f8173ffffffffffffffffffffffffffffffffffffffff163b03611b8057806040517f4c9c8ce3000000000000000000000000000000000000000000000000000000008152600401611b7791906120c2565b60405180910390fd5b80611bac7f360894a13ba1a3210667c828492db98dca3e2076cc3735a920a3ca505d382bbc5f1b611b1c565b5f015f6101000a81548173ffffffffffffffffffffffffffffffffffffffff021916908373ffffffffffffffffffffffffffffffffffffffff16021790555050565b60605f611bfb8484611d1b565b9050808015611c3157505f611c0e611d2f565b1180611c3057505f8473ffffffffffffffffffffffffffffffffffffffff163b115b5b15611c4657611c3e611d36565b915050611cd9565b8015611c8957836040517f9996b315000000000000000000000000000000000000000000000000000000008152600401611c8091906120c2565b60405180910390fd5b5f611c92611d2f565b1115611ca557611ca0611d53565b611cd7565b6040517fd6bda27500000000000000000000000000000000000000000000000000000000815260040160405180910390fd5b505b92915050565b5f341115611d19576040517fb398979f00000000000000000000000000000000000000000000000000000000815260040160405180910390fd5b565b5f5f5f835160208501865af4905092915050565b5f3d905090565b606060405190503d81523d5f602083013e3d602001810160405290565b6040513d5f823e3d81fd5b5f81519050919050565b5f82825260208201905092915050565b8281835e5f83830152505050565b5f601f19601f8301169050919050565b5f611da082611d5e565b611daa8185611d68565b9350611dba818560208601611d78565b611dc381611d86565b840191505092915050565b5f6020820190508181035f830152611de68184611d96565b905092915050565b5f604051905090565b5f5ffd5b5f5ffd5b5f819050919050565b611e1181611dff565b8114611e1b575f5ffd5b50565b5f81359050611e2c81611e08565b92915050565b5f60208284031215611e4757611e46611df7565b5b5f611e5484828501611e1e565b91505092915050565b5f73ffffffffffffffffffffffffffffffffffffffff82169050919050565b5f611e8682611e5d565b9050919050565b611e9681611e7c565b8114611ea0575f5ffd5b50565b5f81359050611eb181611e8d565b92915050565b5f5ffd5b5f5ffd5b7f4e487b71000000000000000000000000000000000000000000000000000000005f52604160045260245ffd5b611ef582611d86565b810181811067ffffffffffffffff82111715611f1457611f13611ebf565b5b80604052505050565b5f611f26611dee565b9050611f328282611eec565b919050565b5f67ffffffffffffffff821115611f5157611f50611ebf565b5b611f5a82611d86565b9050602081019050919050565b828183375f83830152505050565b5f611f87611f8284611f37565b611f1d565b905082815260208101848484011115611fa357611fa2611ebb565b5b611fae848285611f67565b509392505050565b5f82601f830112611fca57611fc9611eb7565b5b8135611fda848260208601611f75565b91505092915050565b5f5f5f5f5f5f60c08789031215611ffd57611ffc611df7565b5b5f61200a89828a01611ea3565b965050602087013567ffffffffffffffff81111561202b5761202a611dfb565b5b61203789828a01611fb6565b955050604061204889828a01611ea3565b945050606061205989828a01611ea3565b935050608061206a89828a01611ea3565b92505060a061207b89828a01611ea3565b9150509295509295509295565b5f6020828403121561209d5761209c611df7565b5b5f6120aa84828501611ea3565b91505092915050565b6120bc81611e7c565b82525050565b5f6020820190506120d55f8301846120b3565b92915050565b5f819050919050565b5f6120fe6120f96120f484611e5d565b6120db565b611e5d565b9050919050565b5f61210f826120e4565b9050919050565b5f61212082612105565b9050919050565b61213081612116565b82525050565b5f6020820190506121495f830184612127565b92915050565b5f67ffffffffffffffff82111561216957612168611ebf565b5b61217282611d86565b9050602081019050919050565b5f61219161218c8461214f565b611f1d565b9050828152602081018484840111156121ad576121ac611ebb565b5b6121b8848285611f67565b509392505050565b5f82601f8301126121d4576121d3611eb7565b5b81356121e484826020860161217f565b91505092915050565b5f5f6040838503121561220357612202611df7565b5b5f61221085828601611ea3565b925050602083013567ffffffffffffffff81111561223157612230611dfb565b5b61223d858286016121c0565b9150509250929050565b5f819050919050565b61225981612247565b82525050565b5f6020820190506122725f830184612250565b92915050565b5f5f5f5f608085870312156122905761228f611df7565b5b5f61229d87828801611ea3565b94505060206122ae87828801611ea3565b93505060406122bf87828801611e1e565b92505060606122d087828801611e1e565b91505092959194509250565b5f6122e682612105565b9050919050565b6122f6816122dc565b82525050565b5f60208201905061230f5f8301846122ed565b92915050565b61231e81611dff565b82525050565b5f6040820190506123375f830185612315565b6123446020830184612315565b9392505050565b5f61235582612105565b9050919050565b6123658161234b565b82525050565b5f60208201905061237e5f83018461235c565b92915050565b5f6020820190506123975f830184612315565b92915050565b7f4e487b71000000000000000000000000000000000000000000000000000000005f52602260045260245ffd5b5f60028204905060018216806123e157607f821691505b6020821081036123f4576123f361239d565b5b50919050565b7f496e76616c696420737562736372697074696f6e20616d6f756e7400000000005f82015250565b5f61242e601b83611d68565b9150612439826123fa565b602082019050919050565b5f6020820190508181035f83015261245b81612422565b9050919050565b7f4e487b71000000000000000000000000000000000000000000000000000000005f52601160045260245ffd5b5f61249982611dff565b91506124a483611dff565b92508282019050808211156124bc576124bb612462565b5b92915050565b5f819050815f5260205f209050919050565b5f6020601f8301049050919050565b5f82821b905092915050565b5f6008830261251e7fffffffffffffffffffffffffffffffffffffffffffffffffffffffffffffffff826124e3565b61252886836124e3565b95508019841693508086168417925050509392505050565b5f61255a61255561255084611dff565b6120db565b611dff565b9050919050565b5f819050919050565b61257383612540565b61258761257f82612561565b8484546124ef565b825550505050565b5f5f905090565b61259e61258f565b6125a981848461256a565b505050565b5f5b828110156125cf576125c45f828401612596565b6001810190506125b0565b505050565b601f8211156126225782821115612621576125ee816124c2565b6125f7836124d4565b612600856124d4565b602086101561260d575f90505b80830161261c828403826125ae565b505050505b5b505050565b5f82821c905092915050565b5f6126425f1984600802612627565b1980831691505092915050565b5f61265a8383612633565b9150826002028217905092915050565b61267382611d5e565b67ffffffffffffffff81111561268c5761268b611ebf565b5b61269682546123ca565b6126a18282856125d4565b5f60209050601f8311600181146126d2575f84156126c0578287015190505b6126ca858261264f565b865550612731565b601f1984166126e0866124c2565b5f5b82811015612707578489015182556001820191506020850194506020810190506126e2565b868310156127245784890151612720601f891682612633565b8355505b6001600288020188555050505b505050505050565b5f819050919050565b5f67ffffffffffffffff82169050919050565b5f61276f61276a61276584612739565b6120db565b612742565b9050919050565b61277f81612755565b82525050565b5f6020820190506127985f830184612776565b92915050565b5f6127a882611dff565b91506127b383611dff565b92508282039050818111156127cb576127ca612462565b5b92915050565b5f6060820190506127e45f8301866120b3565b6127f16020830185612315565b6127fe60408301846120b3565b949350505050565b5f8151905061281481611e08565b92915050565b5f6020828403121561282f5761282e611df7565b5b5f61283c84828501612806565b91505092915050565b5f8115159050919050565b61285981612845565b8114612863575f5ffd5b50565b5f8151905061287481612850565b92915050565b5f6020828403121561288f5761288e611df7565b5b5f61289c84828501612866565b91505092915050565b7f547261646520626c6f636b6564206279205269736b4d616e61676572000000005f82015250565b5f6128d9601c83611d68565b91506128e4826128a5565b602082019050919050565b5f6020820190508181035f830152612906816128cd565b9050919050565b5f6080820190506129205f8301876120b3565b61292d60208301866120b3565b61293a6040830185612315565b6129476060830184612315565b95945050505050565b7f536c6970706167652065786365656400000000000000000000000000000000005f82015250565b5f612984600f83611d68565b915061298f82612950565b602082019050919050565b5f6020820190508181035f8301526129b181612978565b9050919050565b7f496e73756666696369656e74206465706f7369740000000000000000000000005f82015250565b5f6129ec601483611d68565b91506129f7826129b8565b602082019050919050565b5f6020820190508181035f830152612a19816129e0565b9050919050565b5f604082019050612a335f8301856120b3565b612a4060208301846120b3565b9392505050565b612a5081612247565b8114612a5a575f5ffd5b50565b5f81519050612a6b81612a47565b92915050565b5f60208284031215612a8657612a85611df7565b5b5f612a9384828501612a5d565b9150509291505056fea2646970667358221220f5e8ae5f598c1a980e196b41456dbea2acf5c7aace488d18c144c5c420b79f9a64736f6c63430008210033","linkReferences":{}},"methodIdentifiers":{"UPGRADE_INTERFACE_VERSION()":"ad3cb1cc","baseAsset()":"cdf456e1","dexAdapter()":"91f03efd","executeGroupTrade(address,address,uint256,uint256)":"6d5b57d6","followers(address)":"95d955e2","initialize(address,string,address,address,address,address)":"20db00b0","leader()":"40eedabb","owner()":"8da5cb5b","proxiableUUID()":"52d1902d","renounceOwnership()":"715018a6","revenueSplitter()":"9d2b86f6","riskManager()":"47842663","settleFollowerProfit(address)":"339f20a0","subscribe(uint256)":"0f574ba7","totalVaultTVL()":"a988b5c2","transferOwnership(address)":"f2fde38b","unsubscribe(uint256)":"ad0b27fb","upgradeToAndCall(address,bytes)":"4f1ef286","vaultName()":"0ace9ca0"},"id":69}