{"abi":[{"type":"constructor","inputs":[],"stateMutability":"nonpayable"},{"type":"function","name":"UPGRADE_INTERFACE_VERSION","inputs":[],"outputs":[{"name":"","type":"string","internalType":"string"}],"stateMutability":"view"},{"type":"function","name":"initialize","inputs":[{"name":"initialOwner","type":"address","internalType":"address"},{"name":"_treasury","type":"address","internalType":"address"},{"name":"_leaderShare","type":"uint256","internalType":"uint256"},{"name":"_protocolFee","type":"uint256","internalType":"uint256"}],"outputs":[],"stateMutability":"nonpayable"},{"type":"function","name":"leaderShareBps","inputs":[],"outputs":[{"name":"","type":"uint256","internalType":"uint256"}],"stateMutability":"view"},{"type":"function","name":"owner","inputs":[],"outputs":[{"name":"","type":"address","internalType":"address"}],"stateMutability":"view"},{"type":"function","name":"protocolFeeBps","inputs":[],"outputs":[{"name":"","type":"uint256","internalType":"uint256"}],"stateMutability":"view"},{"type":"function","name":"protocolTreasury","inputs":[],"outputs":[{"name":"","type":"address","internalType":"address"}],"stateMutability":"view"},{"type":"function","name":"proxiableUUID","inputs":[],"outputs":[{"name":"","type":"bytes32","internalType":"bytes32"}],"stateMutability":"view"},{"type":"function","name":"renounceOwnership","inputs":[],"outputs":[],"stateMutability":"nonpayable"},{"type":"function","name":"setShares","inputs":[{"name":"_leaderShare","type":"uint256","internalType":"uint256"},{"name":"_protocolFee","type":"uint256","internalType":"uint256"}],"outputs":[],"stateMutability":"nonpayable"},{"type":"function","name":"setTreasury","inputs":[{"name":"_treasury","type":"address","internalType":"address"}],"outputs":[],"stateMutability":"nonpayable"},{"type":"function","name":"splitProfit","inputs":[{"name":"token","type":"address","internalType":"address"},{"name":"totalProfit","type":"uint256","internalType":"uint256"},{"name":"leaderAddress","type":"address","internalType":"address"}],"outputs":[{"name":"followerRemaining","type":"uint256","internalType":"uint256"}],"stateMutability":"nonpayable"},{"type":"function","name":"transferOwnership","inputs":[{"name":"newOwner","type":"address","internalType":"address"}],"outputs":[],"stateMutability":"nonpayable"},{"type":"function","name":"upgradeToAndCall","inputs":[{"name":"newImplementation","type":"address","internalType":"address"},{"name":"data","type":"bytes","internalType":"bytes"}],"outputs":[],"stateMutability":"payable"},{"type":"event","name":"Initialized","inputs":[{"name":"version","type":"uint64","indexed":false,"internalType":"uint64"}],"anonymous":false},{"type":"event","name":"OwnershipTransferred","inputs":[{"name":"previousOwner","type":"address","indexed":true,"internalType":"address"},{"name":"newOwner","type":"address","indexed":true,"internalType":"address"}],"anonymous":false},{"type":"event","name":"ProfitSplit","inputs":[{"name":"vault","type":"address","indexed":true,"internalType":"address"},{"name":"token","type":"address","indexed":true,"internalType":"address"},{"name":"totalProfit","type":"uint256","indexed":false,"internalType":"uint256"},{"name":"leaderCut","type":"uint256","indexed":false,"internalType":"uint256"},{"name":"protocolCut","type":"uint256","indexed":false,"internalType":"uint256"},{"name":"followerRemaining","type":"uint256","indexed":false,"internalType":"uint256"}],"anonymous":false},{"type":"event","name":"Upgraded","inputs":[{"name":"implementation","type":"address","indexed":true,"internalType":"address"}],"anonymous":false},{"type":"error","name":"AddressEmptyCode","inputs":[{"name":"target","type":"address","internalType":"address"}]},{"type":"error","name":"ERC1967InvalidImplementation","inputs":[{"name":"implementation","type":"address","internalType":"address"}]},{"type":"error","name":"ERC1967NonPayable","inputs":[]},{"type":"error","name":"FailedCall","inputs":[]},{"type":"error","name":"InvalidInitialization","inputs":[]},{"type":"error","name":"NotInitializing","inputs":[]},{"type":"error","name":"OwnableInvalidOwner","inputs":[{"name":"owner","type":"address","internalType":"address"}]},{"type":"error","name":"OwnableUnauthorizedAccount","inputs":[{"name":"account","type":"address","internalType":"address"}]},{"type":"error","name":"SafeERC20FailedOperation","inputs":[{"name":"token","type":"address","internalType":"address"}]},{"type":"error","name":"UUPSUnauthorizedCallContext","inputs":[]},{"type":"error","name":"UUPSUnsupportedProxiableUUID","inputs":[{"name":"slot","type":"bytes32","internalType":"bytes32"}]}],"bytecode":{"object":"0x60a06040523073ffffffffffffffffffffffffffffffffffffffff1660809073ffffffffffffffffffffffffffffffffffffffff16815250348015610042575f5ffd5b5061005161005660201b60201c565b6101d1565b5f61006561015460201b60201c565b9050805f0160089054906101000a900460ff16156100af576040517ff92ee8a900000000000000000000000000000000000000000000000000000000815260040160405180910390fd5b67ffffffffffffffff8016815f015f9054906101000a900467ffffffffffffffff1667ffffffffffffffff16146101515767ffffffffffffffff815f015f6101000a81548167ffffffffffffffff021916908367ffffffffffffffff1602179055507fc7f505b2f371ae2175ee4913f4499e1f2633a7b5936321eed1cdaeb6115181d267ffffffffffffffff60405161014891906101b8565b60405180910390a15b50565b5f5f61016461016d60201b60201c565b90508091505090565b5f7ff0c57e16840df040f15088dc2f81fe391c3923bec73e23a9662efc9c229c6a005f1b905090565b5f67ffffffffffffffff82169050919050565b6101b281610196565b82525050565b5f6020820190506101cb5f8301846101a9565b92915050565b6080516118c16101f75f395f81816109080152818161095d0152610b1701526118c15ff3fe6080604052600436106100c1575f3560e01c8063803db96d1161007e578063ad3cb1cc11610058578063ad3cb1cc1461022d578063eb990c5914610257578063f0f442601461027f578063f2fde38b146102a7576100c1565b8063803db96d146101af5780638da5cb5b146101d9578063a576ccdc14610203576100c1565b80632aca3e7d146100c557806335659fb8146100ed5780634f1ef2861461011757806352d1902d14610133578063715018a61461015d57806377a87df014610173575b5f5ffd5b3480156100d0575f5ffd5b506100eb60048036038101906100e691906111de565b6102cf565b005b3480156100f8575f5ffd5b50610101610339565b60405161010e919061122b565b60405180910390f35b610131600480360381019061012c91906113da565b61033f565b005b34801561013e575f5ffd5b5061014761035e565b604051610154919061144c565b60405180910390f35b348015610168575f5ffd5b5061017161038f565b005b34801561017e575f5ffd5b5061019960048036038101906101949190611465565b6103a2565b6040516101a6919061122b565b60405180910390f35b3480156101ba575f5ffd5b506101c36104f8565b6040516101d091906114c4565b60405180910390f35b3480156101e4575f5ffd5b506101ed61051c565b6040516101fa91906114c4565b60405180910390f35b34801561020e575f5ffd5b50610217610551565b604051610224919061122b565b60405180910390f35b348015610238575f5ffd5b50610241610557565b60405161024e919061153d565b60405180910390f35b348015610262575f5ffd5b5061027d6004803603810190610278919061155d565b610590565b005b34801561028a575f5ffd5b506102a560048036038101906102a091906115c1565b6107b1565b005b3480156102b2575f5ffd5b506102cd60048036038101906102c891906115c1565b6107fb565b005b6102d761087f565b61271081836102e69190611619565b1115610327576040517f08c379a000000000000000000000000000000000000000000000000000000000815260040161031e90611696565b60405180910390fd5b81600181905550806002819055505050565b60025481565b610347610906565b610350826109ec565b61035a82826109f7565b5050565b5f610367610b15565b7f360894a13ba1a3210667c828492db98dca3e2076cc3735a920a3ca505d382bbc5f1b905090565b61039761087f565b6103a05f610b9c565b565b5f5f612710600154856103b591906116b4565b6103bf9190611722565b90505f612710600254866103d391906116b4565b6103dd9190611722565b90508082866103ec9190611752565b6103f69190611752565b92505f82111561042e5761042d3385848973ffffffffffffffffffffffffffffffffffffffff16610c6d909392919063ffffffff16565b5b5f81111561048457610483335f5f9054906101000a900473ffffffffffffffffffffffffffffffffffffffff16838973ffffffffffffffffffffffffffffffffffffffff16610c6d909392919063ffffffff16565b5b8573ffffffffffffffffffffffffffffffffffffffff163373ffffffffffffffffffffffffffffffffffffffff167f88e64a8c9ef779490c1dda5307f883d32e0d2e1a63d645721579f0de9271048c878585886040516104e79493929190611785565b60405180910390a350509392505050565b5f5f9054906101000a900473ffffffffffffffffffffffffffffffffffffffff1681565b5f5f610526610cc2565b9050805f015f9054906101000a900473ffffffffffffffffffffffffffffffffffffffff1691505090565b60015481565b6040518060400160405280600581526020017f352e302e3000000000000000000000000000000000000000000000000000000081525081565b5f610599610ce9565b90505f815f0160089054906101000a900460ff161590505f825f015f9054906101000a900467ffffffffffffffff1690505f5f8267ffffffffffffffff161480156105e15750825b90505f60018367ffffffffffffffff1614801561061457505f3073ffffffffffffffffffffffffffffffffffffffff163b145b905081158015610622575080155b15610659576040517ff92ee8a900000000000000000000000000000000000000000000000000000000815260040160405180910390fd5b6001855f015f6101000a81548167ffffffffffffffff021916908367ffffffffffffffff16021790555083156106a6576001855f0160086101000a81548160ff0219169083151502179055505b6106af89610cfc565b875f5f6101000a81548173ffffffffffffffffffffffffffffffffffffffff021916908373ffffffffffffffffffffffffffffffffffffffff1602179055508660018190555085600281905550612710868861070b9190611619565b111561074c576040517f08c379a000000000000000000000000000000000000000000000000000000000815260040161074390611696565b60405180910390fd5b83156107a6575f855f0160086101000a81548160ff0219169083151502179055507fc7f505b2f371ae2175ee4913f4499e1f2633a7b5936321eed1cdaeb6115181d2600160405161079d919061181d565b60405180910390a15b505050505050505050565b6107b961087f565b805f5f6101000a81548173ffffffffffffffffffffffffffffffffffffffff021916908373ffffffffffffffffffffffffffffffffffffffff16021790555050565b61080361087f565b5f73ffffffffffffffffffffffffffffffffffffffff168173ffffffffffffffffffffffffffffffffffffffff1603610873575f6040517f1e4fbdf700000000000000000000000000000000000000000000000000000000815260040161086a91906114c4565b60405180910390fd5b61087c81610b9c565b50565b610887610d10565b73ffffffffffffffffffffffffffffffffffffffff166108a561051c565b73ffffffffffffffffffffffffffffffffffffffff1614610904576108c8610d10565b6040517f118cdaa70000000000000000000000000000000000000000000000000000000081526004016108fb91906114c4565b60405180910390fd5b565b7f000000000000000000000000000000000000000000000000000000000000000073ffffffffffffffffffffffffffffffffffffffff163073ffffffffffffffffffffffffffffffffffffffff1614806109b357507f000000000000000000000000000000000000000000000000000000000000000073ffffffffffffffffffffffffffffffffffffffff1661099a610d17565b73ffffffffffffffffffffffffffffffffffffffff1614155b156109ea576040517fe07c8dba00000000000000000000000000000000000000000000000000000000815260040160405180910390fd5b565b6109f461087f565b50565b8173ffffffffffffffffffffffffffffffffffffffff166352d1902d6040518163ffffffff1660e01b8152600401602060405180830381865afa925050508015610a5f57506040513d601f19601f82011682018060405250810190610a5c9190611860565b60015b610aa057816040517f4c9c8ce3000000000000000000000000000000000000000000000000000000008152600401610a9791906114c4565b60405180910390fd5b7f360894a13ba1a3210667c828492db98dca3e2076cc3735a920a3ca505d382bbc5f1b8114610b0657806040517faa1d49a4000000000000000000000000000000000000000000000000000000008152600401610afd919061144c565b60405180910390fd5b610b108383610d6a565b505050565b7f000000000000000000000000000000000000000000000000000000000000000073ffffffffffffffffffffffffffffffffffffffff163073ffffffffffffffffffffffffffffffffffffffff1614610b9a576040517fe07c8dba00000000000000000000000000000000000000000000000000000000815260040160405180910390fd5b565b5f610ba5610cc2565b90505f815f015f9054906101000a900473ffffffffffffffffffffffffffffffffffffffff16905082825f015f6101000a81548173ffffffffffffffffffffffffffffffffffffffff021916908373ffffffffffffffffffffffffffffffffffffffff1602179055508273ffffffffffffffffffffffffffffffffffffffff168173ffffffffffffffffffffffffffffffffffffffff167f8be0079c531659141344cd1fd0a4f28419497f9722a3daafe3b4186f6b6457e060405160405180910390a3505050565b610c7b848484846001610ddc565b610cbc57836040517f5274afe7000000000000000000000000000000000000000000000000000000008152600401610cb391906114c4565b60405180910390fd5b50505050565b5f7f9016d09d72d40fdae2fd8ceac6b6234c7706214fd39c1cd1e609a0528c199300905090565b5f5f610cf3610e4d565b90508091505090565b610d04610e76565b610d0d81610eb6565b50565b5f33905090565b5f610d437f360894a13ba1a3210667c828492db98dca3e2076cc3735a920a3ca505d382bbc5f1b610f3a565b5f015f9054906101000a900473ffffffffffffffffffffffffffffffffffffffff16905090565b610d7382610f43565b8173ffffffffffffffffffffffffffffffffffffffff167fbc7cd75a20ee27fd9adebab32041f755214dbc6bffa90cc0225b39da2e5c2d3b60405160405180910390a25f81511115610dcf57610dc9828261100c565b50610dd8565b610dd76110fd565b5b5050565b5f5f6323b872dd60e01b9050604051815f525f1960601c87166004525f1960601c86166024528460445260205f60645f5f8c5af1925060015f51148316610e3a578383151615610e2e573d5f823e3d81fd5b5f883b113d1516831692505b806040525f606052505095945050505050565b5f7ff0c57e16840df040f15088dc2f81fe391c3923bec73e23a9662efc9c229c6a005f1b905090565b610e7e611139565b610eb4576040517fd7e6bcf800000000000000000000000000000000000000000000000000000000815260040160405180910390fd5b565b610ebe610e76565b5f73ffffffffffffffffffffffffffffffffffffffff168173ffffffffffffffffffffffffffffffffffffffff1603610f2e575f6040517f1e4fbdf7000000000000000000000000000000000000000000000000000000008152600401610f2591906114c4565b60405180910390fd5b610f3781610b9c565b50565b5f819050919050565b5f8173ffffffffffffffffffffffffffffffffffffffff163b03610f9e57806040517f4c9c8ce3000000000000000000000000000000000000000000000000000000008152600401610f9591906114c4565b60405180910390fd5b80610fca7f360894a13ba1a3210667c828492db98dca3e2076cc3735a920a3ca505d382bbc5f1b610f3a565b5f015f6101000a81548173ffffffffffffffffffffffffffffffffffffffff021916908373ffffffffffffffffffffffffffffffffffffffff16021790555050565b60605f6110198484611157565b905080801561104f57505f61102c61116b565b118061104e57505f8473ffffffffffffffffffffffffffffffffffffffff163b115b5b156110645761105c611172565b9150506110f7565b80156110a757836040517f9996b31500000000000000000000000000000000000000000000000000000000815260040161109e91906114c4565b60405180910390fd5b5f6110b061116b565b11156110c3576110be61118f565b6110f5565b6040517fd6bda27500000000000000000000000000000000000000000000000000000000815260040160405180910390fd5b505b92915050565b5f341115611137576040517fb398979f00000000000000000000000000000000000000000000000000000000815260040160405180910390fd5b565b5f611142610ce9565b5f0160089054906101000a900460ff16905090565b5f5f5f835160208501865af4905092915050565b5f3d905090565b606060405190503d81523d5f602083013e3d602001810160405290565b6040513d5f823e3d81fd5b5f604051905090565b5f5ffd5b5f5ffd5b5f819050919050565b6111bd816111ab565b81146111c7575f5ffd5b50565b5f813590506111d8816111b4565b92915050565b5f5f604083850312156111f4576111f36111a3565b5b5f611201858286016111ca565b9250506020611212858286016111ca565b9150509250929050565b611225816111ab565b82525050565b5f60208201905061123e5f83018461121c565b92915050565b5f73ffffffffffffffffffffffffffffffffffffffff82169050919050565b5f61126d82611244565b9050919050565b61127d81611263565b8114611287575f5ffd5b50565b5f8135905061129881611274565b92915050565b5f5ffd5b5f5ffd5b5f601f19601f8301169050919050565b7f4e487b71000000000000000000000000000000000000000000000000000000005f52604160045260245ffd5b6112ec826112a6565b810181811067ffffffffffffffff8211171561130b5761130a6112b6565b5b80604052505050565b5f61131d61119a565b905061132982826112e3565b919050565b5f67ffffffffffffffff821115611348576113476112b6565b5b611351826112a6565b9050602081019050919050565b828183375f83830152505050565b5f61137e6113798461132e565b611314565b90508281526020810184848401111561139a576113996112a2565b5b6113a584828561135e565b509392505050565b5f82601f8301126113c1576113c061129e565b5b81356113d184826020860161136c565b91505092915050565b5f5f604083850312156113f0576113ef6111a3565b5b5f6113fd8582860161128a565b925050602083013567ffffffffffffffff81111561141e5761141d6111a7565b5b61142a858286016113ad565b9150509250929050565b5f819050919050565b61144681611434565b82525050565b5f60208201905061145f5f83018461143d565b92915050565b5f5f5f6060848603121561147c5761147b6111a3565b5b5f6114898682870161128a565b935050602061149a868287016111ca565b92505060406114ab8682870161128a565b9150509250925092565b6114be81611263565b82525050565b5f6020820190506114d75f8301846114b5565b92915050565b5f81519050919050565b5f82825260208201905092915050565b8281835e5f83830152505050565b5f61150f826114dd565b61151981856114e7565b93506115298185602086016114f7565b611532816112a6565b840191505092915050565b5f6020820190508181035f8301526115558184611505565b905092915050565b5f5f5f5f60808587031215611575576115746111a3565b5b5f6115828782880161128a565b94505060206115938782880161128a565b93505060406115a4878288016111ca565b92505060606115b5878288016111ca565b91505092959194509250565b5f602082840312156115d6576115d56111a3565b5b5f6115e38482850161128a565b91505092915050565b7f4e487b71000000000000000000000000000000000000000000000000000000005f52601160045260245ffd5b5f611623826111ab565b915061162e836111ab565b9250828201905080821115611646576116456115ec565b5b92915050565b7f496e76616c69642073706c6974000000000000000000000000000000000000005f82015250565b5f611680600d836114e7565b915061168b8261164c565b602082019050919050565b5f6020820190508181035f8301526116ad81611674565b9050919050565b5f6116be826111ab565b91506116c9836111ab565b92508282026116d7816111ab565b915082820484148315176116ee576116ed6115ec565b5b5092915050565b7f4e487b71000000000000000000000000000000000000000000000000000000005f52601260045260245ffd5b5f61172c826111ab565b9150611737836111ab565b925082611747576117466116f5565b5b828204905092915050565b5f61175c826111ab565b9150611767836111ab565b925082820390508181111561177f5761177e6115ec565b5b92915050565b5f6080820190506117985f83018761121c565b6117a5602083018661121c565b6117b2604083018561121c565b6117bf606083018461121c565b95945050505050565b5f819050919050565b5f67ffffffffffffffff82169050919050565b5f819050919050565b5f6118076118026117fd846117c8565b6117e4565b6117d1565b9050919050565b611817816117ed565b82525050565b5f6020820190506118305f83018461180e565b92915050565b61183f81611434565b8114611849575f5ffd5b50565b5f8151905061185a81611836565b92915050565b5f60208284031215611875576118746111a3565b5b5f6118828482850161184c565b9150509291505056fea2646970667358221220eca03515b0fc91532379690e879e8c726c8cd765fda75257bf4902807c7c6bec64736f6c63430008210033","linkReferences":{}},"methodIdentifiers":{"UPGRADE_INTERFACE_VERSION()":"ad3cb1cc","initialize(address,address,uint256,uint256)":"eb990c59","leaderShareBps()":"a576ccdc","owner()":"8da5cb5b","protocolFeeBps()":"35659fb8","protocolTreasury()":"803db96d","proxiableUUID()":"52d1902d","renounceOwnership()":"715018a6","setShares(uint256,uint256)":"2aca3e7d","setTreasury(address)":"f0f44260","splitProfit(address,uint256,address)":"77a87df0","transferOwnership(address)":"f2fde38b","upgradeToAndCall(address,bytes)":"4f1ef286"},"id":73}