{"abi":[{"type":"constructor","inputs":[],"stateMutability":"nonpayable"},{"type":"function","name":"MAX_SLIPPAGE_BPS","inputs":[],"outputs":[{"name":"","type":"uint256","internalType":"uint256"}],"stateMutability":"view"},{"type":"function","name":"MIN_REPUTATION_SCORE","inputs":[],"outputs":[{"name":"","type":"uint256","internalType":"uint256"}],"stateMutability":"view"},{"type":"function","name":"UPGRADE_INTERFACE_VERSION","inputs":[],"outputs":[{"name":"","type":"string","internalType":"string"}],"stateMutability":"view"},{"type":"function","name":"argusOracle","inputs":[],"outputs":[{"name":"","type":"address","internalType":"contract ArgusOracle"}],"stateMutability":"view"},{"type":"function","name":"initialize","inputs":[{"name":"initialOwner","type":"address","internalType":"address"},{"name":"_argusOracle","type":"address","internalType":"address"}],"outputs":[],"stateMutability":"nonpayable"},{"type":"function","name":"isVaultFrozen","inputs":[{"name":"","type":"address","internalType":"address"}],"outputs":[{"name":"","type":"bool","internalType":"bool"}],"stateMutability":"view"},{"type":"function","name":"owner","inputs":[],"outputs":[{"name":"","type":"address","internalType":"address"}],"stateMutability":"view"},{"type":"function","name":"proxiableUUID","inputs":[],"outputs":[{"name":"","type":"bytes32","internalType":"bytes32"}],"stateMutability":"view"},{"type":"function","name":"renounceOwnership","inputs":[],"outputs":[],"stateMutability":"nonpayable"},{"type":"function","name":"setArgusOracle","inputs":[{"name":"_argusOracle","type":"address","internalType":"address"}],"outputs":[],"stateMutability":"nonpayable"},{"type":"function","name":"transferOwnership","inputs":[{"name":"newOwner","type":"address","internalType":"address"}],"outputs":[],"stateMutability":"nonpayable"},{"type":"function","name":"triggerCircuitBreaker","inputs":[{"name":"vault","type":"address","internalType":"address"},{"name":"reason","type":"string","internalType":"string"}],"outputs":[],"stateMutability":"nonpayable"},{"type":"function","name":"unfreezeVault","inputs":[{"name":"vault","type":"address","internalType":"address"}],"outputs":[],"stateMutability":"nonpayable"},{"type":"function","name":"upgradeToAndCall","inputs":[{"name":"newImplementation","type":"address","internalType":"address"},{"name":"data","type":"bytes","internalType":"bytes"}],"outputs":[],"stateMutability":"payable"},{"type":"function","name":"validateTrade","inputs":[{"name":"vaultLeader","type":"address","internalType":"address"}],"outputs":[{"name":"","type":"bool","internalType":"bool"}],"stateMutability":"view"},{"type":"event","name":"Initialized","inputs":[{"name":"version","type":"uint64","indexed":false,"internalType":"uint64"}],"anonymous":false},{"type":"event","name":"OracleUpdated","inputs":[{"name":"newOracle","type":"address","indexed":true,"internalType":"address"}],"anonymous":false},{"type":"event","name":"OwnershipTransferred","inputs":[{"name":"previousOwner","type":"address","indexed":true,"internalType":"address"},{"name":"newOwner","type":"address","indexed":true,"internalType":"address"}],"anonymous":false},{"type":"event","name":"Upgraded","inputs":[{"name":"implementation","type":"address","indexed":true,"internalType":"address"}],"anonymous":false},{"type":"event","name":"VaultFrozen","inputs":[{"name":"vault","type":"address","indexed":true,"internalType":"address"},{"name":"reason","type":"string","indexed":false,"internalType":"string"}],"anonymous":false},{"type":"error","name":"AddressEmptyCode","inputs":[{"name":"target","type":"address","internalType":"address"}]},{"type":"error","name":"ERC1967InvalidImplementation","inputs":[{"name":"implementation","type":"address","internalType":"address"}]},{"type":"error","name":"ERC1967NonPayable","inputs":[]},{"type":"error","name":"FailedCall","inputs":[]},{"type":"error","name":"InvalidInitialization","inputs":[]},{"type":"error","name":"NotInitializing","inputs":[]},{"type":"error","name":"OwnableInvalidOwner","inputs":[{"name":"owner","type":"address","internalType":"address"}]},{"type":"error","name":"OwnableUnauthorizedAccount","inputs":[{"name":"account","type":"address","internalType":"address"}]},{"type":"error","name":"UUPSUnauthorizedCallContext","inputs":[]},{"type":"error","name":"UUPSUnsupportedProxiableUUID","inputs":[{"name":"slot","type":"bytes32","internalType":"bytes32"}]}],"bytecode":{"object":"0x60a06040523073ffffffffffffffffffffffffffffffffffffffff1660809073ffffffffffffffffffffffffffffffffffffffff16815250348015610042575f5ffd5b5061005161005660201b60201c565b6101d1565b5f61006561015460201b60201c565b9050805f0160089054906101000a900460ff16156100af576040517ff92ee8a900000000000000000000000000000000000000000000000000000000815260040160405180910390fd5b67ffffffffffffffff8016815f015f9054906101000a900467ffffffffffffffff1667ffffffffffffffff16146101515767ffffffffffffffff815f015f6101000a81548167ffffffffffffffff021916908367ffffffffffffffff1602179055507fc7f505b2f371ae2175ee4913f4499e1f2633a7b5936321eed1cdaeb6115181d267ffffffffffffffff60405161014891906101b8565b60405180910390a15b50565b5f5f61016461016d60201b60201c565b90508091505090565b5f7ff0c57e16840df040f15088dc2f81fe391c3923bec73e23a9662efc9c229c6a005f1b905090565b5f67ffffffffffffffff82169050919050565b6101b281610196565b82525050565b5f6020820190506101cb5f8301846101a9565b92915050565b6080516119a76101f75f395f8181610a7d01528181610ad20152610c8c01526119a75ff3fe6080604052600436106100e7575f3560e01c80637b0548b311610089578063c77943c011610058578063c77943c0146102b5578063ced7698d146102df578063e229cd7614610307578063f2fde38b14610331576100e7565b80637b0548b3146101fb5780638c160fb3146102255780638da5cb5b14610261578063ad3cb1cc1461028b576100e7565b8063485cc955116100c5578063485cc955146101775780634f1ef2861461019f57806352d1902d146101bb578063715018a6146101e5576100e7565b806301dc8077146100eb5780631ffb3c1a146101275780632b7803ec1461014f575b5f5ffd5b3480156100f6575f5ffd5b50610111600480360381019061010c919061128d565b610359565b60405161011e91906112d2565b60405180910390f35b348015610132575f5ffd5b5061014d6004803603810190610148919061128d565b6104cd565b005b34801561015a575f5ffd5b506101756004803603810190610170919061134c565b61055a565b005b348015610182575f5ffd5b5061019d600480360381019061019891906113a9565b61060b565b005b6101b960048036038101906101b4919061151f565b6107cc565b005b3480156101c6575f5ffd5b506101cf6107eb565b6040516101dc9190611591565b60405180910390f35b3480156101f0575f5ffd5b506101f961081c565b005b348015610206575f5ffd5b5061020f61082f565b60405161021c9190611605565b60405180910390f35b348015610230575f5ffd5b5061024b6004803603810190610246919061128d565b610853565b60405161025891906112d2565b60405180910390f35b34801561026c575f5ffd5b50610275610870565b604051610282919061162d565b60405180910390f35b348015610296575f5ffd5b5061029f6108a5565b6040516102ac91906116a6565b60405180910390f35b3480156102c0575f5ffd5b506102c96108de565b6040516102d691906116de565b60405180910390f35b3480156102ea575f5ffd5b506103056004803603810190610300919061128d565b6108e4565b005b348015610312575f5ffd5b5061031b610943565b60405161032891906116de565b60405180910390f35b34801561033c575f5ffd5b506103576004803603810190610352919061128d565b610949565b005b5f60015f3373ffffffffffffffffffffffffffffffffffffffff1673ffffffffffffffffffffffffffffffffffffffff1681526020019081526020015f205f9054906101000a900460ff16156103e4576040517f08c379a00000000000000000000000000000000000000000000000000000000081526004016103db90611741565b60405180910390fd5b5f5f5f9054906101000a900473ffffffffffffffffffffffffffffffffffffffff1673ffffffffffffffffffffffffffffffffffffffff1663d80a8434846102586040518363ffffffff1660e01b815260040161044292919061175f565b602060405180830381865afa15801561045d573d5f5f3e3d5ffd5b505050506040513d601f19601f8201168201806040525081019061048191906117b0565b9050806104c3576040517f08c379a00000000000000000000000000000000000000000000000000000000081526004016104ba9061184b565b60405180910390fd5b6001915050919050565b6104d56109cd565b805f5f6101000a81548173ffffffffffffffffffffffffffffffffffffffff021916908373ffffffffffffffffffffffffffffffffffffffff1602179055508073ffffffffffffffffffffffffffffffffffffffff167f3df77beb5db05fcdd70a30fc8adf3f83f9501b68579455adbd100b818094039460405160405180910390a250565b6105626109cd565b6001805f8573ffffffffffffffffffffffffffffffffffffffff1673ffffffffffffffffffffffffffffffffffffffff1681526020019081526020015f205f6101000a81548160ff0219169083151502179055508273ffffffffffffffffffffffffffffffffffffffff167f56331f3771ccf62433e54cdd1e4d9c699bc4cf5b0cbf83f8d7d7b307fa12696383836040516105fe929190611895565b60405180910390a2505050565b5f610614610a54565b90505f815f0160089054906101000a900460ff161590505f825f015f9054906101000a900467ffffffffffffffff1690505f5f8267ffffffffffffffff1614801561065c5750825b90505f60018367ffffffffffffffff1614801561068f57505f3073ffffffffffffffffffffffffffffffffffffffff163b145b90508115801561069d575080155b156106d4576040517ff92ee8a900000000000000000000000000000000000000000000000000000000815260040160405180910390fd5b6001855f015f6101000a81548167ffffffffffffffff021916908367ffffffffffffffff1602179055508315610721576001855f0160086101000a81548160ff0219169083151502179055505b61072a87610a67565b855f5f6101000a81548173ffffffffffffffffffffffffffffffffffffffff021916908373ffffffffffffffffffffffffffffffffffffffff16021790555083156107c3575f855f0160086101000a81548160ff0219169083151502179055507fc7f505b2f371ae2175ee4913f4499e1f2633a7b5936321eed1cdaeb6115181d260016040516107ba9190611903565b60405180910390a15b50505050505050565b6107d4610a7b565b6107dd82610b61565b6107e78282610b6c565b5050565b5f6107f4610c8a565b7f360894a13ba1a3210667c828492db98dca3e2076cc3735a920a3ca505d382bbc5f1b905090565b6108246109cd565b61082d5f610d11565b565b5f5f9054906101000a900473ffffffffffffffffffffffffffffffffffffffff1681565b6001602052805f5260405f205f915054906101000a900460ff1681565b5f5f61087a610de2565b9050805f015f9054906101000a900473ffffffffffffffffffffffffffffffffffffffff1691505090565b6040518060400160405280600581526020017f352e302e3000000000000000000000000000000000000000000000000000000081525081565b61025881565b6108ec6109cd565b5f60015f8373ffffffffffffffffffffffffffffffffffffffff1673ffffffffffffffffffffffffffffffffffffffff1681526020019081526020015f205f6101000a81548160ff02191690831515021790555050565b6101f481565b6109516109cd565b5f73ffffffffffffffffffffffffffffffffffffffff168173ffffffffffffffffffffffffffffffffffffffff16036109c1575f6040517f1e4fbdf70000000000000000000000000000000000000000000000000000000081526004016109b8919061162d565b60405180910390fd5b6109ca81610d11565b50565b6109d5610e09565b73ffffffffffffffffffffffffffffffffffffffff166109f3610870565b73ffffffffffffffffffffffffffffffffffffffff1614610a5257610a16610e09565b6040517f118cdaa7000000000000000000000000000000000000000000000000000000008152600401610a49919061162d565b60405180910390fd5b565b5f5f610a5e610e10565b90508091505090565b610a6f610e39565b610a7881610e79565b50565b7f000000000000000000000000000000000000000000000000000000000000000073ffffffffffffffffffffffffffffffffffffffff163073ffffffffffffffffffffffffffffffffffffffff161480610b2857507f000000000000000000000000000000000000000000000000000000000000000073ffffffffffffffffffffffffffffffffffffffff16610b0f610efd565b73ffffffffffffffffffffffffffffffffffffffff1614155b15610b5f576040517fe07c8dba00000000000000000000000000000000000000000000000000000000815260040160405180910390fd5b565b610b696109cd565b50565b8173ffffffffffffffffffffffffffffffffffffffff166352d1902d6040518163ffffffff1660e01b8152600401602060405180830381865afa925050508015610bd457506040513d601f19601f82011682018060405250810190610bd19190611946565b60015b610c1557816040517f4c9c8ce3000000000000000000000000000000000000000000000000000000008152600401610c0c919061162d565b60405180910390fd5b7f360894a13ba1a3210667c828492db98dca3e2076cc3735a920a3ca505d382bbc5f1b8114610c7b57806040517faa1d49a4000000000000000000000000000000000000000000000000000000008152600401610c729190611591565b60405180910390fd5b610c858383610f50565b505050565b7f000000000000000000000000000000000000000000000000000000000000000073ffffffffffffffffffffffffffffffffffffffff163073ffffffffffffffffffffffffffffffffffffffff1614610d0f576040517fe07c8dba00000000000000000000000000000000000000000000000000000000815260040160405180910390fd5b565b5f610d1a610de2565b90505f815f015f9054906101000a900473ffffffffffffffffffffffffffffffffffffffff16905082825f015f6101000a81548173ffffffffffffffffffffffffffffffffffffffff021916908373ffffffffffffffffffffffffffffffffffffffff1602179055508273ffffffffffffffffffffffffffffffffffffffff168173ffffffffffffffffffffffffffffffffffffffff167f8be0079c531659141344cd1fd0a4f28419497f9722a3daafe3b4186f6b6457e060405160405180910390a3505050565b5f7f9016d09d72d40fdae2fd8ceac6b6234c7706214fd39c1cd1e609a0528c199300905090565b5f33905090565b5f7ff0c57e16840df040f15088dc2f81fe391c3923bec73e23a9662efc9c229c6a005f1b905090565b610e41610fc2565b610e77576040517fd7e6bcf800000000000000000000000000000000000000000000000000000000815260040160405180910390fd5b565b610e81610e39565b5f73ffffffffffffffffffffffffffffffffffffffff168173ffffffffffffffffffffffffffffffffffffffff1603610ef1575f6040517f1e4fbdf7000000000000000000000000000000000000000000000000000000008152600401610ee8919061162d565b60405180910390fd5b610efa81610d11565b50565b5f610f297f360894a13ba1a3210667c828492db98dca3e2076cc3735a920a3ca505d382bbc5f1b610fe0565b5f015f9054906101000a900473ffffffffffffffffffffffffffffffffffffffff16905090565b610f5982610fe9565b8173ffffffffffffffffffffffffffffffffffffffff167fbc7cd75a20ee27fd9adebab32041f755214dbc6bffa90cc0225b39da2e5c2d3b60405160405180910390a25f81511115610fb557610faf82826110b2565b50610fbe565b610fbd6111a3565b5b5050565b5f610fcb610a54565b5f0160089054906101000a900460ff16905090565b5f819050919050565b5f8173ffffffffffffffffffffffffffffffffffffffff163b0361104457806040517f4c9c8ce300000000000000000000000000000000000000000000000000000000815260040161103b919061162d565b60405180910390fd5b806110707f360894a13ba1a3210667c828492db98dca3e2076cc3735a920a3ca505d382bbc5f1b610fe0565b5f015f6101000a81548173ffffffffffffffffffffffffffffffffffffffff021916908373ffffffffffffffffffffffffffffffffffffffff16021790555050565b60605f6110bf84846111df565b90508080156110f557505f6110d26111f3565b11806110f457505f8473ffffffffffffffffffffffffffffffffffffffff163b115b5b1561110a576111026111fa565b91505061119d565b801561114d57836040517f9996b315000000000000000000000000000000000000000000000000000000008152600401611144919061162d565b60405180910390fd5b5f6111566111f3565b111561116957611164611217565b61119b565b6040517fd6bda27500000000000000000000000000000000000000000000000000000000815260040160405180910390fd5b505b92915050565b5f3411156111dd576040517fb398979f00000000000000000000000000000000000000000000000000000000815260040160405180910390fd5b565b5f5f5f835160208501865af4905092915050565b5f3d905090565b606060405190503d81523d5f602083013e3d602001810160405290565b6040513d5f823e3d81fd5b5f604051905090565b5f5ffd5b5f5ffd5b5f73ffffffffffffffffffffffffffffffffffffffff82169050919050565b5f61125c82611233565b9050919050565b61126c81611252565b8114611276575f5ffd5b50565b5f8135905061128781611263565b92915050565b5f602082840312156112a2576112a161122b565b5b5f6112af84828501611279565b91505092915050565b5f8115159050919050565b6112cc816112b8565b82525050565b5f6020820190506112e55f8301846112c3565b92915050565b5f5ffd5b5f5ffd5b5f5ffd5b5f5f83601f84011261130c5761130b6112eb565b5b8235905067ffffffffffffffff811115611329576113286112ef565b5b602083019150836001820283011115611345576113446112f3565b5b9250929050565b5f5f5f604084860312156113635761136261122b565b5b5f61137086828701611279565b935050602084013567ffffffffffffffff8111156113915761139061122f565b5b61139d868287016112f7565b92509250509250925092565b5f5f604083850312156113bf576113be61122b565b5b5f6113cc85828601611279565b92505060206113dd85828601611279565b9150509250929050565b5f5ffd5b5f601f19601f8301169050919050565b7f4e487b71000000000000000000000000000000000000000000000000000000005f52604160045260245ffd5b611431826113eb565b810181811067ffffffffffffffff821117156114505761144f6113fb565b5b80604052505050565b5f611462611222565b905061146e8282611428565b919050565b5f67ffffffffffffffff82111561148d5761148c6113fb565b5b611496826113eb565b9050602081019050919050565b828183375f83830152505050565b5f6114c36114be84611473565b611459565b9050828152602081018484840111156114df576114de6113e7565b5b6114ea8482856114a3565b509392505050565b5f82601f830112611506576115056112eb565b5b81356115168482602086016114b1565b91505092915050565b5f5f604083850312156115355761153461122b565b5b5f61154285828601611279565b925050602083013567ffffffffffffffff8111156115635761156261122f565b5b61156f858286016114f2565b9150509250929050565b5f819050919050565b61158b81611579565b82525050565b5f6020820190506115a45f830184611582565b92915050565b5f819050919050565b5f6115cd6115c86115c384611233565b6115aa565b611233565b9050919050565b5f6115de826115b3565b9050919050565b5f6115ef826115d4565b9050919050565b6115ff816115e5565b82525050565b5f6020820190506116185f8301846115f6565b92915050565b61162781611252565b82525050565b5f6020820190506116405f83018461161e565b92915050565b5f81519050919050565b5f82825260208201905092915050565b8281835e5f83830152505050565b5f61167882611646565b6116828185611650565b9350611692818560208601611660565b61169b816113eb565b840191505092915050565b5f6020820190508181035f8301526116be818461166e565b905092915050565b5f819050919050565b6116d8816116c6565b82525050565b5f6020820190506116f15f8301846116cf565b92915050565b7f5661756c742069732066726f7a656e00000000000000000000000000000000005f82015250565b5f61172b600f83611650565b9150611736826116f7565b602082019050919050565b5f6020820190508181035f8301526117588161171f565b9050919050565b5f6040820190506117725f83018561161e565b61177f60208301846116cf565b9392505050565b61178f816112b8565b8114611799575f5ffd5b50565b5f815190506117aa81611786565b92915050565b5f602082840312156117c5576117c461122b565b5b5f6117d28482850161179c565b91505092915050565b7f4c65616465722072657075746174696f6e2062656c6f77207468726573686f6c5f8201527f6400000000000000000000000000000000000000000000000000000000000000602082015250565b5f611835602183611650565b9150611840826117db565b604082019050919050565b5f6020820190508181035f83015261186281611829565b9050919050565b5f6118748385611650565b93506118818385846114a3565b61188a836113eb565b840190509392505050565b5f6020820190508181035f8301526118ae818486611869565b90509392505050565b5f819050919050565b5f67ffffffffffffffff82169050919050565b5f6118ed6118e86118e3846118b7565b6115aa565b6118c0565b9050919050565b6118fd816118d3565b82525050565b5f6020820190506119165f8301846118f4565b92915050565b61192581611579565b811461192f575f5ffd5b50565b5f815190506119408161191c565b92915050565b5f6020828403121561195b5761195a61122b565b5b5f61196884828501611932565b9150509291505056fea26469706673582212205afbc9f30cfc3399684095b02015b7e631e5827565bd04172f542888a84f3fd164736f6c63430008210033","linkReferences":{}},"methodIdentifiers":{"MAX_SLIPPAGE_BPS()":"e229cd76","MIN_REPUTATION_SCORE()":"c77943c0","UPGRADE_INTERFACE_VERSION()":"ad3cb1cc","argusOracle()":"7b0548b3","initialize(address,address)":"485cc955","isVaultFrozen(address)":"8c160fb3","owner()":"8da5cb5b","proxiableUUID()":"52d1902d","renounceOwnership()":"715018a6","setArgusOracle(address)":"1ffb3c1a","transferOwnership(address)":"f2fde38b","triggerCircuitBreaker(address,string)":"2b7803ec","unfreezeVault(address)":"ced7698d","upgradeToAndCall(address,bytes)":"4f1ef286","validateTrade(address)":"01dc8077"},"id":74}