{"abi":[{"type":"constructor","inputs":[],"stateMutability":"nonpayable"},{"type":"function","name":"UPGRADE_INTERFACE_VERSION","inputs":[],"outputs":[{"name":"","type":"string","internalType":"string"}],"stateMutability":"view"},{"type":"function","name":"createVault","inputs":[{"name":"vaultName","type":"string","internalType":"string"},{"name":"assetToken","type":"address","internalType":"address"},{"name":"dexAdapter","type":"address","internalType":"address"},{"name":"revenueSplitter","type":"address","internalType":"address"}],"outputs":[{"name":"","type":"address","internalType":"address"}],"stateMutability":"nonpayable"},{"type":"function","name":"initialize","inputs":[{"name":"initialOwner","type":"address","internalType":"address"},{"name":"_vaultImplementation","type":"address","internalType":"address"},{"name":"_registry","type":"address","internalType":"address"},{"name":"_riskManager","type":"address","internalType":"address"}],"outputs":[],"stateMutability":"nonpayable"},{"type":"function","name":"owner","inputs":[],"outputs":[{"name":"","type":"address","internalType":"address"}],"stateMutability":"view"},{"type":"function","name":"proxiableUUID","inputs":[],"outputs":[{"name":"","type":"bytes32","internalType":"bytes32"}],"stateMutability":"view"},{"type":"function","name":"registry","inputs":[],"outputs":[{"name":"","type":"address","internalType":"contract VaultRegistry"}],"stateMutability":"view"},{"type":"function","name":"renounceOwnership","inputs":[],"outputs":[],"stateMutability":"nonpayable"},{"type":"function","name":"riskManager","inputs":[],"outputs":[{"name":"","type":"address","internalType":"contract RiskManager"}],"stateMutability":"view"},{"type":"function","name":"setDependencies","inputs":[{"name":"_registry","type":"address","internalType":"address"},{"name":"_riskManager","type":"address","internalType":"address"}],"outputs":[],"stateMutability":"nonpayable"},{"type":"function","name":"setVaultImplementation","inputs":[{"name":"_impl","type":"address","internalType":"address"}],"outputs":[],"stateMutability":"nonpayable"},{"type":"function","name":"transferOwnership","inputs":[{"name":"newOwner","type":"address","internalType":"address"}],"outputs":[],"stateMutability":"nonpayable"},{"type":"function","name":"upgradeToAndCall","inputs":[{"name":"newImplementation","type":"address","internalType":"address"},{"name":"data","type":"bytes","internalType":"bytes"}],"outputs":[],"stateMutability":"payable"},{"type":"function","name":"vaultImplementation","inputs":[],"outputs":[{"name":"","type":"address","internalType":"address"}],"stateMutability":"view"},{"type":"event","name":"Initialized","inputs":[{"name":"version","type":"uint64","indexed":false,"internalType":"uint64"}],"anonymous":false},{"type":"event","name":"OwnershipTransferred","inputs":[{"name":"previousOwner","type":"address","indexed":true,"internalType":"address"},{"name":"newOwner","type":"address","indexed":true,"internalType":"address"}],"anonymous":false},{"type":"event","name":"Upgraded","inputs":[{"name":"implementation","type":"address","indexed":true,"internalType":"address"}],"anonymous":false},{"type":"event","name":"VaultDeployed","inputs":[{"name":"leader","type":"address","indexed":true,"internalType":"address"},{"name":"vaultProxy","type":"address","indexed":true,"internalType":"address"}],"anonymous":false},{"type":"error","name":"AddressEmptyCode","inputs":[{"name":"target","type":"address","internalType":"address"}]},{"type":"error","name":"ERC1967InvalidImplementation","inputs":[{"name":"implementation","type":"address","internalType":"address"}]},{"type":"error","name":"ERC1967NonPayable","inputs":[]},{"type":"error","name":"FailedCall","inputs":[]},{"type":"error","name":"InvalidInitialization","inputs":[]},{"type":"error","name":"NotInitializing","inputs":[]},{"type":"error","name":"OwnableInvalidOwner","inputs":[{"name":"owner","type":"address","internalType":"address"}]},{"type":"error","name":"OwnableUnauthorizedAccount","inputs":[{"name":"account","type":"address","internalType":"address"}]},{"type":"error","name":"UUPSUnauthorizedCallContext","inputs":[]},{"type":"error","name":"UUPSUnsupportedProxiableUUID","inputs":[{"name":"slot","type":"bytes32","internalType":"bytes32"}]}],"bytecode":{"object":"0x60a06040523073ffffffffffffffffffffffffffffffffffffffff1660809073ffffffffffffffffffffffffffffffffffffffff16815250348015610042575f5ffd5b5061005161005660201b60201c565b6101d1565b5f61006561015460201b60201c565b9050805f0160089054906101000a900460ff16156100af576040517ff92ee8a900000000000000000000000000000000000000000000000000000000815260040160405180910390fd5b67ffffffffffffffff8016815f015f9054906101000a900467ffffffffffffffff1667ffffffffffffffff16146101515767ffffffffffffffff815f015f6101000a81548167ffffffffffffffff021916908367ffffffffffffffff1602179055507fc7f505b2f371ae2175ee4913f4499e1f2633a7b5936321eed1cdaeb6115181d267ffffffffffffffff60405161014891906101b8565b60405180910390a15b50565b5f5f61016461016d60201b60201c565b90508091505090565b5f7ff0c57e16840df040f15088dc2f81fe391c3923bec73e23a9662efc9c229c6a005f1b905090565b5f67ffffffffffffffff82169050919050565b6101b281610196565b82525050565b5f6020820190506101cb5f8301846101a9565b92915050565b6080516121d26101f75f395f8181610a8d01528181610ae20152610c9c01526121d25ff3fe6080604052600436106100c1575f3560e01c80637b1039991161007e578063bba48a9011610058578063bba48a901461022d578063e87c28a714610257578063f2fde38b1461027f578063f8c8765e146102a7576100c1565b80637b103999146101af5780638da5cb5b146101d9578063ad3cb1cc14610203576100c1565b80632f26ab1c146100c557806347842663146101015780634f1ef2861461012b57806352d1902d1461014757806353e78b6b14610171578063715018a614610199575b5f5ffd5b3480156100d0575f5ffd5b506100eb60048036038101906100e69190611494565b6102cf565b6040516100f89190611523565b60405180910390f35b34801561010c575f5ffd5b506101156105af565b6040516101229190611597565b60405180910390f35b6101456004803603810190610140919061164e565b6105d4565b005b348015610152575f5ffd5b5061015b6105f3565b60405161016891906116c0565b60405180910390f35b34801561017c575f5ffd5b50610197600480360381019061019291906116d9565b610624565b005b3480156101a4575f5ffd5b506101ad61066e565b005b3480156101ba575f5ffd5b506101c3610681565b6040516101d09190611724565b60405180910390f35b3480156101e4575f5ffd5b506101ed6106a6565b6040516101fa9190611523565b60405180910390f35b34801561020e575f5ffd5b506102176106db565b604051610224919061179d565b60405180910390f35b348015610238575f5ffd5b50610241610714565b60405161024e9190611523565b60405180910390f35b348015610262575f5ffd5b5061027d600480360381019061027891906117bd565b610738565b005b34801561028a575f5ffd5b506102a560048036038101906102a091906116d9565b6107c4565b005b3480156102b2575f5ffd5b506102cd60048036038101906102c891906117fb565b610848565b005b5f60025f9054906101000a900473ffffffffffffffffffffffffffffffffffffffff1673ffffffffffffffffffffffffffffffffffffffff166301dc8077336040518263ffffffff1660e01b815260040161032a9190611523565b602060405180830381865afa158015610345573d5f5f3e3d5ffd5b505050506040513d601f19601f820116820180604052508101906103699190611894565b6103a8576040517f08c379a000000000000000000000000000000000000000000000000000000000815260040161039f9061192f565b60405180910390fd5b5f33868660025f9054906101000a900473ffffffffffffffffffffffffffffffffffffffff1687876040516024016103e59695949392919061194d565b6040516020818303038152906040527f20db00b0000000000000000000000000000000000000000000000000000000007bffffffffffffffffffffffffffffffffffffffffffffffffffffffff19166020820180517bffffffffffffffffffffffffffffffffffffffffffffffffffffffff838183161783525050505090505f5f5f9054906101000a900473ffffffffffffffffffffffffffffffffffffffff1682604051610493906112e0565b61049e929190611a05565b604051809103905ff0801580156104b7573d5f5f3e3d5ffd5b5090505f81905060015f9054906101000a900473ffffffffffffffffffffffffffffffffffffffff1673ffffffffffffffffffffffffffffffffffffffff166305c4fdf933836040518363ffffffff1660e01b815260040161051a929190611a33565b5f604051808303815f87803b158015610531575f5ffd5b505af1158015610543573d5f5f3e3d5ffd5b505050508073ffffffffffffffffffffffffffffffffffffffff163373ffffffffffffffffffffffffffffffffffffffff167f09d75e12e349f79020715b0ea7b2c707e8acf1889b6d6f1337fce7f4e1b9e5c760405160405180910390a3809350505050949350505050565b60025f9054906101000a900473ffffffffffffffffffffffffffffffffffffffff1681565b6105dc610a8b565b6105e582610b71565b6105ef8282610b7c565b5050565b5f6105fc610c9a565b7f360894a13ba1a3210667c828492db98dca3e2076cc3735a920a3ca505d382bbc5f1b905090565b61062c610d21565b805f5f6101000a81548173ffffffffffffffffffffffffffffffffffffffff021916908373ffffffffffffffffffffffffffffffffffffffff16021790555050565b610676610d21565b61067f5f610da8565b565b60015f9054906101000a900473ffffffffffffffffffffffffffffffffffffffff1681565b5f5f6106b0610e79565b9050805f015f9054906101000a900473ffffffffffffffffffffffffffffffffffffffff1691505090565b6040518060400160405280600581526020017f352e302e3000000000000000000000000000000000000000000000000000000081525081565b5f5f9054906101000a900473ffffffffffffffffffffffffffffffffffffffff1681565b610740610d21565b8160015f6101000a81548173ffffffffffffffffffffffffffffffffffffffff021916908373ffffffffffffffffffffffffffffffffffffffff1602179055508060025f6101000a81548173ffffffffffffffffffffffffffffffffffffffff021916908373ffffffffffffffffffffffffffffffffffffffff1602179055505050565b6107cc610d21565b5f73ffffffffffffffffffffffffffffffffffffffff168173ffffffffffffffffffffffffffffffffffffffff160361083c575f6040517f1e4fbdf70000000000000000000000000000000000000000000000000000000081526004016108339190611523565b60405180910390fd5b61084581610da8565b50565b5f610851610ea0565b90505f815f0160089054906101000a900460ff161590505f825f015f9054906101000a900467ffffffffffffffff1690505f5f8267ffffffffffffffff161480156108995750825b90505f60018367ffffffffffffffff161480156108cc57505f3073ffffffffffffffffffffffffffffffffffffffff163b145b9050811580156108da575080155b15610911576040517ff92ee8a900000000000000000000000000000000000000000000000000000000815260040160405180910390fd5b6001855f015f6101000a81548167ffffffffffffffff021916908367ffffffffffffffff160217905550831561095e576001855f0160086101000a81548160ff0219169083151502179055505b61096789610eb3565b875f5f6101000a81548173ffffffffffffffffffffffffffffffffffffffff021916908373ffffffffffffffffffffffffffffffffffffffff1602179055508660015f6101000a81548173ffffffffffffffffffffffffffffffffffffffff021916908373ffffffffffffffffffffffffffffffffffffffff1602179055508560025f6101000a81548173ffffffffffffffffffffffffffffffffffffffff021916908373ffffffffffffffffffffffffffffffffffffffff1602179055508315610a80575f855f0160086101000a81548160ff0219169083151502179055507fc7f505b2f371ae2175ee4913f4499e1f2633a7b5936321eed1cdaeb6115181d26001604051610a779190611aa6565b60405180910390a15b505050505050505050565b7f000000000000000000000000000000000000000000000000000000000000000073ffffffffffffffffffffffffffffffffffffffff163073ffffffffffffffffffffffffffffffffffffffff161480610b3857507f000000000000000000000000000000000000000000000000000000000000000073ffffffffffffffffffffffffffffffffffffffff16610b1f610ec7565b73ffffffffffffffffffffffffffffffffffffffff1614155b15610b6f576040517fe07c8dba00000000000000000000000000000000000000000000000000000000815260040160405180910390fd5b565b610b79610d21565b50565b8173ffffffffffffffffffffffffffffffffffffffff166352d1902d6040518163ffffffff1660e01b8152600401602060405180830381865afa925050508015610be457506040513d601f19601f82011682018060405250810190610be19190611ae9565b60015b610c2557816040517f4c9c8ce3000000000000000000000000000000000000000000000000000000008152600401610c1c9190611523565b60405180910390fd5b7f360894a13ba1a3210667c828492db98dca3e2076cc3735a920a3ca505d382bbc5f1b8114610c8b57806040517faa1d49a4000000000000000000000000000000000000000000000000000000008152600401610c8291906116c0565b60405180910390fd5b610c958383610f1a565b505050565b7f000000000000000000000000000000000000000000000000000000000000000073ffffffffffffffffffffffffffffffffffffffff163073ffffffffffffffffffffffffffffffffffffffff1614610d1f576040517fe07c8dba00000000000000000000000000000000000000000000000000000000815260040160405180910390fd5b565b610d29610f8c565b73ffffffffffffffffffffffffffffffffffffffff16610d476106a6565b73ffffffffffffffffffffffffffffffffffffffff1614610da657610d6a610f8c565b6040517f118cdaa7000000000000000000000000000000000000000000000000000000008152600401610d9d9190611523565b60405180910390fd5b565b5f610db1610e79565b90505f815f015f9054906101000a900473ffffffffffffffffffffffffffffffffffffffff16905082825f015f6101000a81548173ffffffffffffffffffffffffffffffffffffffff021916908373ffffffffffffffffffffffffffffffffffffffff1602179055508273ffffffffffffffffffffffffffffffffffffffff168173ffffffffffffffffffffffffffffffffffffffff167f8be0079c531659141344cd1fd0a4f28419497f9722a3daafe3b4186f6b6457e060405160405180910390a3505050565b5f7f9016d09d72d40fdae2fd8ceac6b6234c7706214fd39c1cd1e609a0528c199300905090565b5f5f610eaa610f93565b90508091505090565b610ebb610fbc565b610ec481610ffc565b50565b5f610ef37f360894a13ba1a3210667c828492db98dca3e2076cc3735a920a3ca505d382bbc5f1b611080565b5f015f9054906101000a900473ffffffffffffffffffffffffffffffffffffffff16905090565b610f2382611089565b8173ffffffffffffffffffffffffffffffffffffffff167fbc7cd75a20ee27fd9adebab32041f755214dbc6bffa90cc0225b39da2e5c2d3b60405160405180910390a25f81511115610f7f57610f798282611152565b50610f88565b610f87611243565b5b5050565b5f33905090565b5f7ff0c57e16840df040f15088dc2f81fe391c3923bec73e23a9662efc9c229c6a005f1b905090565b610fc461127f565b610ffa576040517fd7e6bcf800000000000000000000000000000000000000000000000000000000815260040160405180910390fd5b565b611004610fbc565b5f73ffffffffffffffffffffffffffffffffffffffff168173ffffffffffffffffffffffffffffffffffffffff1603611074575f6040517f1e4fbdf700000000000000000000000000000000000000000000000000000000815260040161106b9190611523565b60405180910390fd5b61107d81610da8565b50565b5f819050919050565b5f8173ffffffffffffffffffffffffffffffffffffffff163b036110e457806040517f4c9c8ce30000000000000000000000000000000000000000000000000000000081526004016110db9190611523565b60405180910390fd5b806111107f360894a13ba1a3210667c828492db98dca3e2076cc3735a920a3ca505d382bbc5f1b611080565b5f015f6101000a81548173ffffffffffffffffffffffffffffffffffffffff021916908373ffffffffffffffffffffffffffffffffffffffff16021790555050565b60605f61115f848461129d565b905080801561119557505f6111726112b1565b118061119457505f8473ffffffffffffffffffffffffffffffffffffffff163b115b5b156111aa576111a26112b8565b91505061123d565b80156111ed57836040517f9996b3150000000000000000000000000000000000000000000000000000000081526004016111e49190611523565b60405180910390fd5b5f6111f66112b1565b1115611209576112046112d5565b61123b565b6040517fd6bda27500000000000000000000000000000000000000000000000000000000815260040160405180910390fd5b505b92915050565b5f34111561127d576040517fb398979f00000000000000000000000000000000000000000000000000000000815260040160405180910390fd5b565b5f611288610ea0565b5f0160089054906101000a900460ff16905090565b5f5f5f835160208501865af4905092915050565b5f3d905090565b606060405190503d81523d5f602083013e3d602001810160405290565b6040513d5f823e3d81fd5b61068880611b1583390190565b5f604051905090565b5f5ffd5b5f5ffd5b5f5ffd5b5f5ffd5b5f601f19601f8301169050919050565b7f4e487b71000000000000000000000000000000000000000000000000000000005f52604160045260245ffd5b61134c82611306565b810181811067ffffffffffffffff8211171561136b5761136a611316565b5b80604052505050565b5f61137d6112ed565b90506113898282611343565b919050565b5f67ffffffffffffffff8211156113a8576113a7611316565b5b6113b182611306565b9050602081019050919050565b828183375f83830152505050565b5f6113de6113d98461138e565b611374565b9050828152602081018484840111156113fa576113f9611302565b5b6114058482856113be565b509392505050565b5f82601f830112611421576114206112fe565b5b81356114318482602086016113cc565b91505092915050565b5f73ffffffffffffffffffffffffffffffffffffffff82169050919050565b5f6114638261143a565b9050919050565b61147381611459565b811461147d575f5ffd5b50565b5f8135905061148e8161146a565b92915050565b5f5f5f5f608085870312156114ac576114ab6112f6565b5b5f85013567ffffffffffffffff8111156114c9576114c86112fa565b5b6114d58782880161140d565b94505060206114e687828801611480565b93505060406114f787828801611480565b925050606061150887828801611480565b91505092959194509250565b61151d81611459565b82525050565b5f6020820190506115365f830184611514565b92915050565b5f819050919050565b5f61155f61155a6115558461143a565b61153c565b61143a565b9050919050565b5f61157082611545565b9050919050565b5f61158182611566565b9050919050565b61159181611577565b82525050565b5f6020820190506115aa5f830184611588565b92915050565b5f67ffffffffffffffff8211156115ca576115c9611316565b5b6115d382611306565b9050602081019050919050565b5f6115f26115ed846115b0565b611374565b90508281526020810184848401111561160e5761160d611302565b5b6116198482856113be565b509392505050565b5f82601f830112611635576116346112fe565b5b81356116458482602086016115e0565b91505092915050565b5f5f60408385031215611664576116636112f6565b5b5f61167185828601611480565b925050602083013567ffffffffffffffff811115611692576116916112fa565b5b61169e85828601611621565b9150509250929050565b5f819050919050565b6116ba816116a8565b82525050565b5f6020820190506116d35f8301846116b1565b92915050565b5f602082840312156116ee576116ed6112f6565b5b5f6116fb84828501611480565b91505092915050565b5f61170e82611566565b9050919050565b61171e81611704565b82525050565b5f6020820190506117375f830184611715565b92915050565b5f81519050919050565b5f82825260208201905092915050565b8281835e5f83830152505050565b5f61176f8261173d565b6117798185611747565b9350611789818560208601611757565b61179281611306565b840191505092915050565b5f6020820190508181035f8301526117b58184611765565b905092915050565b5f5f604083850312156117d3576117d26112f6565b5b5f6117e085828601611480565b92505060206117f185828601611480565b9150509250929050565b5f5f5f5f60808587031215611813576118126112f6565b5b5f61182087828801611480565b945050602061183187828801611480565b935050604061184287828801611480565b925050606061185387828801611480565b91505092959194509250565b5f8115159050919050565b6118738161185f565b811461187d575f5ffd5b50565b5f8151905061188e8161186a565b92915050565b5f602082840312156118a9576118a86112f6565b5b5f6118b684828501611880565b91505092915050565b7f4c656164657220696e656c696769626c6520666f72207661756c7420637265615f8201527f74696f6e00000000000000000000000000000000000000000000000000000000602082015250565b5f611919602483611747565b9150611924826118bf565b604082019050919050565b5f6020820190508181035f8301526119468161190d565b9050919050565b5f60c0820190506119605f830189611514565b81810360208301526119728188611765565b90506119816040830187611514565b61198e6060830186611514565b61199b6080830185611514565b6119a860a0830184611514565b979650505050505050565b5f81519050919050565b5f82825260208201905092915050565b5f6119d7826119b3565b6119e181856119bd565b93506119f1818560208601611757565b6119fa81611306565b840191505092915050565b5f604082019050611a185f830185611514565b8181036020830152611a2a81846119cd565b90509392505050565b5f604082019050611a465f830185611514565b611a536020830184611514565b9392505050565b5f819050919050565b5f67ffffffffffffffff82169050919050565b5f611a90611a8b611a8684611a5a565b61153c565b611a63565b9050919050565b611aa081611a76565b82525050565b5f602082019050611ab95f830184611a97565b92915050565b611ac8816116a8565b8114611ad2575f5ffd5b50565b5f81519050611ae381611abf565b92915050565b5f60208284031215611afe57611afd6112f6565b5b5f611b0b84828501611ad5565b9150509291505056fe608060405260405161068838038061068883398181016040528101906100259190610526565b61003361008e60201b60201c565b15801561004057505f8151145b15610077576040517fc28a273c00000000000000000000000000000000000000000000000000000000815260040160405180910390fd5b610087828261009560201b60201c565b50506105a8565b5f5f905090565b6100a48261011960201b60201c565b8173ffffffffffffffffffffffffffffffffffffffff167fbc7cd75a20ee27fd9adebab32041f755214dbc6bffa90cc0225b39da2e5c2d3b60405160405180910390a25f815111156101065761010082826101e860201b60201c565b50610115565b6101146102f760201b60201c565b5b5050565b5f8173ffffffffffffffffffffffffffffffffffffffff163b0361017457806040517f4c9c8ce300000000000000000000000000000000000000000000000000000000815260040161016b919061058f565b60405180910390fd5b806101a67f360894a13ba1a3210667c828492db98dca3e2076cc3735a920a3ca505d382bbc5f1b61033360201b60201c565b5f015f6101000a81548173ffffffffffffffffffffffffffffffffffffffff021916908373ffffffffffffffffffffffffffffffffffffffff16021790555050565b60605f6101fb848461033c60201b60201c565b905080801561023757505f61021461035060201b60201c565b118061023657505f8473ffffffffffffffffffffffffffffffffffffffff163b115b5b156102525761024a61035760201b60201c565b9150506102f1565b801561029557836040517f9996b31500000000000000000000000000000000000000000000000000000000815260040161028c919061058f565b60405180910390fd5b5f6102a461035060201b60201c565b11156102bd576102b861037460201b60201c565b6102ef565b6040517fd6bda27500000000000000000000000000000000000000000000000000000000815260040160405180910390fd5b505b92915050565b5f341115610331576040517fb398979f00000000000000000000000000000000000000000000000000000000815260040160405180910390fd5b565b5f819050919050565b5f5f5f835160208501865af4905092915050565b5f3d905090565b606060405190503d81523d5f602083013e3d602001810160405290565b6040513d5f823e3d81fd5b5f604051905090565b5f5ffd5b5f5ffd5b5f73ffffffffffffffffffffffffffffffffffffffff82169050919050565b5f6103b982610390565b9050919050565b6103c9816103af565b81146103d3575f5ffd5b50565b5f815190506103e4816103c0565b92915050565b5f5ffd5b5f5ffd5b5f601f19601f8301169050919050565b7f4e487b71000000000000000000000000000000000000000000000000000000005f52604160045260245ffd5b610438826103f2565b810181811067ffffffffffffffff8211171561045757610456610402565b5b80604052505050565b5f61046961037f565b9050610475828261042f565b919050565b5f67ffffffffffffffff82111561049457610493610402565b5b61049d826103f2565b9050602081019050919050565b8281835e5f83830152505050565b5f6104ca6104c58461047a565b610460565b9050828152602081018484840111156104e6576104e56103ee565b5b6104f18482856104aa565b509392505050565b5f82601f83011261050d5761050c6103ea565b5b815161051d8482602086016104b8565b91505092915050565b5f5f6040838503121561053c5761053b610388565b5b5f610549858286016103d6565b925050602083015167ffffffffffffffff81111561056a5761056961038c565b5b610576858286016104f9565b9150509250929050565b610589816103af565b82525050565b5f6020820190506105a25f830184610580565b92915050565b60d4806105b45f395ff3fe6080604052600a600c565b005b60186014601a565b6026565b565b5f60216044565b905090565b365f5f375f5f365f845af43d5f5f3e805f81146040573d5ff35b3d5ffd5b5f606e7f360894a13ba1a3210667c828492db98dca3e2076cc3735a920a3ca505d382bbc5f1b6095565b5f015f9054906101000a900473ffffffffffffffffffffffffffffffffffffffff16905090565b5f81905091905056fea26469706673582212206adccb5980eb5e51f1a5b71c4bf34f071bd6ec1549f580b560ca71a03a58287f64736f6c63430008210033a2646970667358221220d9cdb0e2451179b8cdd519f39438f908082c8b79f0c8ed52e45bcff465d3b81864736f6c63430008210033","linkReferences":{}},"methodIdentifiers":{"UPGRADE_INTERFACE_VERSION()":"ad3cb1cc","createVault(string,address,address,address)":"2f26ab1c","initialize(address,address,address,address)":"f8c8765e","owner()":"8da5cb5b","proxiableUUID()":"52d1902d","registry()":"7b103999","renounceOwnership()":"715018a6","riskManager()":"47842663","setDependencies(address,address)":"e87c28a7","setVaultImplementation(address)":"53e78b6b","transferOwnership(address)":"f2fde38b","upgradeToAndCall(address,bytes)":"4f1ef286","vaultImplementation()":"bba48a90"},"id":70}