{"abi":[{"type":"constructor","inputs":[],"stateMutability":"nonpayable"},{"type":"function","name":"UPGRADE_INTERFACE_VERSION","inputs":[],"outputs":[{"name":"","type":"string","internalType":"string"}],"stateMutability":"view"},{"type":"function","name":"getPerformanceMetrics","inputs":[{"name":"gladiator","type":"address","internalType":"address"}],"outputs":[{"name":"","type":"tuple","internalType":"struct ArgusOracle.Metrics","components":[{"name":"reputationScore","type":"uint256","internalType":"uint256"},{"name":"winRate","type":"uint256","internalType":"uint256"},{"name":"maxDrawdown","type":"uint256","internalType":"uint256"},{"name":"signalCount","type":"uint256","internalType":"uint256"},{"name":"lastUpdated","type":"uint256","internalType":"uint256"}]}],"stateMutability":"view"},{"type":"function","name":"getReputationScore","inputs":[{"name":"gladiator","type":"address","internalType":"address"}],"outputs":[{"name":"","type":"uint256","internalType":"uint256"}],"stateMutability":"view"},{"type":"function","name":"gladiatorMetrics","inputs":[{"name":"","type":"address","internalType":"address"}],"outputs":[{"name":"reputationScore","type":"uint256","internalType":"uint256"},{"name":"winRate","type":"uint256","internalType":"uint256"},{"name":"maxDrawdown","type":"uint256","internalType":"uint256"},{"name":"signalCount","type":"uint256","internalType":"uint256"},{"name":"lastUpdated","type":"uint256","internalType":"uint256"}],"stateMutability":"view"},{"type":"function","name":"initialize","inputs":[{"name":"initialOwner","type":"address","internalType":"address"}],"outputs":[],"stateMutability":"nonpayable"},{"type":"function","name":"isEligible","inputs":[{"name":"gladiator","type":"address","internalType":"address"},{"name":"minScoreThreshold","type":"uint256","internalType":"uint256"}],"outputs":[{"name":"","type":"bool","internalType":"bool"}],"stateMutability":"view"},{"type":"function","name":"owner","inputs":[],"outputs":[{"name":"","type":"address","internalType":"address"}],"stateMutability":"view"},{"type":"function","name":"proxiableUUID","inputs":[],"outputs":[{"name":"","type":"bytes32","internalType":"bytes32"}],"stateMutability":"view"},{"type":"function","name":"renounceOwnership","inputs":[],"outputs":[],"stateMutability":"nonpayable"},{"type":"function","name":"transferOwnership","inputs":[{"name":"newOwner","type":"address","internalType":"address"}],"outputs":[],"stateMutability":"nonpayable"},{"type":"function","name":"updateMetrics","inputs":[{"name":"gladiator","type":"address","internalType":"address"},{"name":"reputationScore","type":"uint256","internalType":"uint256"},{"name":"winRate","type":"uint256","internalType":"uint256"},{"name":"maxDrawdown","type":"uint256","internalType":"uint256"},{"name":"signalCount","type":"uint256","internalType":"uint256"}],"outputs":[],"stateMutability":"nonpayable"},{"type":"function","name":"upgradeToAndCall","inputs":[{"name":"newImplementation","type":"address","internalType":"address"},{"name":"data","type":"bytes","internalType":"bytes"}],"outputs":[],"stateMutability":"payable"},{"type":"event","name":"Initialized","inputs":[{"name":"version","type":"uint64","indexed":false,"internalType":"uint64"}],"anonymous":false},{"type":"event","name":"OwnershipTransferred","inputs":[{"name":"previousOwner","type":"address","indexed":true,"internalType":"address"},{"name":"newOwner","type":"address","indexed":true,"internalType":"address"}],"anonymous":false},{"type":"event","name":"Upgraded","inputs":[{"name":"implementation","type":"address","indexed":true,"internalType":"address"}],"anonymous":false},{"type":"error","name":"AddressEmptyCode","inputs":[{"name":"target","type":"address","internalType":"address"}]},{"type":"error","name":"ERC1967InvalidImplementation","inputs":[{"name":"implementation","type":"address","internalType":"address"}]},{"type":"error","name":"ERC1967NonPayable","inputs":[]},{"type":"error","name":"FailedCall","inputs":[]},{"type":"error","name":"InvalidInitialization","inputs":[]},{"type":"error","name":"NotInitializing","inputs":[]},{"type":"error","name":"OwnableInvalidOwner","inputs":[{"name":"owner","type":"address","internalType":"address"}]},{"type":"error","name":"OwnableUnauthorizedAccount","inputs":[{"name":"account","type":"address","internalType":"address"}]},{"type":"error","name":"UUPSUnauthorizedCallContext","inputs":[]},{"type":"error","name":"UUPSUnsupportedProxiableUUID","inputs":[{"name":"slot","type":"bytes32","internalType":"bytes32"}]}],"bytecode":{"object":"0x60a06040523073ffffffffffffffffffffffffffffffffffffffff1660809073ffffffffffffffffffffffffffffffffffffffff16815250348015610042575f5ffd5b5061005161005660201b60201c565b6101d1565b5f61006561015460201b60201c565b9050805f0160089054906101000a900460ff16156100af576040517ff92ee8a900000000000000000000000000000000000000000000000000000000815260040160405180910390fd5b67ffffffffffffffff8016815f015f9054906101000a900467ffffffffffffffff1667ffffffffffffffff16146101515767ffffffffffffffff815f015f6101000a81548167ffffffffffffffff021916908367ffffffffffffffff1602179055507fc7f505b2f371ae2175ee4913f4499e1f2633a7b5936321eed1cdaeb6115181d267ffffffffffffffff60405161014891906101b8565b60405180910390a15b50565b5f5f61016461016d60201b60201c565b90508091505090565b5f7ff0c57e16840df040f15088dc2f81fe391c3923bec73e23a9662efc9c229c6a005f1b905090565b5f67ffffffffffffffff82169050919050565b6101b281610196565b82525050565b5f6020820190506101cb5f8301846101a9565b92915050565b60805161162a6101f75f395f818161078d015281816107e2015261099c015261162a5ff3fe6080604052600436106100a6575f3560e01c8063ad3cb1cc11610063578063ad3cb1cc146101ac578063c4d66de8146101d6578063d80a8434146101fe578063e41f6e5f1461023a578063e844c8c614610262578063f2fde38b1461029e576100a6565b80634f1ef286146100aa57806352d1902d146100c6578063715018a6146100f057806375a67d5c1461010657806385ca8759146101425780638da5cb5b14610182575b5f5ffd5b6100c460048036038101906100bf91906111b1565b6102c6565b005b3480156100d1575f5ffd5b506100da6102e5565b6040516100e79190611223565b60405180910390f35b3480156100fb575f5ffd5b50610104610316565b005b348015610111575f5ffd5b5061012c6004803603810190610127919061123c565b610329565b604051610139919061127f565b60405180910390f35b34801561014d575f5ffd5b506101686004803603810190610163919061123c565b610370565b604051610179959493929190611298565b60405180910390f35b34801561018d575f5ffd5b506101966103a1565b6040516101a391906112f8565b60405180910390f35b3480156101b7575f5ffd5b506101c06103d6565b6040516101cd9190611371565b60405180910390f35b3480156101e1575f5ffd5b506101fc60048036038101906101f7919061123c565b61040f565b005b348015610209575f5ffd5b50610224600480360381019061021f91906113bb565b610590565b6040516102319190611413565b60405180910390f35b348015610245575f5ffd5b50610260600480360381019061025b919061142c565b6105db565b005b34801561026d575f5ffd5b506102886004803603810190610283919061123c565b610680565b6040516102959190611518565b60405180910390f35b3480156102a9575f5ffd5b506102c460048036038101906102bf919061123c565b610707565b005b6102ce61078b565b6102d782610871565b6102e1828261087c565b5050565b5f6102ee61099a565b7f360894a13ba1a3210667c828492db98dca3e2076cc3735a920a3ca505d382bbc5f1b905090565b61031e610a21565b6103275f610aa8565b565b5f5f5f8373ffffffffffffffffffffffffffffffffffffffff1673ffffffffffffffffffffffffffffffffffffffff1681526020019081526020015f205f01549050919050565b5f602052805f5260405f205f91509050805f0154908060010154908060020154908060030154908060040154905085565b5f5f6103ab610b79565b9050805f015f9054906101000a900473ffffffffffffffffffffffffffffffffffffffff1691505090565b6040518060400160405280600581526020017f352e302e3000000000000000000000000000000000000000000000000000000081525081565b5f610418610ba0565b90505f815f0160089054906101000a900460ff161590505f825f015f9054906101000a900467ffffffffffffffff1690505f5f8267ffffffffffffffff161480156104605750825b90505f60018367ffffffffffffffff1614801561049357505f3073ffffffffffffffffffffffffffffffffffffffff163b145b9050811580156104a1575080155b156104d8576040517ff92ee8a900000000000000000000000000000000000000000000000000000000815260040160405180910390fd5b6001855f015f6101000a81548167ffffffffffffffff021916908367ffffffffffffffff1602179055508315610525576001855f0160086101000a81548160ff0219169083151502179055505b61052e86610bb3565b8315610588575f855f0160086101000a81548160ff0219169083151502179055507fc7f505b2f371ae2175ee4913f4499e1f2633a7b5936321eed1cdaeb6115181d2600160405161057f9190611586565b60405180910390a15b505050505050565b5f815f5f8573ffffffffffffffffffffffffffffffffffffffff1673ffffffffffffffffffffffffffffffffffffffff1681526020019081526020015f205f01541015905092915050565b6105e3610a21565b6040518060a00160405280858152602001848152602001838152602001828152602001428152505f5f8773ffffffffffffffffffffffffffffffffffffffff1673ffffffffffffffffffffffffffffffffffffffff1681526020019081526020015f205f820151815f0155602082015181600101556040820151816002015560608201518160030155608082015181600401559050505050505050565b610688610fe0565b5f5f8373ffffffffffffffffffffffffffffffffffffffff1673ffffffffffffffffffffffffffffffffffffffff1681526020019081526020015f206040518060a00160405290815f82015481526020016001820154815260200160028201548152602001600382015481526020016004820154815250509050919050565b61070f610a21565b5f73ffffffffffffffffffffffffffffffffffffffff168173ffffffffffffffffffffffffffffffffffffffff160361077f575f6040517f1e4fbdf700000000000000000000000000000000000000000000000000000000815260040161077691906112f8565b60405180910390fd5b61078881610aa8565b50565b7f000000000000000000000000000000000000000000000000000000000000000073ffffffffffffffffffffffffffffffffffffffff163073ffffffffffffffffffffffffffffffffffffffff16148061083857507f000000000000000000000000000000000000000000000000000000000000000073ffffffffffffffffffffffffffffffffffffffff1661081f610bc7565b73ffffffffffffffffffffffffffffffffffffffff1614155b1561086f576040517fe07c8dba00000000000000000000000000000000000000000000000000000000815260040160405180910390fd5b565b610879610a21565b50565b8173ffffffffffffffffffffffffffffffffffffffff166352d1902d6040518163ffffffff1660e01b8152600401602060405180830381865afa9250505080156108e457506040513d601f19601f820116820180604052508101906108e191906115c9565b60015b61092557816040517f4c9c8ce300000000000000000000000000000000000000000000000000000000815260040161091c91906112f8565b60405180910390fd5b7f360894a13ba1a3210667c828492db98dca3e2076cc3735a920a3ca505d382bbc5f1b811461098b57806040517faa1d49a40000000000000000000000000000000000000000000000000000000081526004016109829190611223565b60405180910390fd5b6109958383610c1a565b505050565b7f000000000000000000000000000000000000000000000000000000000000000073ffffffffffffffffffffffffffffffffffffffff163073ffffffffffffffffffffffffffffffffffffffff1614610a1f576040517fe07c8dba00000000000000000000000000000000000000000000000000000000815260040160405180910390fd5b565b610a29610c8c565b73ffffffffffffffffffffffffffffffffffffffff16610a476103a1565b73ffffffffffffffffffffffffffffffffffffffff1614610aa657610a6a610c8c565b6040517f118cdaa7000000000000000000000000000000000000000000000000000000008152600401610a9d91906112f8565b60405180910390fd5b565b5f610ab1610b79565b90505f815f015f9054906101000a900473ffffffffffffffffffffffffffffffffffffffff16905082825f015f6101000a81548173ffffffffffffffffffffffffffffffffffffffff021916908373ffffffffffffffffffffffffffffffffffffffff1602179055508273ffffffffffffffffffffffffffffffffffffffff168173ffffffffffffffffffffffffffffffffffffffff167f8be0079c531659141344cd1fd0a4f28419497f9722a3daafe3b4186f6b6457e060405160405180910390a3505050565b5f7f9016d09d72d40fdae2fd8ceac6b6234c7706214fd39c1cd1e609a0528c199300905090565b5f5f610baa610c93565b90508091505090565b610bbb610cbc565b610bc481610cfc565b50565b5f610bf37f360894a13ba1a3210667c828492db98dca3e2076cc3735a920a3ca505d382bbc5f1b610d80565b5f015f9054906101000a900473ffffffffffffffffffffffffffffffffffffffff16905090565b610c2382610d89565b8173ffffffffffffffffffffffffffffffffffffffff167fbc7cd75a20ee27fd9adebab32041f755214dbc6bffa90cc0225b39da2e5c2d3b60405160405180910390a25f81511115610c7f57610c798282610e52565b50610c88565b610c87610f43565b5b5050565b5f33905090565b5f7ff0c57e16840df040f15088dc2f81fe391c3923bec73e23a9662efc9c229c6a005f1b905090565b610cc4610f7f565b610cfa576040517fd7e6bcf800000000000000000000000000000000000000000000000000000000815260040160405180910390fd5b565b610d04610cbc565b5f73ffffffffffffffffffffffffffffffffffffffff168173ffffffffffffffffffffffffffffffffffffffff1603610d74575f6040517f1e4fbdf7000000000000000000000000000000000000000000000000000000008152600401610d6b91906112f8565b60405180910390fd5b610d7d81610aa8565b50565b5f819050919050565b5f8173ffffffffffffffffffffffffffffffffffffffff163b03610de457806040517f4c9c8ce3000000000000000000000000000000000000000000000000000000008152600401610ddb91906112f8565b60405180910390fd5b80610e107f360894a13ba1a3210667c828492db98dca3e2076cc3735a920a3ca505d382bbc5f1b610d80565b5f015f6101000a81548173ffffffffffffffffffffffffffffffffffffffff021916908373ffffffffffffffffffffffffffffffffffffffff16021790555050565b60605f610e5f8484610f9d565b9050808015610e9557505f610e72610fb1565b1180610e9457505f8473ffffffffffffffffffffffffffffffffffffffff163b115b5b15610eaa57610ea2610fb8565b915050610f3d565b8015610eed57836040517f9996b315000000000000000000000000000000000000000000000000000000008152600401610ee491906112f8565b60405180910390fd5b5f610ef6610fb1565b1115610f0957610f04610fd5565b610f3b565b6040517fd6bda27500000000000000000000000000000000000000000000000000000000815260040160405180910390fd5b505b92915050565b5f341115610f7d576040517fb398979f00000000000000000000000000000000000000000000000000000000815260040160405180910390fd5b565b5f610f88610ba0565b5f0160089054906101000a900460ff16905090565b5f5f5f835160208501865af4905092915050565b5f3d905090565b606060405190503d81523d5f602083013e3d602001810160405290565b6040513d5f823e3d81fd5b6040518060a001604052805f81526020015f81526020015f81526020015f81526020015f81525090565b5f604051905090565b5f5ffd5b5f5ffd5b5f73ffffffffffffffffffffffffffffffffffffffff82169050919050565b5f6110448261101b565b9050919050565b6110548161103a565b811461105e575f5ffd5b50565b5f8135905061106f8161104b565b92915050565b5f5ffd5b5f5ffd5b5f601f19601f8301169050919050565b7f4e487b71000000000000000000000000000000000000000000000000000000005f52604160045260245ffd5b6110c38261107d565b810181811067ffffffffffffffff821117156110e2576110e161108d565b5b80604052505050565b5f6110f461100a565b905061110082826110ba565b919050565b5f67ffffffffffffffff82111561111f5761111e61108d565b5b6111288261107d565b9050602081019050919050565b828183375f83830152505050565b5f61115561115084611105565b6110eb565b90508281526020810184848401111561117157611170611079565b5b61117c848285611135565b509392505050565b5f82601f83011261119857611197611075565b5b81356111a8848260208601611143565b91505092915050565b5f5f604083850312156111c7576111c6611013565b5b5f6111d485828601611061565b925050602083013567ffffffffffffffff8111156111f5576111f4611017565b5b61120185828601611184565b9150509250929050565b5f819050919050565b61121d8161120b565b82525050565b5f6020820190506112365f830184611214565b92915050565b5f6020828403121561125157611250611013565b5b5f61125e84828501611061565b91505092915050565b5f819050919050565b61127981611267565b82525050565b5f6020820190506112925f830184611270565b92915050565b5f60a0820190506112ab5f830188611270565b6112b86020830187611270565b6112c56040830186611270565b6112d26060830185611270565b6112df6080830184611270565b9695505050505050565b6112f28161103a565b82525050565b5f60208201905061130b5f8301846112e9565b92915050565b5f81519050919050565b5f82825260208201905092915050565b8281835e5f83830152505050565b5f61134382611311565b61134d818561131b565b935061135d81856020860161132b565b6113668161107d565b840191505092915050565b5f6020820190508181035f8301526113898184611339565b905092915050565b61139a81611267565b81146113a4575f5ffd5b50565b5f813590506113b581611391565b92915050565b5f5f604083850312156113d1576113d0611013565b5b5f6113de85828601611061565b92505060206113ef858286016113a7565b9150509250929050565b5f8115159050919050565b61140d816113f9565b82525050565b5f6020820190506114265f830184611404565b92915050565b5f5f5f5f5f60a0868803121561144557611444611013565b5b5f61145288828901611061565b9550506020611463888289016113a7565b9450506040611474888289016113a7565b9350506060611485888289016113a7565b9250506080611496888289016113a7565b9150509295509295909350565b6114ac81611267565b82525050565b60a082015f8201516114c65f8501826114a3565b5060208201516114d960208501826114a3565b5060408201516114ec60408501826114a3565b5060608201516114ff60608501826114a3565b50608082015161151260808501826114a3565b50505050565b5f60a08201905061152b5f8301846114b2565b92915050565b5f819050919050565b5f67ffffffffffffffff82169050919050565b5f819050919050565b5f61157061156b61156684611531565b61154d565b61153a565b9050919050565b61158081611556565b82525050565b5f6020820190506115995f830184611577565b92915050565b6115a88161120b565b81146115b2575f5ffd5b50565b5f815190506115c38161159f565b92915050565b5f602082840312156115de576115dd611013565b5b5f6115eb848285016115b5565b9150509291505056fea2646970667358221220fb7bb3873610598394767d1f2b7f420ccd1337c1c99078a3009160afc6046ee064736f6c63430008210033","linkReferences":{}},"methodIdentifiers":{"UPGRADE_INTERFACE_VERSION()":"ad3cb1cc","getPerformanceMetrics(address)":"e844c8c6","getReputationScore(address)":"75a67d5c","gladiatorMetrics(address)":"85ca8759","initialize(address)":"c4d66de8","isEligible(address,uint256)":"d80a8434","owner()":"8da5cb5b","proxiableUUID()":"52d1902d","renounceOwnership()":"715018a6","transferOwnership(address)":"f2fde38b","updateMetrics(address,uint256,uint256,uint256,uint256)":"e41f6e5f","upgradeToAndCall(address,bytes)":"4f1ef286"},"id":75}