{"abi":[{"type":"constructor","inputs":[],"stateMutability":"nonpayable"},{"type":"function","name":"UPGRADE_INTERFACE_VERSION","inputs":[],"outputs":[{"name":"","type":"string","internalType":"string"}],"stateMutability":"view"},{"type":"function","name":"initialize","inputs":[{"name":"initialOwner","type":"address","internalType":"address"},{"name":"_paxDexRouter","type":"address","internalType":"address"}],"outputs":[],"stateMutability":"nonpayable"},{"type":"function","name":"owner","inputs":[],"outputs":[{"name":"","type":"address","internalType":"address"}],"stateMutability":"view"},{"type":"function","name":"paxDexRouter","inputs":[],"outputs":[{"name":"","type":"address","internalType":"address"}],"stateMutability":"view"},{"type":"function","name":"proxiableUUID","inputs":[],"outputs":[{"name":"","type":"bytes32","internalType":"bytes32"}],"stateMutability":"view"},{"type":"function","name":"renounceOwnership","inputs":[],"outputs":[],"stateMutability":"nonpayable"},{"type":"function","name":"setPaxDexRouter","inputs":[{"name":"_paxDexRouter","type":"address","internalType":"address"}],"outputs":[],"stateMutability":"nonpayable"},{"type":"function","name":"swap","inputs":[{"name":"tokenIn","type":"address","internalType":"address"},{"name":"tokenOut","type":"address","internalType":"address"},{"name":"amountIn","type":"uint256","internalType":"uint256"},{"name":"amountOutMinimum","type":"uint256","internalType":"uint256"}],"outputs":[{"name":"amountOut","type":"uint256","internalType":"uint256"}],"stateMutability":"nonpayable"},{"type":"function","name":"transferOwnership","inputs":[{"name":"newOwner","type":"address","internalType":"address"}],"outputs":[],"stateMutability":"nonpayable"},{"type":"function","name":"upgradeToAndCall","inputs":[{"name":"newImplementation","type":"address","internalType":"address"},{"name":"data","type":"bytes","internalType":"bytes"}],"outputs":[],"stateMutability":"payable"},{"type":"event","name":"Initialized","inputs":[{"name":"version","type":"uint64","indexed":false,"internalType":"uint64"}],"anonymous":false},{"type":"event","name":"OwnershipTransferred","inputs":[{"name":"previousOwner","type":"address","indexed":true,"internalType":"address"},{"name":"newOwner","type":"address","indexed":true,"internalType":"address"}],"anonymous":false},{"type":"event","name":"Upgraded","inputs":[{"name":"implementation","type":"address","indexed":true,"internalType":"address"}],"anonymous":false},{"type":"error","name":"AddressEmptyCode","inputs":[{"name":"target","type":"address","internalType":"address"}]},{"type":"error","name":"ERC1967InvalidImplementation","inputs":[{"name":"implementation","type":"address","internalType":"address"}]},{"type":"error","name":"ERC1967NonPayable","inputs":[]},{"type":"error","name":"FailedCall","inputs":[]},{"type":"error","name":"InvalidInitialization","inputs":[]},{"type":"error","name":"NotInitializing","inputs":[]},{"type":"error","name":"OwnableInvalidOwner","inputs":[{"name":"owner","type":"address","internalType":"address"}]},{"type":"error","name":"OwnableUnauthorizedAccount","inputs":[{"name":"account","type":"address","internalType":"address"}]},{"type":"error","name":"UUPSUnauthorizedCallContext","inputs":[]},{"type":"error","name":"UUPSUnsupportedProxiableUUID","inputs":[{"name":"slot","type":"bytes32","internalType":"bytes32"}]}],"bytecode":{"object":"0x60a06040523073ffffffffffffffffffffffffffffffffffffffff1660809073ffffffffffffffffffffffffffffffffffffffff16815250348015610042575f5ffd5b5061005161005660201b60201c565b6101d1565b5f61006561015460201b60201c565b9050805f0160089054906101000a900460ff16156100af576040517ff92ee8a900000000000000000000000000000000000000000000000000000000815260040160405180910390fd5b67ffffffffffffffff8016815f015f9054906101000a900467ffffffffffffffff1667ffffffffffffffff16146101515767ffffffffffffffff815f015f6101000a81548167ffffffffffffffff021916908367ffffffffffffffff1602179055507fc7f505b2f371ae2175ee4913f4499e1f2633a7b5936321eed1cdaeb6115181d267ffffffffffffffff60405161014891906101b8565b60405180910390a15b50565b5f5f61016461016d60201b60201c565b90508091505090565b5f7ff0c57e16840df040f15088dc2f81fe391c3923bec73e23a9662efc9c229c6a005f1b905090565b5f67ffffffffffffffff82169050919050565b6101b281610196565b82525050565b5f6020820190506101cb5f8301846101a9565b92915050565b6080516116816101f75f395f81816107a5015281816107fa01526109b401526116815ff3fe608060405260043610610090575f3560e01c80638da5cb5b116100585780638da5cb5b14610140578063ad3cb1cc1461016a578063dcf2c07314610194578063f2fde38b146101be578063fe029156146101e657610090565b8063485cc955146100945780634f1ef286146100bc57806352d1902d146100d857806363a9d89014610102578063715018a61461012a575b5f5ffd5b34801561009f575f5ffd5b506100ba60048036038101906100b5919061103c565b610222565b005b6100d660048036038101906100d191906111b6565b6103e3565b005b3480156100e3575f5ffd5b506100ec610402565b6040516100f99190611228565b60405180910390f35b34801561010d575f5ffd5b5061012860048036038101906101239190611241565b610433565b005b348015610135575f5ffd5b5061013e61047d565b005b34801561014b575f5ffd5b50610154610490565b604051610161919061127b565b60405180910390f35b348015610175575f5ffd5b5061017e6104c5565b60405161018b91906112f4565b60405180910390f35b34801561019f575f5ffd5b506101a86104fe565b6040516101b5919061127b565b60405180910390f35b3480156101c9575f5ffd5b506101e460048036038101906101df9190611241565b610522565b005b3480156101f1575f5ffd5b5061020c60048036038101906102079190611347565b6105a6565b60405161021991906113ba565b60405180910390f35b5f61022b61077c565b90505f815f0160089054906101000a900460ff161590505f825f015f9054906101000a900467ffffffffffffffff1690505f5f8267ffffffffffffffff161480156102735750825b90505f60018367ffffffffffffffff161480156102a657505f3073ffffffffffffffffffffffffffffffffffffffff163b145b9050811580156102b4575080155b156102eb576040517ff92ee8a900000000000000000000000000000000000000000000000000000000815260040160405180910390fd5b6001855f015f6101000a81548167ffffffffffffffff021916908367ffffffffffffffff1602179055508315610338576001855f0160086101000a81548160ff0219169083151502179055505b6103418761078f565b855f5f6101000a81548173ffffffffffffffffffffffffffffffffffffffff021916908373ffffffffffffffffffffffffffffffffffffffff16021790555083156103da575f855f0160086101000a81548160ff0219169083151502179055507fc7f505b2f371ae2175ee4913f4499e1f2633a7b5936321eed1cdaeb6115181d260016040516103d19190611428565b60405180910390a15b50505050505050565b6103eb6107a3565b6103f482610889565b6103fe8282610894565b5050565b5f61040b6109b2565b7f360894a13ba1a3210667c828492db98dca3e2076cc3735a920a3ca505d382bbc5f1b905090565b61043b610a39565b805f5f6101000a81548173ffffffffffffffffffffffffffffffffffffffff021916908373ffffffffffffffffffffffffffffffffffffffff16021790555050565b610485610a39565b61048e5f610ac0565b565b5f5f61049a610b91565b9050805f015f9054906101000a900473ffffffffffffffffffffffffffffffffffffffff1691505090565b6040518060400160405280600581526020017f352e302e3000000000000000000000000000000000000000000000000000000081525081565b5f5f9054906101000a900473ffffffffffffffffffffffffffffffffffffffff1681565b61052a610a39565b5f73ffffffffffffffffffffffffffffffffffffffff168173ffffffffffffffffffffffffffffffffffffffff160361059a575f6040517f1e4fbdf7000000000000000000000000000000000000000000000000000000008152600401610591919061127b565b60405180910390fd5b6105a381610ac0565b50565b5f8473ffffffffffffffffffffffffffffffffffffffff1663095ea7b35f5f9054906101000a900473ffffffffffffffffffffffffffffffffffffffff16856040518363ffffffff1660e01b8152600401610602929190611441565b6020604051808303815f875af115801561061e573d5f5f3e3d5ffd5b505050506040513d601f19601f82011682018060405250810190610642919061149d565b505f6040518060e001604052808773ffffffffffffffffffffffffffffffffffffffff1681526020018673ffffffffffffffffffffffffffffffffffffffff168152602001610bb862ffffff1681526020013373ffffffffffffffffffffffffffffffffffffffff1681526020018581526020018481526020015f73ffffffffffffffffffffffffffffffffffffffff1681525090505f5f9054906101000a900473ffffffffffffffffffffffffffffffffffffffff1673ffffffffffffffffffffffffffffffffffffffff166304e45aaf826040518263ffffffff1660e01b8152600401610731919061159e565b6020604051808303815f875af115801561074d573d5f5f3e3d5ffd5b505050506040513d601f19601f8201168201806040525081019061077191906115cb565b915050949350505050565b5f5f610786610bb8565b90508091505090565b610797610be1565b6107a081610c21565b50565b7f000000000000000000000000000000000000000000000000000000000000000073ffffffffffffffffffffffffffffffffffffffff163073ffffffffffffffffffffffffffffffffffffffff16148061085057507f000000000000000000000000000000000000000000000000000000000000000073ffffffffffffffffffffffffffffffffffffffff16610837610ca5565b73ffffffffffffffffffffffffffffffffffffffff1614155b15610887576040517fe07c8dba00000000000000000000000000000000000000000000000000000000815260040160405180910390fd5b565b610891610a39565b50565b8173ffffffffffffffffffffffffffffffffffffffff166352d1902d6040518163ffffffff1660e01b8152600401602060405180830381865afa9250505080156108fc57506040513d601f19601f820116820180604052508101906108f99190611620565b60015b61093d57816040517f4c9c8ce3000000000000000000000000000000000000000000000000000000008152600401610934919061127b565b60405180910390fd5b7f360894a13ba1a3210667c828492db98dca3e2076cc3735a920a3ca505d382bbc5f1b81146109a357806040517faa1d49a400000000000000000000000000000000000000000000000000000000815260040161099a9190611228565b60405180910390fd5b6109ad8383610cf8565b505050565b7f000000000000000000000000000000000000000000000000000000000000000073ffffffffffffffffffffffffffffffffffffffff163073ffffffffffffffffffffffffffffffffffffffff1614610a37576040517fe07c8dba00000000000000000000000000000000000000000000000000000000815260040160405180910390fd5b565b610a41610d6a565b73ffffffffffffffffffffffffffffffffffffffff16610a5f610490565b73ffffffffffffffffffffffffffffffffffffffff1614610abe57610a82610d6a565b6040517f118cdaa7000000000000000000000000000000000000000000000000000000008152600401610ab5919061127b565b60405180910390fd5b565b5f610ac9610b91565b90505f815f015f9054906101000a900473ffffffffffffffffffffffffffffffffffffffff16905082825f015f6101000a81548173ffffffffffffffffffffffffffffffffffffffff021916908373ffffffffffffffffffffffffffffffffffffffff1602179055508273ffffffffffffffffffffffffffffffffffffffff168173ffffffffffffffffffffffffffffffffffffffff167f8be0079c531659141344cd1fd0a4f28419497f9722a3daafe3b4186f6b6457e060405160405180910390a3505050565b5f7f9016d09d72d40fdae2fd8ceac6b6234c7706214fd39c1cd1e609a0528c199300905090565b5f7ff0c57e16840df040f15088dc2f81fe391c3923bec73e23a9662efc9c229c6a005f1b905090565b610be9610d71565b610c1f576040517fd7e6bcf800000000000000000000000000000000000000000000000000000000815260040160405180910390fd5b565b610c29610be1565b5f73ffffffffffffffffffffffffffffffffffffffff168173ffffffffffffffffffffffffffffffffffffffff1603610c99575f6040517f1e4fbdf7000000000000000000000000000000000000000000000000000000008152600401610c90919061127b565b60405180910390fd5b610ca281610ac0565b50565b5f610cd17f360894a13ba1a3210667c828492db98dca3e2076cc3735a920a3ca505d382bbc5f1b610d8f565b5f015f9054906101000a900473ffffffffffffffffffffffffffffffffffffffff16905090565b610d0182610d98565b8173ffffffffffffffffffffffffffffffffffffffff167fbc7cd75a20ee27fd9adebab32041f755214dbc6bffa90cc0225b39da2e5c2d3b60405160405180910390a25f81511115610d5d57610d578282610e61565b50610d66565b610d65610f52565b5b5050565b5f33905090565b5f610d7a61077c565b5f0160089054906101000a900460ff16905090565b5f819050919050565b5f8173ffffffffffffffffffffffffffffffffffffffff163b03610df357806040517f4c9c8ce3000000000000000000000000000000000000000000000000000000008152600401610dea919061127b565b60405180910390fd5b80610e1f7f360894a13ba1a3210667c828492db98dca3e2076cc3735a920a3ca505d382bbc5f1b610d8f565b5f015f6101000a81548173ffffffffffffffffffffffffffffffffffffffff021916908373ffffffffffffffffffffffffffffffffffffffff16021790555050565b60605f610e6e8484610f8e565b9050808015610ea457505f610e81610fa2565b1180610ea357505f8473ffffffffffffffffffffffffffffffffffffffff163b115b5b15610eb957610eb1610fa9565b915050610f4c565b8015610efc57836040517f9996b315000000000000000000000000000000000000000000000000000000008152600401610ef3919061127b565b60405180910390fd5b5f610f05610fa2565b1115610f1857610f13610fc6565b610f4a565b6040517fd6bda27500000000000000000000000000000000000000000000000000000000815260040160405180910390fd5b505b92915050565b5f341115610f8c576040517fb398979f00000000000000000000000000000000000000000000000000000000815260040160405180910390fd5b565b5f5f5f835160208501865af4905092915050565b5f3d905090565b606060405190503d81523d5f602083013e3d602001810160405290565b6040513d5f823e3d81fd5b5f604051905090565b5f5ffd5b5f5ffd5b5f73ffffffffffffffffffffffffffffffffffffffff82169050919050565b5f61100b82610fe2565b9050919050565b61101b81611001565b8114611025575f5ffd5b50565b5f8135905061103681611012565b92915050565b5f5f6040838503121561105257611051610fda565b5b5f61105f85828601611028565b925050602061107085828601611028565b9150509250929050565b5f5ffd5b5f5ffd5b5f601f19601f8301169050919050565b7f4e487b71000000000000000000000000000000000000000000000000000000005f52604160045260245ffd5b6110c882611082565b810181811067ffffffffffffffff821117156110e7576110e6611092565b5b80604052505050565b5f6110f9610fd1565b905061110582826110bf565b919050565b5f67ffffffffffffffff82111561112457611123611092565b5b61112d82611082565b9050602081019050919050565b828183375f83830152505050565b5f61115a6111558461110a565b6110f0565b9050828152602081018484840111156111765761117561107e565b5b61118184828561113a565b509392505050565b5f82601f83011261119d5761119c61107a565b5b81356111ad848260208601611148565b91505092915050565b5f5f604083850312156111cc576111cb610fda565b5b5f6111d985828601611028565b925050602083013567ffffffffffffffff8111156111fa576111f9610fde565b5b61120685828601611189565b9150509250929050565b5f819050919050565b61122281611210565b82525050565b5f60208201905061123b5f830184611219565b92915050565b5f6020828403121561125657611255610fda565b5b5f61126384828501611028565b91505092915050565b61127581611001565b82525050565b5f60208201905061128e5f83018461126c565b92915050565b5f81519050919050565b5f82825260208201905092915050565b8281835e5f83830152505050565b5f6112c682611294565b6112d0818561129e565b93506112e08185602086016112ae565b6112e981611082565b840191505092915050565b5f6020820190508181035f83015261130c81846112bc565b905092915050565b5f819050919050565b61132681611314565b8114611330575f5ffd5b50565b5f813590506113418161131d565b92915050565b5f5f5f5f6080858703121561135f5761135e610fda565b5b5f61136c87828801611028565b945050602061137d87828801611028565b935050604061138e87828801611333565b925050606061139f87828801611333565b91505092959194509250565b6113b481611314565b82525050565b5f6020820190506113cd5f8301846113ab565b92915050565b5f819050919050565b5f67ffffffffffffffff82169050919050565b5f819050919050565b5f61141261140d611408846113d3565b6113ef565b6113dc565b9050919050565b611422816113f8565b82525050565b5f60208201905061143b5f830184611419565b92915050565b5f6040820190506114545f83018561126c565b61146160208301846113ab565b9392505050565b5f8115159050919050565b61147c81611468565b8114611486575f5ffd5b50565b5f8151905061149781611473565b92915050565b5f602082840312156114b2576114b1610fda565b5b5f6114bf84828501611489565b91505092915050565b6114d181611001565b82525050565b5f62ffffff82169050919050565b6114ee816114d7565b82525050565b6114fd81611314565b82525050565b61150c81610fe2565b82525050565b60e082015f8201516115265f8501826114c8565b50602082015161153960208501826114c8565b50604082015161154c60408501826114e5565b50606082015161155f60608501826114c8565b50608082015161157260808501826114f4565b5060a082015161158560a08501826114f4565b5060c082015161159860c0850182611503565b50505050565b5f60e0820190506115b15f830184611512565b92915050565b5f815190506115c58161131d565b92915050565b5f602082840312156115e0576115df610fda565b5b5f6115ed848285016115b7565b91505092915050565b6115ff81611210565b8114611609575f5ffd5b50565b5f8151905061161a816115f6565b92915050565b5f6020828403121561163557611634610fda565b5b5f6116428482850161160c565b9150509291505056fea26469706673582212207d1f9b5cfe48429d37d6c00a4633c28dbf1421e4828c4ba9766767b45be9b49b64736f6c63430008210033","linkReferences":{}},"methodIdentifiers":{"UPGRADE_INTERFACE_VERSION()":"ad3cb1cc","initialize(address,address)":"485cc955","owner()":"8da5cb5b","paxDexRouter()":"dcf2c073","proxiableUUID()":"52d1902d","renounceOwnership()":"715018a6","setPaxDexRouter(address)":"63a9d890","swap(address,address,uint256,uint256)":"fe029156","transferOwnership(address)":"f2fde38b","upgradeToAndCall(address,bytes)":"4f1ef286"},"id":68}