{"abi":[{"type":"constructor","inputs":[],"stateMutability":"nonpayable"},{"type":"function","name":"UPGRADE_INTERFACE_VERSION","inputs":[],"outputs":[{"name":"","type":"string","internalType":"string"}],"stateMutability":"view"},{"type":"function","name":"authorizedFactory","inputs":[],"outputs":[{"name":"","type":"address","internalType":"address"}],"stateMutability":"view"},{"type":"function","name":"getVaultsByLeader","inputs":[{"name":"leader","type":"address","internalType":"address"}],"outputs":[{"name":"","type":"address[]","internalType":"address[]"}],"stateMutability":"view"},{"type":"function","name":"initialize","inputs":[{"name":"initialOwner","type":"address","internalType":"address"}],"outputs":[],"stateMutability":"nonpayable"},{"type":"function","name":"isRegisteredVault","inputs":[{"name":"","type":"address","internalType":"address"}],"outputs":[{"name":"","type":"bool","internalType":"bool"}],"stateMutability":"view"},{"type":"function","name":"isValidVault","inputs":[{"name":"vault","type":"address","internalType":"address"}],"outputs":[{"name":"","type":"bool","internalType":"bool"}],"stateMutability":"view"},{"type":"function","name":"leaderToVaults","inputs":[{"name":"","type":"address","internalType":"address"},{"name":"","type":"uint256","internalType":"uint256"}],"outputs":[{"name":"","type":"address","internalType":"address"}],"stateMutability":"view"},{"type":"function","name":"owner","inputs":[],"outputs":[{"name":"","type":"address","internalType":"address"}],"stateMutability":"view"},{"type":"function","name":"proxiableUUID","inputs":[],"outputs":[{"name":"","type":"bytes32","internalType":"bytes32"}],"stateMutability":"view"},{"type":"function","name":"registerVault","inputs":[{"name":"leader","type":"address","internalType":"address"},{"name":"vault","type":"address","internalType":"address"}],"outputs":[],"stateMutability":"nonpayable"},{"type":"function","name":"renounceOwnership","inputs":[],"outputs":[],"stateMutability":"nonpayable"},{"type":"function","name":"setAuthorizedFactory","inputs":[{"name":"_factory","type":"address","internalType":"address"}],"outputs":[],"stateMutability":"nonpayable"},{"type":"function","name":"transferOwnership","inputs":[{"name":"newOwner","type":"address","internalType":"address"}],"outputs":[],"stateMutability":"nonpayable"},{"type":"function","name":"upgradeToAndCall","inputs":[{"name":"newImplementation","type":"address","internalType":"address"},{"name":"data","type":"bytes","internalType":"bytes"}],"outputs":[],"stateMutability":"payable"},{"type":"event","name":"FactoryUpdated","inputs":[{"name":"oldFactory","type":"address","indexed":true,"internalType":"address"},{"name":"newFactory","type":"address","indexed":true,"internalType":"address"}],"anonymous":false},{"type":"event","name":"Initialized","inputs":[{"name":"version","type":"uint64","indexed":false,"internalType":"uint64"}],"anonymous":false},{"type":"event","name":"OwnershipTransferred","inputs":[{"name":"previousOwner","type":"address","indexed":true,"internalType":"address"},{"name":"newOwner","type":"address","indexed":true,"internalType":"address"}],"anonymous":false},{"type":"event","name":"Upgraded","inputs":[{"name":"implementation","type":"address","indexed":true,"internalType":"address"}],"anonymous":false},{"type":"event","name":"VaultRegistered","inputs":[{"name":"leader","type":"address","indexed":true,"internalType":"address"},{"name":"vault","type":"address","indexed":true,"internalType":"address"}],"anonymous":false},{"type":"error","name":"AddressEmptyCode","inputs":[{"name":"target","type":"address","internalType":"address"}]},{"type":"error","name":"ERC1967InvalidImplementation","inputs":[{"name":"implementation","type":"address","internalType":"address"}]},{"type":"error","name":"ERC1967NonPayable","inputs":[]},{"type":"error","name":"FailedCall","inputs":[]},{"type":"error","name":"InvalidInitialization","inputs":[]},{"type":"error","name":"NotInitializing","inputs":[]},{"type":"error","name":"OwnableInvalidOwner","inputs":[{"name":"owner","type":"address","internalType":"address"}]},{"type":"error","name":"OwnableUnauthorizedAccount","inputs":[{"name":"account","type":"address","internalType":"address"}]},{"type":"error","name":"UUPSUnauthorizedCallContext","inputs":[]},{"type":"error","name":"UUPSUnsupportedProxiableUUID","inputs":[{"name":"slot","type":"bytes32","internalType":"bytes32"}]}],"bytecode":{"object":"0x60a06040523073ffffffffffffffffffffffffffffffffffffffff1660809073ffffffffffffffffffffffffffffffffffffffff16815250348015610042575f5ffd5b5061005161005660201b60201c565b6101d1565b5f61006561015460201b60201c565b9050805f0160089054906101000a900460ff16156100af576040517ff92ee8a900000000000000000000000000000000000000000000000000000000815260040160405180910390fd5b67ffffffffffffffff8016815f015f9054906101000a900467ffffffffffffffff1667ffffffffffffffff16146101515767ffffffffffffffff815f015f6101000a81548167ffffffffffffffff021916908367ffffffffffffffff1602179055507fc7f505b2f371ae2175ee4913f4499e1f2633a7b5936321eed1cdaeb6115181d267ffffffffffffffff60405161014891906101b8565b60405180910390a15b50565b5f5f61016461016d60201b60201c565b90508091505090565b5f7ff0c57e16840df040f15088dc2f81fe391c3923bec73e23a9662efc9c229c6a005f1b905090565b5f67ffffffffffffffff82169050919050565b6101b281610196565b82525050565b5f6020820190506101cb5f8301846101a9565b92915050565b6080516118fe6101f75f395f8181610aed01528181610b420152610cfc01526118fe5ff3fe6080604052600436106100dc575f3560e01c8063715018a61161007e578063ad3cb1cc11610058578063ad3cb1cc14610294578063c3cfc38f146102be578063c4d66de8146102fa578063f2fde38b14610322576100dc565b8063715018a6146102185780637b769d871461022e5780638da5cb5b1461026a576100dc565b80632ab390ad116100ba5780632ab390ad1461015a5780634f1ef2861461019657806352d1902d146101b257806364219450146101dc576100dc565b806305c4fdf9146100e05780630852f9f3146101085780632625dbae14610132575b5f5ffd5b3480156100eb575f5ffd5b5061010660048036038101906101019190611324565b61034a565b005b348015610113575f5ffd5b5061011c610526565b6040516101299190611371565b60405180910390f35b34801561013d575f5ffd5b506101586004803603810190610153919061138a565b61054b565b005b348015610165575f5ffd5b50610180600480360381019061017b91906113e8565b610611565b60405161018d9190611371565b60405180910390f35b6101b060048036038101906101ab9190611562565b610659565b005b3480156101bd575f5ffd5b506101c6610678565b6040516101d391906115d4565b60405180910390f35b3480156101e7575f5ffd5b5061020260048036038101906101fd919061138a565b6106a9565b60405161020f9190611607565b60405180910390f35b348015610223575f5ffd5b5061022c6106fa565b005b348015610239575f5ffd5b50610254600480360381019061024f919061138a565b61070d565b6040516102619190611607565b60405180910390f35b348015610275575f5ffd5b5061027e610729565b60405161028b9190611371565b60405180910390f35b34801561029f575f5ffd5b506102a861075e565b6040516102b59190611680565b60405180910390f35b3480156102c9575f5ffd5b506102e460048036038101906102df919061138a565b610797565b6040516102f19190611757565b60405180910390f35b348015610305575f5ffd5b50610320600480360381019061031b919061138a565b61085f565b005b34801561032d575f5ffd5b506103486004803603810190610343919061138a565b6109e0565b005b60025f9054906101000a900473ffffffffffffffffffffffffffffffffffffffff1673ffffffffffffffffffffffffffffffffffffffff163373ffffffffffffffffffffffffffffffffffffffff16146103d9576040517f08c379a00000000000000000000000000000000000000000000000000000000081526004016103d0906117e7565b60405180910390fd5b60015f5f8373ffffffffffffffffffffffffffffffffffffffff1673ffffffffffffffffffffffffffffffffffffffff1681526020019081526020015f205f6101000a81548160ff02191690831515021790555060015f8373ffffffffffffffffffffffffffffffffffffffff1673ffffffffffffffffffffffffffffffffffffffff1681526020019081526020015f2081908060018154018082558091505060019003905f5260205f20015f9091909190916101000a81548173ffffffffffffffffffffffffffffffffffffffff021916908373ffffffffffffffffffffffffffffffffffffffff1602179055508073ffffffffffffffffffffffffffffffffffffffff168273ffffffffffffffffffffffffffffffffffffffff167ff8ee9039d8e4d43426638703c71517008894fdea742bb2d2dbff5a46fb07abdb60405160405180910390a35050565b60025f9054906101000a900473ffffffffffffffffffffffffffffffffffffffff1681565b610553610a64565b8073ffffffffffffffffffffffffffffffffffffffff1660025f9054906101000a900473ffffffffffffffffffffffffffffffffffffffff1673ffffffffffffffffffffffffffffffffffffffff167f333c7678baf16017cf31e1d2f90143a62aab01a67a0807f6836a4304ceabb55560405160405180910390a38060025f6101000a81548173ffffffffffffffffffffffffffffffffffffffff021916908373ffffffffffffffffffffffffffffffffffffffff16021790555050565b6001602052815f5260405f20818154811061062a575f80fd5b905f5260205f20015f915091509054906101000a900473ffffffffffffffffffffffffffffffffffffffff1681565b610661610aeb565b61066a82610bd1565b6106748282610bdc565b5050565b5f610681610cfa565b7f360894a13ba1a3210667c828492db98dca3e2076cc3735a920a3ca505d382bbc5f1b905090565b5f5f5f8373ffffffffffffffffffffffffffffffffffffffff1673ffffffffffffffffffffffffffffffffffffffff1681526020019081526020015f205f9054906101000a900460ff169050919050565b610702610a64565b61070b5f610d81565b565b5f602052805f5260405f205f915054906101000a900460ff1681565b5f5f610733610e52565b9050805f015f9054906101000a900473ffffffffffffffffffffffffffffffffffffffff1691505090565b6040518060400160405280600581526020017f352e302e3000000000000000000000000000000000000000000000000000000081525081565b606060015f8373ffffffffffffffffffffffffffffffffffffffff1673ffffffffffffffffffffffffffffffffffffffff1681526020019081526020015f2080548060200260200160405190810160405280929190818152602001828054801561085357602002820191905f5260205f20905b815f9054906101000a900473ffffffffffffffffffffffffffffffffffffffff1673ffffffffffffffffffffffffffffffffffffffff168152602001906001019080831161080a575b50505050509050919050565b5f610868610e79565b90505f815f0160089054906101000a900460ff161590505f825f015f9054906101000a900467ffffffffffffffff1690505f5f8267ffffffffffffffff161480156108b05750825b90505f60018367ffffffffffffffff161480156108e357505f3073ffffffffffffffffffffffffffffffffffffffff163b145b9050811580156108f1575080155b15610928576040517ff92ee8a900000000000000000000000000000000000000000000000000000000815260040160405180910390fd5b6001855f015f6101000a81548167ffffffffffffffff021916908367ffffffffffffffff1602179055508315610975576001855f0160086101000a81548160ff0219169083151502179055505b61097e86610e8c565b83156109d8575f855f0160086101000a81548160ff0219169083151502179055507fc7f505b2f371ae2175ee4913f4499e1f2633a7b5936321eed1cdaeb6115181d260016040516109cf919061185a565b60405180910390a15b505050505050565b6109e8610a64565b5f73ffffffffffffffffffffffffffffffffffffffff168173ffffffffffffffffffffffffffffffffffffffff1603610a58575f6040517f1e4fbdf7000000000000000000000000000000000000000000000000000000008152600401610a4f9190611371565b60405180910390fd5b610a6181610d81565b50565b610a6c610ea0565b73ffffffffffffffffffffffffffffffffffffffff16610a8a610729565b73ffffffffffffffffffffffffffffffffffffffff1614610ae957610aad610ea0565b6040517f118cdaa7000000000000000000000000000000000000000000000000000000008152600401610ae09190611371565b60405180910390fd5b565b7f000000000000000000000000000000000000000000000000000000000000000073ffffffffffffffffffffffffffffffffffffffff163073ffffffffffffffffffffffffffffffffffffffff161480610b9857507f000000000000000000000000000000000000000000000000000000000000000073ffffffffffffffffffffffffffffffffffffffff16610b7f610ea7565b73ffffffffffffffffffffffffffffffffffffffff1614155b15610bcf576040517fe07c8dba00000000000000000000000000000000000000000000000000000000815260040160405180910390fd5b565b610bd9610a64565b50565b8173ffffffffffffffffffffffffffffffffffffffff166352d1902d6040518163ffffffff1660e01b8152600401602060405180830381865afa925050508015610c4457506040513d601f19601f82011682018060405250810190610c41919061189d565b60015b610c8557816040517f4c9c8ce3000000000000000000000000000000000000000000000000000000008152600401610c7c9190611371565b60405180910390fd5b7f360894a13ba1a3210667c828492db98dca3e2076cc3735a920a3ca505d382bbc5f1b8114610ceb57806040517faa1d49a4000000000000000000000000000000000000000000000000000000008152600401610ce291906115d4565b60405180910390fd5b610cf58383610efa565b505050565b7f000000000000000000000000000000000000000000000000000000000000000073ffffffffffffffffffffffffffffffffffffffff163073ffffffffffffffffffffffffffffffffffffffff1614610d7f576040517fe07c8dba00000000000000000000000000000000000000000000000000000000815260040160405180910390fd5b565b5f610d8a610e52565b90505f815f015f9054906101000a900473ffffffffffffffffffffffffffffffffffffffff16905082825f015f6101000a81548173ffffffffffffffffffffffffffffffffffffffff021916908373ffffffffffffffffffffffffffffffffffffffff1602179055508273ffffffffffffffffffffffffffffffffffffffff168173ffffffffffffffffffffffffffffffffffffffff167f8be0079c531659141344cd1fd0a4f28419497f9722a3daafe3b4186f6b6457e060405160405180910390a3505050565b5f7f9016d09d72d40fdae2fd8ceac6b6234c7706214fd39c1cd1e609a0528c199300905090565b5f5f610e83610f6c565b90508091505090565b610e94610f95565b610e9d81610fd5565b50565b5f33905090565b5f610ed37f360894a13ba1a3210667c828492db98dca3e2076cc3735a920a3ca505d382bbc5f1b611059565b5f015f9054906101000a900473ffffffffffffffffffffffffffffffffffffffff16905090565b610f0382611062565b8173ffffffffffffffffffffffffffffffffffffffff167fbc7cd75a20ee27fd9adebab32041f755214dbc6bffa90cc0225b39da2e5c2d3b60405160405180910390a25f81511115610f5f57610f59828261112b565b50610f68565b610f6761121c565b5b5050565b5f7ff0c57e16840df040f15088dc2f81fe391c3923bec73e23a9662efc9c229c6a005f1b905090565b610f9d611258565b610fd3576040517fd7e6bcf800000000000000000000000000000000000000000000000000000000815260040160405180910390fd5b565b610fdd610f95565b5f73ffffffffffffffffffffffffffffffffffffffff168173ffffffffffffffffffffffffffffffffffffffff160361104d575f6040517f1e4fbdf70000000000000000000000000000000000000000000000000000000081526004016110449190611371565b60405180910390fd5b61105681610d81565b50565b5f819050919050565b5f8173ffffffffffffffffffffffffffffffffffffffff163b036110bd57806040517f4c9c8ce30000000000000000000000000000000000000000000000000000000081526004016110b49190611371565b60405180910390fd5b806110e97f360894a13ba1a3210667c828492db98dca3e2076cc3735a920a3ca505d382bbc5f1b611059565b5f015f6101000a81548173ffffffffffffffffffffffffffffffffffffffff021916908373ffffffffffffffffffffffffffffffffffffffff16021790555050565b60605f6111388484611276565b905080801561116e57505f61114b61128a565b118061116d57505f8473ffffffffffffffffffffffffffffffffffffffff163b115b5b156111835761117b611291565b915050611216565b80156111c657836040517f9996b3150000000000000000000000000000000000000000000000000000000081526004016111bd9190611371565b60405180910390fd5b5f6111cf61128a565b11156111e2576111dd6112ae565b611214565b6040517fd6bda27500000000000000000000000000000000000000000000000000000000815260040160405180910390fd5b505b92915050565b5f341115611256576040517fb398979f00000000000000000000000000000000000000000000000000000000815260040160405180910390fd5b565b5f611261610e79565b5f0160089054906101000a900460ff16905090565b5f5f5f835160208501865af4905092915050565b5f3d905090565b606060405190503d81523d5f602083013e3d602001810160405290565b6040513d5f823e3d81fd5b5f604051905090565b5f5ffd5b5f5ffd5b5f73ffffffffffffffffffffffffffffffffffffffff82169050919050565b5f6112f3826112ca565b9050919050565b611303816112e9565b811461130d575f5ffd5b50565b5f8135905061131e816112fa565b92915050565b5f5f6040838503121561133a576113396112c2565b5b5f61134785828601611310565b925050602061135885828601611310565b9150509250929050565b61136b816112e9565b82525050565b5f6020820190506113845f830184611362565b92915050565b5f6020828403121561139f5761139e6112c2565b5b5f6113ac84828501611310565b91505092915050565b5f819050919050565b6113c7816113b5565b81146113d1575f5ffd5b50565b5f813590506113e2816113be565b92915050565b5f5f604083850312156113fe576113fd6112c2565b5b5f61140b85828601611310565b925050602061141c858286016113d4565b9150509250929050565b5f5ffd5b5f5ffd5b5f601f19601f8301169050919050565b7f4e487b71000000000000000000000000000000000000000000000000000000005f52604160045260245ffd5b6114748261142e565b810181811067ffffffffffffffff821117156114935761149261143e565b5b80604052505050565b5f6114a56112b9565b90506114b1828261146b565b919050565b5f67ffffffffffffffff8211156114d0576114cf61143e565b5b6114d98261142e565b9050602081019050919050565b828183375f83830152505050565b5f611506611501846114b6565b61149c565b9050828152602081018484840111156115225761152161142a565b5b61152d8482856114e6565b509392505050565b5f82601f83011261154957611548611426565b5b81356115598482602086016114f4565b91505092915050565b5f5f60408385031215611578576115776112c2565b5b5f61158585828601611310565b925050602083013567ffffffffffffffff8111156115a6576115a56112c6565b5b6115b285828601611535565b9150509250929050565b5f819050919050565b6115ce816115bc565b82525050565b5f6020820190506115e75f8301846115c5565b92915050565b5f8115159050919050565b611601816115ed565b82525050565b5f60208201905061161a5f8301846115f8565b92915050565b5f81519050919050565b5f82825260208201905092915050565b8281835e5f83830152505050565b5f61165282611620565b61165c818561162a565b935061166c81856020860161163a565b6116758161142e565b840191505092915050565b5f6020820190508181035f8301526116988184611648565b905092915050565b5f81519050919050565b5f82825260208201905092915050565b5f819050602082019050919050565b6116d2816112e9565b82525050565b5f6116e383836116c9565b60208301905092915050565b5f602082019050919050565b5f611705826116a0565b61170f81856116aa565b935061171a836116ba565b805f5b8381101561174a57815161173188826116d8565b975061173c836116ef565b92505060018101905061171d565b5085935050505092915050565b5f6020820190508181035f83015261176f81846116fb565b905092915050565b7f43616c6c6572206973206e6f742074686520617574686f72697a6564204661635f8201527f746f727900000000000000000000000000000000000000000000000000000000602082015250565b5f6117d160248361162a565b91506117dc82611777565b604082019050919050565b5f6020820190508181035f8301526117fe816117c5565b9050919050565b5f819050919050565b5f67ffffffffffffffff82169050919050565b5f819050919050565b5f61184461183f61183a84611805565b611821565b61180e565b9050919050565b6118548161182a565b82525050565b5f60208201905061186d5f83018461184b565b92915050565b61187c816115bc565b8114611886575f5ffd5b50565b5f8151905061189781611873565b92915050565b5f602082840312156118b2576118b16112c2565b5b5f6118bf84828501611889565b9150509291505056fea264697066735822122015a559af14b7f4cf399a7c01ad9a0441bbb27632eab03e63081641d48c9381a164736f6c63430008210033","linkReferences":{}},"methodIdentifiers":{"UPGRADE_INTERFACE_VERSION()":"ad3cb1cc","authorizedFactory()":"0852f9f3","getVaultsByLeader(address)":"c3cfc38f","initialize(address)":"c4d66de8","isRegisteredVault(address)":"7b769d87","isValidVault(address)":"64219450","leaderToVaults(address,uint256)":"2ab390ad","owner()":"8da5cb5b","proxiableUUID()":"52d1902d","registerVault(address,address)":"05c4fdf9","renounceOwnership()":"715018a6","setAuthorizedFactory(address)":"2625dbae","transferOwnership(address)":"f2fde38b","upgradeToAndCall(address,bytes)":"4f1ef286"},"id":71}