{"abi":[{"type":"constructor","inputs":[],"stateMutability":"nonpayable"},{"type":"function","name":"CLOCK_MODE","inputs":[],"outputs":[{"name":"","type":"string","internalType":"string"}],"stateMutability":"view"},{"type":"function","name":"DOMAIN_SEPARATOR","inputs":[],"outputs":[{"name":"","type":"bytes32","internalType":"bytes32"}],"stateMutability":"view"},{"type":"function","name":"MAX_SUPPLY","inputs":[],"outputs":[{"name":"","type":"uint256","internalType":"uint256"}],"stateMutability":"view"},{"type":"function","name":"allowance","inputs":[{"name":"owner","type":"address","internalType":"address"},{"name":"spender","type":"address","internalType":"address"}],"outputs":[{"name":"","type":"uint256","internalType":"uint256"}],"stateMutability":"view"},{"type":"function","name":"approve","inputs":[{"name":"spender","type":"address","internalType":"address"},{"name":"value","type":"uint256","internalType":"uint256"}],"outputs":[{"name":"","type":"bool","internalType":"bool"}],"stateMutability":"nonpayable"},{"type":"function","name":"balanceOf","inputs":[{"name":"account","type":"address","internalType":"address"}],"outputs":[{"name":"","type":"uint256","internalType":"uint256"}],"stateMutability":"view"},{"type":"function","name":"checkpoints","inputs":[{"name":"account","type":"address","internalType":"address"},{"name":"pos","type":"uint32","internalType":"uint32"}],"outputs":[{"name":"","type":"tuple","internalType":"struct Checkpoints.Checkpoint208","components":[{"name":"_key","type":"uint48","internalType":"uint48"},{"name":"_value","type":"uint208","internalType":"uint208"}]}],"stateMutability":"view"},{"type":"function","name":"clock","inputs":[],"outputs":[{"name":"","type":"uint48","internalType":"uint48"}],"stateMutability":"view"},{"type":"function","name":"decimals","inputs":[],"outputs":[{"name":"","type":"uint8","internalType":"uint8"}],"stateMutability":"view"},{"type":"function","name":"delegate","inputs":[{"name":"delegatee","type":"address","internalType":"address"}],"outputs":[],"stateMutability":"nonpayable"},{"type":"function","name":"delegateBySig","inputs":[{"name":"delegatee","type":"address","internalType":"address"},{"name":"nonce","type":"uint256","internalType":"uint256"},{"name":"expiry","type":"uint256","internalType":"uint256"},{"name":"v","type":"uint8","internalType":"uint8"},{"name":"r","type":"bytes32","internalType":"bytes32"},{"name":"s","type":"bytes32","internalType":"bytes32"}],"outputs":[],"stateMutability":"nonpayable"},{"type":"function","name":"delegates","inputs":[{"name":"account","type":"address","internalType":"address"}],"outputs":[{"name":"","type":"address","internalType":"address"}],"stateMutability":"view"},{"type":"function","name":"eip712Domain","inputs":[],"outputs":[{"name":"fields","type":"bytes1","internalType":"bytes1"},{"name":"name","type":"string","internalType":"string"},{"name":"version","type":"string","internalType":"string"},{"name":"chainId","type":"uint256","internalType":"uint256"},{"name":"verifyingContract","type":"address","internalType":"address"},{"name":"salt","type":"bytes32","internalType":"bytes32"},{"name":"extensions","type":"uint256[]","internalType":"uint256[]"}],"stateMutability":"view"},{"type":"function","name":"getPastTotalSupply","inputs":[{"name":"timepoint","type":"uint256","internalType":"uint256"}],"outputs":[{"name":"","type":"uint256","internalType":"uint256"}],"stateMutability":"view"},{"type":"function","name":"getPastVotes","inputs":[{"name":"account","type":"address","internalType":"address"},{"name":"timepoint","type":"uint256","internalType":"uint256"}],"outputs":[{"name":"","type":"uint256","internalType":"uint256"}],"stateMutability":"view"},{"type":"function","name":"getVotes","inputs":[{"name":"account","type":"address","internalType":"address"}],"outputs":[{"name":"","type":"uint256","internalType":"uint256"}],"stateMutability":"view"},{"type":"function","name":"name","inputs":[],"outputs":[{"name":"","type":"string","internalType":"string"}],"stateMutability":"view"},{"type":"function","name":"nonces","inputs":[{"name":"owner","type":"address","internalType":"address"}],"outputs":[{"name":"","type":"uint256","internalType":"uint256"}],"stateMutability":"view"},{"type":"function","name":"numCheckpoints","inputs":[{"name":"account","type":"address","internalType":"address"}],"outputs":[{"name":"","type":"uint32","internalType":"uint32"}],"stateMutability":"view"},{"type":"function","name":"owner","inputs":[],"outputs":[{"name":"","type":"address","internalType":"address"}],"stateMutability":"view"},{"type":"function","name":"permit","inputs":[{"name":"owner","type":"address","internalType":"address"},{"name":"spender","type":"address","internalType":"address"},{"name":"value","type":"uint256","internalType":"uint256"},{"name":"deadline","type":"uint256","internalType":"uint256"},{"name":"v","type":"uint8","internalType":"uint8"},{"name":"r","type":"bytes32","internalType":"bytes32"},{"name":"s","type":"bytes32","internalType":"bytes32"}],"outputs":[],"stateMutability":"nonpayable"},{"type":"function","name":"renounceOwnership","inputs":[],"outputs":[],"stateMutability":"nonpayable"},{"type":"function","name":"symbol","inputs":[],"outputs":[{"name":"","type":"string","internalType":"string"}],"stateMutability":"view"},{"type":"function","name":"totalSupply","inputs":[],"outputs":[{"name":"","type":"uint256","internalType":"uint256"}],"stateMutability":"view"},{"type":"function","name":"transfer","inputs":[{"name":"to","type":"address","internalType":"address"},{"name":"value","type":"uint256","internalType":"uint256"}],"outputs":[{"name":"","type":"bool","internalType":"bool"}],"stateMutability":"nonpayable"},{"type":"function","name":"transferFrom","inputs":[{"name":"from","type":"address","internalType":"address"},{"name":"to","type":"address","internalType":"address"},{"name":"value","type":"uint256","internalType":"uint256"}],"outputs":[{"name":"","type":"bool","internalType":"bool"}],"stateMutability":"nonpayable"},{"type":"function","name":"transferOwnership","inputs":[{"name":"newOwner","type":"address","internalType":"address"}],"outputs":[],"stateMutability":"nonpayable"},{"type":"event","name":"Approval","inputs":[{"name":"owner","type":"address","indexed":true,"internalType":"address"},{"name":"spender","type":"address","indexed":true,"internalType":"address"},{"name":"value","type":"uint256","indexed":false,"internalType":"uint256"}],"anonymous":false},{"type":"event","name":"DelegateChanged","inputs":[{"name":"delegator","type":"address","indexed":true,"internalType":"address"},{"name":"fromDelegate","type":"address","indexed":true,"internalType":"address"},{"name":"toDelegate","type":"address","indexed":true,"internalType":"address"}],"anonymous":false},{"type":"event","name":"DelegateVotesChanged","inputs":[{"name":"delegate","type":"address","indexed":true,"internalType":"address"},{"name":"previousVotes","type":"uint256","indexed":false,"internalType":"uint256"},{"name":"newVotes","type":"uint256","indexed":false,"internalType":"uint256"}],"anonymous":false},{"type":"event","name":"EIP712DomainChanged","inputs":[],"anonymous":false},{"type":"event","name":"OwnershipTransferred","inputs":[{"name":"previousOwner","type":"address","indexed":true,"internalType":"address"},{"name":"newOwner","type":"address","indexed":true,"internalType":"address"}],"anonymous":false},{"type":"event","name":"Transfer","inputs":[{"name":"from","type":"address","indexed":true,"internalType":"address"},{"name":"to","type":"address","indexed":true,"internalType":"address"},{"name":"value","type":"uint256","indexed":false,"internalType":"uint256"}],"anonymous":false},{"type":"error","name":"CheckpointUnorderedInsertion","inputs":[]},{"type":"error","name":"ECDSAInvalidSignature","inputs":[]},{"type":"error","name":"ECDSAInvalidSignatureLength","inputs":[{"name":"length","type":"uint256","internalType":"uint256"}]},{"type":"error","name":"ECDSAInvalidSignatureS","inputs":[{"name":"s","type":"bytes32","internalType":"bytes32"}]},{"type":"error","name":"ERC20ExceededSafeSupply","inputs":[{"name":"increasedSupply","type":"uint256","internalType":"uint256"},{"name":"cap","type":"uint256","internalType":"uint256"}]},{"type":"error","name":"ERC20InsufficientAllowance","inputs":[{"name":"spender","type":"address","internalType":"address"},{"name":"allowance","type":"uint256","internalType":"uint256"},{"name":"needed","type":"uint256","internalType":"uint256"}]},{"type":"error","name":"ERC20InsufficientBalance","inputs":[{"name":"sender","type":"address","internalType":"address"},{"name":"balance","type":"uint256","internalType":"uint256"},{"name":"needed","type":"uint256","internalType":"uint256"}]},{"type":"error","name":"ERC20InvalidApprover","inputs":[{"name":"approver","type":"address","internalType":"address"}]},{"type":"error","name":"ERC20InvalidReceiver","inputs":[{"name":"receiver","type":"address","internalType":"address"}]},{"type":"error","name":"ERC20InvalidSender","inputs":[{"name":"sender","type":"address","internalType":"address"}]},{"type":"error","name":"ERC20InvalidSpender","inputs":[{"name":"spender","type":"address","internalType":"address"}]},{"type":"error","name":"ERC2612ExpiredSignature","inputs":[{"name":"deadline","type":"uint256","internalType":"uint256"}]},{"type":"error","name":"ERC2612InvalidSigner","inputs":[{"name":"signer","type":"address","internalType":"address"},{"name":"owner","type":"address","internalType":"address"}]},{"type":"error","name":"ERC5805FutureLookup","inputs":[{"name":"timepoint","type":"uint256","internalType":"uint256"},{"name":"clock","type":"uint48","internalType":"uint48"}]},{"type":"error","name":"ERC6372InconsistentClock","inputs":[]},{"type":"error","name":"InvalidAccountNonce","inputs":[{"name":"account","type":"address","internalType":"address"},{"name":"currentNonce","type":"uint256","internalType":"uint256"}]},{"type":"error","name":"InvalidShortString","inputs":[]},{"type":"error","name":"OwnableInvalidOwner","inputs":[{"name":"owner","type":"address","internalType":"address"}]},{"type":"error","name":"OwnableUnauthorizedAccount","inputs":[{"name":"account","type":"address","internalType":"address"}]},{"type":"error","name":"SafeCastOverflowedUintDowncast","inputs":[{"name":"bits","type":"uint8","internalType":"uint8"},{"name":"value","type":"uint256","internalType":"uint256"}]},{"type":"error","name":"StringTooLong","inputs":[{"name":"str","type":"string","internalType":"string"}]},{"type":"error","name":"VotesExpiredSignature","inputs":[{"name":"expiry","type":"uint256","internalType":"uint256"}]}],"bytecode":{"object":"0x610160604052348015610010575f5ffd5b50336040518060400160405280600881526020017f5a69626158656572000000000000000000000000000000000000000000000000815250806040518060400160405280600181526020017f31000000000000000000000000000000000000000000000000000000000000008152506040518060400160405280600881526020017f5a696261586565720000000000000000000000000000000000000000000000008152506040518060400160405280600381526020017f5a4258000000000000000000000000000000000000000000000000000000000081525081600390816100fa9190611305565b50806004908161010a9190611305565b50505061012160058361025860201b90919060201c565b610120818152505061013d60068261025860201b90919060201c565b6101408181525050818051906020012060e08181525050808051906020012061010081815250504660a0818152505061017a6102a560201b60201c565b608081815250503073ffffffffffffffffffffffffffffffffffffffff1660c08173ffffffffffffffffffffffffffffffffffffffff16815250505050505f73ffffffffffffffffffffffffffffffffffffffff168173ffffffffffffffffffffffffffffffffffffffff1603610228575f6040517f1e4fbdf700000000000000000000000000000000000000000000000000000000815260040161021f9190611413565b60405180910390fd5b610237816102ff60201b60201c565b50610253336a52b7d2dcc80cd2e40000006103c260201b60201c565b611850565b5f602083511015610279576102728361044760201b60201c565b905061029f565b82610289836104ac60201b60201c565b5f0190816102979190611305565b5060ff5f1b90505b92915050565b5f7f8b73c3c69bb8fe3d512ecc4cf759cc79239f7b179b0ffacaa9a75d522b39400f60e0516101005146306040516020016102e4959493929190611453565b60405160208183030381529060405280519060200120905090565b5f600b5f9054906101000a900473ffffffffffffffffffffffffffffffffffffffff16905081600b5f6101000a81548173ffffffffffffffffffffffffffffffffffffffff021916908373ffffffffffffffffffffffffffffffffffffffff1602179055508173ffffffffffffffffffffffffffffffffffffffff168173ffffffffffffffffffffffffffffffffffffffff167f8be0079c531659141344cd1fd0a4f28419497f9722a3daafe3b4186f6b6457e060405160405180910390a35050565b5f73ffffffffffffffffffffffffffffffffffffffff168273ffffffffffffffffffffffffffffffffffffffff1603610432575f6040517fec442f050000000000000000000000000000000000000000000000000000000081526004016104299190611413565b60405180910390fd5b6104435f83836104b560201b60201c565b5050565b5f5f829050601f8151111561049357826040517f305a27a900000000000000000000000000000000000000000000000000000000815260040161048a919061150a565b60405180910390fd5b80518161049f90611557565b5f1c175f1b915050919050565b5f819050919050565b6104c68383836104cb60201b60201c565b505050565b6104dc83838361059160201b60201c565b5f73ffffffffffffffffffffffffffffffffffffffff168373ffffffffffffffffffffffffffffffffffffffff160361057b575f61051e6107aa60201b60201c565b90505f61052f6107b360201b60201c565b9050808211156105785781816040517f1cb15d2600000000000000000000000000000000000000000000000000000000815260040161056f9291906115bd565b60405180910390fd5b50505b61058c8383836107d660201b60201c565b505050565b5f73ffffffffffffffffffffffffffffffffffffffff168373ffffffffffffffffffffffffffffffffffffffff16036105e1578060025f8282546105d59190611611565b925050819055506106af565b5f5f5f8573ffffffffffffffffffffffffffffffffffffffff1673ffffffffffffffffffffffffffffffffffffffff1681526020019081526020015f205490508181101561066a578381836040517fe450d38c00000000000000000000000000000000000000000000000000000000815260040161066193929190611644565b60405180910390fd5b8181035f5f8673ffffffffffffffffffffffffffffffffffffffff1673ffffffffffffffffffffffffffffffffffffffff1681526020019081526020015f2081905550505b5f73ffffffffffffffffffffffffffffffffffffffff168273ffffffffffffffffffffffffffffffffffffffff16036106f6578060025f8282540392505081905550610740565b805f5f8473ffffffffffffffffffffffffffffffffffffffff1673ffffffffffffffffffffffffffffffffffffffff1681526020019081526020015f205f82825401925050819055505b8173ffffffffffffffffffffffffffffffffffffffff168373ffffffffffffffffffffffffffffffffffffffff167fddf252ad1be2c89b69c2b068fc378daa952ba7f163c4a11628f55a4df523b3ef8360405161079d9190611679565b60405180910390a3505050565b5f600254905090565b5f79ffffffffffffffffffffffffffffffffffffffffffffffffffff8016905090565b5f73ffffffffffffffffffffffffffffffffffffffff168373ffffffffffffffffffffffffffffffffffffffff160361083557610832600a6108c660201b610e0d17610827846108db60201b60201c565b61094860201b60201c565b50505b5f73ffffffffffffffffffffffffffffffffffffffff168273ffffffffffffffffffffffffffffffffffffffff160361089457610891600a61099060201b610e2217610886846108db60201b60201c565b61094860201b60201c565b50505b6108c16108a6846109a560201b60201c565b6108b5846109a560201b60201c565b83610a0a60201b60201c565b505050565b5f81836108d391906116b7565b905092915050565b5f79ffffffffffffffffffffffffffffffffffffffffffffffffffff80168211156109405760d0826040517f6dfcc650000000000000000000000000000000000000000000000000000000008152600401610937929190611749565b60405180910390fd5b819050919050565b5f5f61098461095b610ca060201b60201c565b61097461096d88610cb460201b60201c565b868860201c565b87610d1c60201b9092919060201c565b91509150935093915050565b5f818361099d9190611770565b905092915050565b5f60085f8373ffffffffffffffffffffffffffffffffffffffff1673ffffffffffffffffffffffffffffffffffffffff1681526020019081526020015f205f9054906101000a900473ffffffffffffffffffffffffffffffffffffffff169050919050565b8173ffffffffffffffffffffffffffffffffffffffff168373ffffffffffffffffffffffffffffffffffffffff1614158015610a4557505f81115b15610c9b575f73ffffffffffffffffffffffffffffffffffffffff168373ffffffffffffffffffffffffffffffffffffffff1614610b72575f5f610ae360095f8773ffffffffffffffffffffffffffffffffffffffff1673ffffffffffffffffffffffffffffffffffffffff1681526020019081526020015f2061099060201b610e2217610ad8866108db60201b60201c565b61094860201b60201c565b79ffffffffffffffffffffffffffffffffffffffffffffffffffff16915079ffffffffffffffffffffffffffffffffffffffffffffffffffff1691508473ffffffffffffffffffffffffffffffffffffffff167fdec2bacdd2f05b59de34da9b523dff8be42e5e38e818c82fdb0bae774387a7248383604051610b679291906115bd565b60405180910390a250505b5f73ffffffffffffffffffffffffffffffffffffffff168273ffffffffffffffffffffffffffffffffffffffff1614610c9a575f5f610c0b60095f8673ffffffffffffffffffffffffffffffffffffffff1673ffffffffffffffffffffffffffffffffffffffff1681526020019081526020015f206108c660201b610e0d17610c00866108db60201b60201c565b61094860201b60201c565b79ffffffffffffffffffffffffffffffffffffffffffffffffffff16915079ffffffffffffffffffffffffffffffffffffffffffffffffffff1691508373ffffffffffffffffffffffffffffffffffffffff167fdec2bacdd2f05b59de34da9b523dff8be42e5e38e818c82fdb0bae774387a7248383604051610c8f9291906115bd565b60405180910390a250505b5b505050565b5f610caf610d3d60201b60201c565b905090565b5f5f825f018054905090505f8114610d1257610ce4835f01600183610cd991906117bd565b610d5260201b60201c565b5f0160069054906101000a900479ffffffffffffffffffffffffffffffffffffffffffffffffffff16610d14565b5f5b915050919050565b5f5f610d31855f018585610d6460201b60201c565b91509150935093915050565b5f610d4d4361105e60201b60201c565b905090565b5f825f528160205f2001905092915050565b5f5f5f858054905090505f811115610f76575f610d9387600184610d8891906117bd565b610d5260201b60201c565b90505f815f015f9054906101000a900465ffffffffffff1690505f825f0160069054906101000a900479ffffffffffffffffffffffffffffffffffffffffffffffffffff1690508765ffffffffffff168265ffffffffffff161115610e24576040517f2520601d00000000000000000000000000000000000000000000000000000000815260040160405180910390fd5b8765ffffffffffff168265ffffffffffff1603610e8e5786835f0160066101000a81548179ffffffffffffffffffffffffffffffffffffffffffffffffffff021916908379ffffffffffffffffffffffffffffffffffffffffffffffffffff160217905550610f67565b8860405180604001604052808a65ffffffffffff1681526020018979ffffffffffffffffffffffffffffffffffffffffffffffffffff16815250908060018154018082558091505060019003905f5260205f20015f909190919091505f820151815f015f6101000a81548165ffffffffffff021916908365ffffffffffff1602179055506020820151815f0160066101000a81548179ffffffffffffffffffffffffffffffffffffffffffffffffffff021916908379ffffffffffffffffffffffffffffffffffffffffffffffffffff16021790555050505b80879550955050505050611056565b8560405180604001604052808765ffffffffffff1681526020018679ffffffffffffffffffffffffffffffffffffffffffffffffffff16815250908060018154018082558091505060019003905f5260205f20015f909190919091505f820151815f015f6101000a81548165ffffffffffff021916908365ffffffffffff1602179055506020820151815f0160066101000a81548179ffffffffffffffffffffffffffffffffffffffffffffffffffff021916908379ffffffffffffffffffffffffffffffffffffffffffffffffffff16021790555050505f8492509250505b935093915050565b5f65ffffffffffff80168211156110af576030826040517f6dfcc6500000000000000000000000000000000000000000000000000000000081526004016110a6929190611829565b60405180910390fd5b819050919050565b5f81519050919050565b7f4e487b71000000000000000000000000000000000000000000000000000000005f52604160045260245ffd5b7f4e487b71000000000000000000000000000000000000000000000000000000005f52602260045260245ffd5b5f600282049050600182168061113257607f821691505b602082108103611145576111446110ee565b5b50919050565b5f819050815f5260205f209050919050565b5f6020601f8301049050919050565b5f82821b905092915050565b5f600883026111a77fffffffffffffffffffffffffffffffffffffffffffffffffffffffffffffffff8261116c565b6111b1868361116c565b95508019841693508086168417925050509392505050565b5f819050919050565b5f819050919050565b5f6111f56111f06111eb846111c9565b6111d2565b6111c9565b9050919050565b5f819050919050565b61120e836111db565b61122261121a826111fc565b848454611178565b825550505050565b5f5f905090565b61123961122a565b611244818484611205565b505050565b5f5b8281101561126a5761125f5f828401611231565b60018101905061124b565b505050565b601f8211156112bd57828211156112bc576112898161114b565b6112928361115d565b61129b8561115d565b60208610156112a8575f90505b8083016112b782840382611249565b505050505b5b505050565b5f82821c905092915050565b5f6112dd5f19846008026112c2565b1980831691505092915050565b5f6112f583836112ce565b9150826002028217905092915050565b61130e826110b7565b67ffffffffffffffff811115611327576113266110c1565b5b611331825461111b565b61133c82828561126f565b5f60209050601f83116001811461136d575f841561135b578287015190505b61136585826112ea565b8655506113cc565b601f19841661137b8661114b565b5f5b828110156113a25784890151825560018201915060208501945060208101905061137d565b868310156113bf57848901516113bb601f8916826112ce565b8355505b6001600288020188555050505b505050505050565b5f73ffffffffffffffffffffffffffffffffffffffff82169050919050565b5f6113fd826113d4565b9050919050565b61140d816113f3565b82525050565b5f6020820190506114265f830184611404565b92915050565b5f819050919050565b61143e8161142c565b82525050565b61144d816111c9565b82525050565b5f60a0820190506114665f830188611435565b6114736020830187611435565b6114806040830186611435565b61148d6060830185611444565b61149a6080830184611404565b9695505050505050565b5f82825260208201905092915050565b8281835e5f83830152505050565b5f601f19601f8301169050919050565b5f6114dc826110b7565b6114e681856114a4565b93506114f68185602086016114b4565b6114ff816114c2565b840191505092915050565b5f6020820190508181035f83015261152281846114d2565b905092915050565b5f81519050919050565b5f819050602082019050919050565b5f61154e825161142c565b80915050919050565b5f6115618261152a565b8261156b84611534565b905061157681611543565b925060208210156115b6576115b17fffffffffffffffffffffffffffffffffffffffffffffffffffffffffffffffff8360200360080261116c565b831692505b5050919050565b5f6040820190506115d05f830185611444565b6115dd6020830184611444565b9392505050565b7f4e487b71000000000000000000000000000000000000000000000000000000005f52601160045260245ffd5b5f61161b826111c9565b9150611626836111c9565b925082820190508082111561163e5761163d6115e4565b5b92915050565b5f6060820190506116575f830186611404565b6116646020830185611444565b6116716040830184611444565b949350505050565b5f60208201905061168c5f830184611444565b92915050565b5f79ffffffffffffffffffffffffffffffffffffffffffffffffffff82169050919050565b5f6116c182611692565b91506116cc83611692565b9250828201905079ffffffffffffffffffffffffffffffffffffffffffffffffffff8111156116fe576116fd6115e4565b5b92915050565b5f819050919050565b5f60ff82169050919050565b5f61173361172e61172984611704565b6111d2565b61170d565b9050919050565b61174381611719565b82525050565b5f60408201905061175c5f83018561173a565b6117696020830184611444565b9392505050565b5f61177a82611692565b915061178583611692565b9250828203905079ffffffffffffffffffffffffffffffffffffffffffffffffffff8111156117b7576117b66115e4565b5b92915050565b5f6117c7826111c9565b91506117d2836111c9565b92508282039050818111156117ea576117e96115e4565b5b92915050565b5f819050919050565b5f61181361180e611809846117f0565b6111d2565b61170d565b9050919050565b611823816117f9565b82525050565b5f60408201905061183c5f83018561181a565b6118496020830184611444565b9392505050565b60805160a05160c05160e05161010051610120516101405161389d6118a15f395f6114f701525f6114bc01525f6118ff01525f6118de01525f610fd601525f61102c01525f611055015261389d5ff3fe608060405234801561000f575f5ffd5b50600436106101a7575f3560e01c8063715018a6116100f75780639ab24eb011610095578063d505accf1161006f578063d505accf146104ff578063dd62ed3e1461051b578063f1127ed81461054b578063f2fde38b1461057b576101a7565b80639ab24eb014610483578063a9059cbb146104b3578063c3cda520146104e3576101a7565b80638da5cb5b116100d15780638da5cb5b146103f95780638e539e8c1461041757806391ddadf41461044757806395d89b4114610465576101a7565b8063715018a61461039b5780637ecebe00146103a557806384b0196e146103d5576101a7565b80633644e51511610164578063587cde1e1161013e578063587cde1e146102ef5780635c19a95c1461031f5780636fcfff451461033b57806370a082311461036b576101a7565b80633644e515146102835780633a46b1a8146102a15780634bf5d7e9146102d1576101a7565b806306fdde03146101ab578063095ea7b3146101c957806318160ddd146101f957806323b872dd14610217578063313ce5671461024757806332cb6b0c14610265575b5f5ffd5b6101b3610597565b6040516101c09190612bf0565b60405180910390f35b6101e360048036038101906101de9190612ca1565b610627565b6040516101f09190612cf9565b60405180910390f35b610201610649565b60405161020e9190612d21565b60405180910390f35b610231600480360381019061022c9190612d3a565b610652565b60405161023e9190612cf9565b60405180910390f35b61024f610680565b60405161025c9190612da5565b60405180910390f35b61026d610688565b60405161027a9190612d21565b60405180910390f35b61028b610697565b6040516102989190612dd6565b60405180910390f35b6102bb60048036038101906102b69190612ca1565b6106a5565b6040516102c89190612d21565b60405180910390f35b6102d9610721565b6040516102e69190612bf0565b60405180910390f35b61030960048036038101906103049190612def565b6107b5565b6040516103169190612e29565b60405180910390f35b61033960048036038101906103349190612def565b61081a565b005b61035560048036038101906103509190612def565b610833565b6040516103629190612e60565b60405180910390f35b61038560048036038101906103809190612def565b610844565b6040516103929190612d21565b60405180910390f35b6103a3610889565b005b6103bf60048036038101906103ba9190612def565b61089c565b6040516103cc9190612d21565b60405180910390f35b6103dd6108ad565b6040516103f09796959493929190612f6a565b60405180910390f35b610401610952565b60405161040e9190612e29565b60405180910390f35b610431600480360381019061042c9190612fec565b61097a565b60405161043e9190612d21565b60405180910390f35b61044f6109ba565b60405161045c9190613037565b60405180910390f35b61046d6109c8565b60405161047a9190612bf0565b60405180910390f35b61049d60048036038101906104989190612def565b610a58565b6040516104aa9190612d21565b60405180910390f35b6104cd60048036038101906104c89190612ca1565b610ac1565b6040516104da9190612cf9565b60405180910390f35b6104fd60048036038101906104f891906130a4565b610ae3565b005b6105196004803603810190610514919061312d565b610ba8565b005b610535600480360381019061053091906131ca565b610ced565b6040516105429190612d21565b60405180910390f35b61056560048036038101906105609190613232565b610d6f565b60405161057291906132e0565b60405180910390f35b61059560048036038101906105909190612def565b610d89565b005b6060600380546105a690613326565b80601f01602080910402602001604051908101604052809291908181526020018280546105d290613326565b801561061d5780601f106105f45761010080835404028352916020019161061d565b820191905f5260205f20905b81548152906001019060200180831161060057829003601f168201915b5050505050905090565b5f5f610631610e37565b905061063e818585610e3e565b600191505092915050565b5f600254905090565b5f5f61065c610e37565b9050610669858285610e50565b610674858585610ee3565b60019150509392505050565b5f6012905090565b6a52b7d2dcc80cd2e400000081565b5f6106a0610fd3565b905090565b5f6106fd6106b283611089565b60095f8673ffffffffffffffffffffffffffffffffffffffff1673ffffffffffffffffffffffffffffffffffffffff1681526020019081526020015f206110f490919063ffffffff16565b79ffffffffffffffffffffffffffffffffffffffffffffffffffff16905092915050565b606061072b6111e4565b65ffffffffffff1661073b6109ba565b65ffffffffffff161461077a576040517f6ff0714000000000000000000000000000000000000000000000000000000000815260040160405180910390fd5b6040518060400160405280601d81526020017f6d6f64653d626c6f636b6e756d6265722666726f6d3d64656661756c74000000815250905090565b5f60085f8373ffffffffffffffffffffffffffffffffffffffff1673ffffffffffffffffffffffffffffffffffffffff1681526020019081526020015f205f9054906101000a900473ffffffffffffffffffffffffffffffffffffffff169050919050565b5f610823610e37565b905061082f81836111f3565b5050565b5f61083d82611303565b9050919050565b5f5f5f8373ffffffffffffffffffffffffffffffffffffffff1673ffffffffffffffffffffffffffffffffffffffff1681526020019081526020015f20549050919050565b610891611358565b61089a5f6113df565b565b5f6108a6826114a2565b9050919050565b5f6060805f5f5f60606108be6114b3565b6108c66114ee565b46305f5f1b5f67ffffffffffffffff8111156108e5576108e4613356565b5b6040519080825280602002602001820160405280156109135781602001602082028036833780820191505090505b507f0f00000000000000000000000000000000000000000000000000000000000000959493929190965096509650965096509650965090919293949596565b5f600b5f9054906101000a900473ffffffffffffffffffffffffffffffffffffffff16905090565b5f61099761098783611089565b600a6110f490919063ffffffff16565b79ffffffffffffffffffffffffffffffffffffffffffffffffffff169050919050565b5f6109c36111e4565b905090565b6060600480546109d790613326565b80601f0160208091040260200160405190810160405280929190818152602001828054610a0390613326565b8015610a4e5780601f10610a2557610100808354040283529160200191610a4e565b820191905f5260205f20905b815481529060010190602001808311610a3157829003601f168201915b5050505050905090565b5f610a9e60095f8473ffffffffffffffffffffffffffffffffffffffff1673ffffffffffffffffffffffffffffffffffffffff1681526020019081526020015f20611529565b79ffffffffffffffffffffffffffffffffffffffffffffffffffff169050919050565b5f5f610acb610e37565b9050610ad8818585610ee3565b600191505092915050565b83421115610b2857836040517f4683af0e000000000000000000000000000000000000000000000000000000008152600401610b1f9190612d21565b60405180910390fd5b5f610b89610b817fe48329057bfd03d55e49b547132e39cffd9c1820ad7b9d4c5307691425d15adf898989604051602001610b669493929190613383565b6040516020818303038152906040528051906020012061158b565b8585856115a4565b9050610b9581876115d2565b610b9f81886111f3565b50505050505050565b83421115610bed57836040517f62791302000000000000000000000000000000000000000000000000000000008152600401610be49190612d21565b60405180910390fd5b5f7f6e71edae12b1b97f4d1f60370fef10105fa2faae0126114a169c64845d6126c9888888610c1b8c611629565b89604051602001610c31969594939291906133c6565b6040516020818303038152906040528051906020012090505f610c538261158b565b90505f610c62828787876115a4565b90508973ffffffffffffffffffffffffffffffffffffffff168173ffffffffffffffffffffffffffffffffffffffff1614610cd657808a6040517f4b800e46000000000000000000000000000000000000000000000000000000008152600401610ccd929190613425565b60405180910390fd5b610ce18a8a8a610e3e565b50505050505050505050565b5f60015f8473ffffffffffffffffffffffffffffffffffffffff1673ffffffffffffffffffffffffffffffffffffffff1681526020019081526020015f205f8373ffffffffffffffffffffffffffffffffffffffff1673ffffffffffffffffffffffffffffffffffffffff1681526020019081526020015f2054905092915050565b610d77612b44565b610d81838361167c565b905092915050565b610d91611358565b5f73ffffffffffffffffffffffffffffffffffffffff168173ffffffffffffffffffffffffffffffffffffffff1603610e01575f6040517f1e4fbdf7000000000000000000000000000000000000000000000000000000008152600401610df89190612e29565b60405180910390fd5b610e0a816113df565b50565b5f8183610e1a9190613479565b905092915050565b5f8183610e2f91906134c6565b905092915050565b5f33905090565b610e4b83838360016116db565b505050565b5f610e5b8484610ced565b90507fffffffffffffffffffffffffffffffffffffffffffffffffffffffffffffffff811015610edd5781811015610ece578281836040517ffb8f41b2000000000000000000000000000000000000000000000000000000008152600401610ec593929190613513565b60405180910390fd5b610edc84848484035f6116db565b5b50505050565b5f73ffffffffffffffffffffffffffffffffffffffff168373ffffffffffffffffffffffffffffffffffffffff1603610f53575f6040517f96c6fd1e000000000000000000000000000000000000000000000000000000008152600401610f4a9190612e29565b60405180910390fd5b5f73ffffffffffffffffffffffffffffffffffffffff168273ffffffffffffffffffffffffffffffffffffffff1603610fc3575f6040517fec442f05000000000000000000000000000000000000000000000000000000008152600401610fba9190612e29565b60405180910390fd5b610fce8383836118aa565b505050565b5f7f000000000000000000000000000000000000000000000000000000000000000073ffffffffffffffffffffffffffffffffffffffff163073ffffffffffffffffffffffffffffffffffffffff1614801561104e57507f000000000000000000000000000000000000000000000000000000000000000046145b1561107b577f00000000000000000000000000000000000000000000000000000000000000009050611086565b6110836118ba565b90505b90565b5f5f6110936109ba565b90508065ffffffffffff1683106110e35782816040517fecd3f81e0000000000000000000000000000000000000000000000000000000081526004016110da929190613548565b60405180910390fd5b6110ec8361194f565b915050919050565b5f5f835f018054905090505f5f90505f8290506005831115611178575f61111a846119a8565b84611125919061356f565b9050611133875f0182611b42565b5f015f9054906101000a900465ffffffffffff1665ffffffffffff168665ffffffffffff16101561116657809150611176565b60018161117391906135a2565b92505b505b5f611187875f01878585611b54565b90505f81146111d6576111a8875f016001836111a3919061356f565b611b42565b5f0160069054906101000a900479ffffffffffffffffffffffffffffffffffffffffffffffffffff166111d8565b5f5b94505050505092915050565b5f6111ee4361194f565b905090565b5f6111fd836107b5565b90508160085f8573ffffffffffffffffffffffffffffffffffffffff1673ffffffffffffffffffffffffffffffffffffffff1681526020019081526020015f205f6101000a81548173ffffffffffffffffffffffffffffffffffffffff021916908373ffffffffffffffffffffffffffffffffffffffff1602179055508173ffffffffffffffffffffffffffffffffffffffff168173ffffffffffffffffffffffffffffffffffffffff168473ffffffffffffffffffffffffffffffffffffffff167f3134e8a2e6d97e929a7e54011ea5485d7d196dd5f0ba4d4ef95803e8e3fc257f60405160405180910390a46112fe81836112f986611bc9565b611bda565b505050565b5f61135161134c60095f8573ffffffffffffffffffffffffffffffffffffffff1673ffffffffffffffffffffffffffffffffffffffff1681526020019081526020015f20611e4a565b611e59565b9050919050565b611360610e37565b73ffffffffffffffffffffffffffffffffffffffff1661137e610952565b73ffffffffffffffffffffffffffffffffffffffff16146113dd576113a1610e37565b6040517f118cdaa70000000000000000000000000000000000000000000000000000000081526004016113d49190612e29565b60405180910390fd5b565b5f600b5f9054906101000a900473ffffffffffffffffffffffffffffffffffffffff16905081600b5f6101000a81548173ffffffffffffffffffffffffffffffffffffffff021916908373ffffffffffffffffffffffffffffffffffffffff1602179055508173ffffffffffffffffffffffffffffffffffffffff168173ffffffffffffffffffffffffffffffffffffffff167f8be0079c531659141344cd1fd0a4f28419497f9722a3daafe3b4186f6b6457e060405160405180910390a35050565b5f6114ac82611eb0565b9050919050565b60606114e960057f0000000000000000000000000000000000000000000000000000000000000000611ef690919063ffffffff16565b905090565b606061152460067f0000000000000000000000000000000000000000000000000000000000000000611ef690919063ffffffff16565b905090565b5f5f825f018054905090505f811461158157611553835f0160018361154e919061356f565b611b42565b5f0160069054906101000a900479ffffffffffffffffffffffffffffffffffffffffffffffffffff16611583565b5f5b915050919050565b5f61159d611597610fd3565b83611fa3565b9050919050565b5f5f5f5f6115b488888888611fe3565b9250925092506115c482826120ca565b829350505050949350505050565b5f6115dc83611629565b90508082146116245782816040517f752d88c000000000000000000000000000000000000000000000000000000000815260040161161b9291906135d5565b60405180910390fd5b505050565b5f60075f8373ffffffffffffffffffffffffffffffffffffffff1673ffffffffffffffffffffffffffffffffffffffff1681526020019081526020015f205f815480929190600101919050559050919050565b611684612b44565b6116d38260095f8673ffffffffffffffffffffffffffffffffffffffff1673ffffffffffffffffffffffffffffffffffffffff1681526020019081526020015f2061222c90919063ffffffff16565b905092915050565b5f73ffffffffffffffffffffffffffffffffffffffff168473ffffffffffffffffffffffffffffffffffffffff160361174b575f6040517fe602df050000000000000000000000000000000000000000000000000000000081526004016117429190612e29565b60405180910390fd5b5f73ffffffffffffffffffffffffffffffffffffffff168373ffffffffffffffffffffffffffffffffffffffff16036117bb575f6040517f94280d620000000000000000000000000000000000000000000000000000000081526004016117b29190612e29565b60405180910390fd5b8160015f8673ffffffffffffffffffffffffffffffffffffffff1673ffffffffffffffffffffffffffffffffffffffff1681526020019081526020015f205f8573ffffffffffffffffffffffffffffffffffffffff1673ffffffffffffffffffffffffffffffffffffffff1681526020019081526020015f208190555080156118a4578273ffffffffffffffffffffffffffffffffffffffff168473ffffffffffffffffffffffffffffffffffffffff167f8c5be1e5ebec7d5bd14f71427d1e84f3dd0314c0f7b2291e5b200ac8c7c3b9258460405161189b9190612d21565b60405180910390a35b50505050565b6118b58383836122fb565b505050565b5f7f8b73c3c69bb8fe3d512ecc4cf759cc79239f7b179b0ffacaa9a75d522b39400f7f00000000000000000000000000000000000000000000000000000000000000007f000000000000000000000000000000000000000000000000000000000000000046306040516020016119349594939291906135fc565b60405160208183030381529060405280519060200120905090565b5f65ffffffffffff80168211156119a0576030826040517f6dfcc65000000000000000000000000000000000000000000000000000000000815260040161199792919061368f565b60405180910390fd5b819050919050565b5f600182116119b957819050611b3d565b5f8290505f6001905070010000000000000000000000000000000082106119e957608082901c9150604081901b90505b680100000000000000008210611a0857604082901c9150602081901b90505b6401000000008210611a2357602082901c9150601081901b90505b620100008210611a3c57601082901c9150600881901b90505b6101008210611a5457600882901c9150600481901b90505b60108210611a6b57600482901c9150600281901b90505b60048210611a7b57600181901b90505b600181600302901c90506001818581611a9757611a966136b6565b5b048201901c90506001818581611ab057611aaf6136b6565b5b048201901c90506001818581611ac957611ac86136b6565b5b048201901c90506001818581611ae257611ae16136b6565b5b048201901c90506001818581611afb57611afa6136b6565b5b048201901c90506001818581611b1457611b136136b6565b5b048201901c9050611b36818581611b2e57611b2d6136b6565b5b0482116123a9565b8103925050505b919050565b5f825f528160205f2001905092915050565b5f5b81831015611bbe575f611b6984846123b4565b90508465ffffffffffff16611b7e8783611b42565b5f015f9054906101000a900465ffffffffffff1665ffffffffffff161115611ba857809250611bb8565b600181611bb591906135a2565b93505b50611b56565b819050949350505050565b5f611bd382610844565b9050919050565b8173ffffffffffffffffffffffffffffffffffffffff168373ffffffffffffffffffffffffffffffffffffffff1614158015611c1557505f81115b15611e45575f73ffffffffffffffffffffffffffffffffffffffff168373ffffffffffffffffffffffffffffffffffffffff1614611d2f575f5f611ca060095f8773ffffffffffffffffffffffffffffffffffffffff1673ffffffffffffffffffffffffffffffffffffffff1681526020019081526020015f20610e22611c9b866123d5565b612442565b79ffffffffffffffffffffffffffffffffffffffffffffffffffff16915079ffffffffffffffffffffffffffffffffffffffffffffffffffff1691508473ffffffffffffffffffffffffffffffffffffffff167fdec2bacdd2f05b59de34da9b523dff8be42e5e38e818c82fdb0bae774387a7248383604051611d249291906136e3565b60405180910390a250505b5f73ffffffffffffffffffffffffffffffffffffffff168273ffffffffffffffffffffffffffffffffffffffff1614611e44575f5f611db560095f8673ffffffffffffffffffffffffffffffffffffffff1673ffffffffffffffffffffffffffffffffffffffff1681526020019081526020015f20610e0d611db0866123d5565b612442565b79ffffffffffffffffffffffffffffffffffffffffffffffffffff16915079ffffffffffffffffffffffffffffffffffffffffffffffffffff1691508373ffffffffffffffffffffffffffffffffffffffff167fdec2bacdd2f05b59de34da9b523dff8be42e5e38e818c82fdb0bae774387a7248383604051611e399291906136e3565b60405180910390a250505b5b505050565b5f815f01805490509050919050565b5f63ffffffff8016821115611ea8576020826040517f6dfcc650000000000000000000000000000000000000000000000000000000008152600401611e9f929190613743565b60405180910390fd5b819050919050565b5f60075f8373ffffffffffffffffffffffffffffffffffffffff1673ffffffffffffffffffffffffffffffffffffffff1681526020019081526020015f20549050919050565b606060ff5f1b8314611f1257611f0b83612481565b9050611f9d565b818054611f1e90613326565b80601f0160208091040260200160405190810160405280929190818152602001828054611f4a90613326565b8015611f955780601f10611f6c57610100808354040283529160200191611f95565b820191905f5260205f20905b815481529060010190602001808311611f7857829003601f168201915b505050505090505b92915050565b5f6040517f190100000000000000000000000000000000000000000000000000000000000081528360028201528260228201526042812091505092915050565b5f5f5f7f7fffffffffffffffffffffffffffffff5d576e7357a4501ddfe92f46681b20a0845f1c111561201f575f6003859250925092506120c0565b5f6001888888886040515f8152602001604052604051612042949392919061376a565b6020604051602081039080840390855afa158015612062573d5f5f3e3d5ffd5b5050506020604051035190505f73ffffffffffffffffffffffffffffffffffffffff168173ffffffffffffffffffffffffffffffffffffffff16036120b3575f60015f5f1b935093509350506120c0565b805f5f5f1b935093509350505b9450945094915050565b5f60038111156120dd576120dc6137ad565b5b8260038111156120f0576120ef6137ad565b5b0315612228576001600381111561210a576121096137ad565b5b82600381111561211d5761211c6137ad565b5b03612154576040517ff645eedf00000000000000000000000000000000000000000000000000000000815260040160405180910390fd5b60026003811115612168576121676137ad565b5b82600381111561217b5761217a6137ad565b5b036121bf57805f1c6040517ffce698f70000000000000000000000000000000000000000000000000000000081526004016121b69190612d21565b60405180910390fd5b6003808111156121d2576121d16137ad565b5b8260038111156121e5576121e46137ad565b5b0361222757806040517fd78bce0c00000000000000000000000000000000000000000000000000000000815260040161221e9190612dd6565b60405180910390fd5b5b5050565b612234612b44565b825f018263ffffffff168154811061224f5761224e6137da565b5b905f5260205f20016040518060400160405290815f82015f9054906101000a900465ffffffffffff1665ffffffffffff1665ffffffffffff1681526020015f820160069054906101000a900479ffffffffffffffffffffffffffffffffffffffffffffffffffff1679ffffffffffffffffffffffffffffffffffffffffffffffffffff1679ffffffffffffffffffffffffffffffffffffffffffffffffffff1681525050905092915050565b6123068383836124f3565b5f73ffffffffffffffffffffffffffffffffffffffff168373ffffffffffffffffffffffffffffffffffffffff1603612399575f612342610649565b90505f61234d61270c565b9050808211156123965781816040517f1cb15d2600000000000000000000000000000000000000000000000000000000815260040161238d9291906136e3565b60405180910390fd5b50505b6123a483838361272f565b505050565b5f8115159050919050565b5f6002828418816123c8576123c76136b6565b5b0482841601905092915050565b5f79ffffffffffffffffffffffffffffffffffffffffffffffffffff801682111561243a5760d0826040517f6dfcc650000000000000000000000000000000000000000000000000000000008152600401612431929190613840565b60405180910390fd5b819050919050565b5f5f61247561244f6109ba565b61246561245b88611529565b868863ffffffff16565b876127e79092919063ffffffff16565b91509150935093915050565b60605f61248d83612802565b90505f602067ffffffffffffffff8111156124ab576124aa613356565b5b6040519080825280601f01601f1916602001820160405280156124dd5781602001600182028036833780820191505090505b5090508181528360208201528092505050919050565b5f73ffffffffffffffffffffffffffffffffffffffff168373ffffffffffffffffffffffffffffffffffffffff1603612543578060025f82825461253791906135a2565b92505081905550612611565b5f5f5f8573ffffffffffffffffffffffffffffffffffffffff1673ffffffffffffffffffffffffffffffffffffffff1681526020019081526020015f20549050818110156125cc578381836040517fe450d38c0000000000000000000000000000000000000000000000000000000081526004016125c393929190613513565b60405180910390fd5b8181035f5f8673ffffffffffffffffffffffffffffffffffffffff1673ffffffffffffffffffffffffffffffffffffffff1681526020019081526020015f2081905550505b5f73ffffffffffffffffffffffffffffffffffffffff168273ffffffffffffffffffffffffffffffffffffffff1603612658578060025f82825403925050819055506126a2565b805f5f8473ffffffffffffffffffffffffffffffffffffffff1673ffffffffffffffffffffffffffffffffffffffff1681526020019081526020015f205f82825401925050819055505b8173ffffffffffffffffffffffffffffffffffffffff168373ffffffffffffffffffffffffffffffffffffffff167fddf252ad1be2c89b69c2b068fc378daa952ba7f163c4a11628f55a4df523b3ef836040516126ff9190612d21565b60405180910390a3505050565b5f79ffffffffffffffffffffffffffffffffffffffffffffffffffff8016905090565b5f73ffffffffffffffffffffffffffffffffffffffff168373ffffffffffffffffffffffffffffffffffffffff160361277b57612778600a610e0d612773846123d5565b612442565b50505b5f73ffffffffffffffffffffffffffffffffffffffff168273ffffffffffffffffffffffffffffffffffffffff16036127c7576127c4600a610e226127bf846123d5565b612442565b50505b6127e26127d3846107b5565b6127dc846107b5565b83611bda565b505050565b5f5f6127f6855f018585612850565b91509150935093915050565b5f5f60ff835f1c169050601f811115612847576040517fb3512b0c00000000000000000000000000000000000000000000000000000000815260040160405180910390fd5b80915050919050565b5f5f5f858054905090505f811115612a5c575f61287987600184612874919061356f565b611b42565b90505f815f015f9054906101000a900465ffffffffffff1690505f825f0160069054906101000a900479ffffffffffffffffffffffffffffffffffffffffffffffffffff1690508765ffffffffffff168265ffffffffffff16111561290a576040517f2520601d00000000000000000000000000000000000000000000000000000000815260040160405180910390fd5b8765ffffffffffff168265ffffffffffff16036129745786835f0160066101000a81548179ffffffffffffffffffffffffffffffffffffffffffffffffffff021916908379ffffffffffffffffffffffffffffffffffffffffffffffffffff160217905550612a4d565b8860405180604001604052808a65ffffffffffff1681526020018979ffffffffffffffffffffffffffffffffffffffffffffffffffff16815250908060018154018082558091505060019003905f5260205f20015f909190919091505f820151815f015f6101000a81548165ffffffffffff021916908365ffffffffffff1602179055506020820151815f0160066101000a81548179ffffffffffffffffffffffffffffffffffffffffffffffffffff021916908379ffffffffffffffffffffffffffffffffffffffffffffffffffff16021790555050505b80879550955050505050612b3c565b8560405180604001604052808765ffffffffffff1681526020018679ffffffffffffffffffffffffffffffffffffffffffffffffffff16815250908060018154018082558091505060019003905f5260205f20015f909190919091505f820151815f015f6101000a81548165ffffffffffff021916908365ffffffffffff1602179055506020820151815f0160066101000a81548179ffffffffffffffffffffffffffffffffffffffffffffffffffff021916908379ffffffffffffffffffffffffffffffffffffffffffffffffffff16021790555050505f8492509250505b935093915050565b60405180604001604052805f65ffffffffffff1681526020015f79ffffffffffffffffffffffffffffffffffffffffffffffffffff1681525090565b5f81519050919050565b5f82825260208201905092915050565b8281835e5f83830152505050565b5f601f19601f8301169050919050565b5f612bc282612b80565b612bcc8185612b8a565b9350612bdc818560208601612b9a565b612be581612ba8565b840191505092915050565b5f6020820190508181035f830152612c088184612bb8565b905092915050565b5f5ffd5b5f73ffffffffffffffffffffffffffffffffffffffff82169050919050565b5f612c3d82612c14565b9050919050565b612c4d81612c33565b8114612c57575f5ffd5b50565b5f81359050612c6881612c44565b92915050565b5f819050919050565b612c8081612c6e565b8114612c8a575f5ffd5b50565b5f81359050612c9b81612c77565b92915050565b5f5f60408385031215612cb757612cb6612c10565b5b5f612cc485828601612c5a565b9250506020612cd585828601612c8d565b9150509250929050565b5f8115159050919050565b612cf381612cdf565b82525050565b5f602082019050612d0c5f830184612cea565b92915050565b612d1b81612c6e565b82525050565b5f602082019050612d345f830184612d12565b92915050565b5f5f5f60608486031215612d5157612d50612c10565b5b5f612d5e86828701612c5a565b9350506020612d6f86828701612c5a565b9250506040612d8086828701612c8d565b9150509250925092565b5f60ff82169050919050565b612d9f81612d8a565b82525050565b5f602082019050612db85f830184612d96565b92915050565b5f819050919050565b612dd081612dbe565b82525050565b5f602082019050612de95f830184612dc7565b92915050565b5f60208284031215612e0457612e03612c10565b5b5f612e1184828501612c5a565b91505092915050565b612e2381612c33565b82525050565b5f602082019050612e3c5f830184612e1a565b92915050565b5f63ffffffff82169050919050565b612e5a81612e42565b82525050565b5f602082019050612e735f830184612e51565b92915050565b5f7fff0000000000000000000000000000000000000000000000000000000000000082169050919050565b612ead81612e79565b82525050565b5f81519050919050565b5f82825260208201905092915050565b5f819050602082019050919050565b612ee581612c6e565b82525050565b5f612ef68383612edc565b60208301905092915050565b5f602082019050919050565b5f612f1882612eb3565b612f228185612ebd565b9350612f2d83612ecd565b805f5b83811015612f5d578151612f448882612eeb565b9750612f4f83612f02565b925050600181019050612f30565b5085935050505092915050565b5f60e082019050612f7d5f83018a612ea4565b8181036020830152612f8f8189612bb8565b90508181036040830152612fa38188612bb8565b9050612fb26060830187612d12565b612fbf6080830186612e1a565b612fcc60a0830185612dc7565b81810360c0830152612fde8184612f0e565b905098975050505050505050565b5f6020828403121561300157613000612c10565b5b5f61300e84828501612c8d565b91505092915050565b5f65ffffffffffff82169050919050565b61303181613017565b82525050565b5f60208201905061304a5f830184613028565b92915050565b61305981612d8a565b8114613063575f5ffd5b50565b5f8135905061307481613050565b92915050565b61308381612dbe565b811461308d575f5ffd5b50565b5f8135905061309e8161307a565b92915050565b5f5f5f5f5f5f60c087890312156130be576130bd612c10565b5b5f6130cb89828a01612c5a565b96505060206130dc89828a01612c8d565b95505060406130ed89828a01612c8d565b94505060606130fe89828a01613066565b935050608061310f89828a01613090565b92505060a061312089828a01613090565b9150509295509295509295565b5f5f5f5f5f5f5f60e0888a03121561314857613147612c10565b5b5f6131558a828b01612c5a565b97505060206131668a828b01612c5a565b96505060406131778a828b01612c8d565b95505060606131888a828b01612c8d565b94505060806131998a828b01613066565b93505060a06131aa8a828b01613090565b92505060c06131bb8a828b01613090565b91505092959891949750929550565b5f5f604083850312156131e0576131df612c10565b5b5f6131ed85828601612c5a565b92505060206131fe85828601612c5a565b9150509250929050565b61321181612e42565b811461321b575f5ffd5b50565b5f8135905061322c81613208565b92915050565b5f5f6040838503121561324857613247612c10565b5b5f61325585828601612c5a565b92505060206132668582860161321e565b9150509250929050565b61327981613017565b82525050565b5f79ffffffffffffffffffffffffffffffffffffffffffffffffffff82169050919050565b6132ad8161327f565b82525050565b604082015f8201516132c75f850182613270565b5060208201516132da60208501826132a4565b50505050565b5f6040820190506132f35f8301846132b3565b92915050565b7f4e487b71000000000000000000000000000000000000000000000000000000005f52602260045260245ffd5b5f600282049050600182168061333d57607f821691505b6020821081036133505761334f6132f9565b5b50919050565b7f4e487b71000000000000000000000000000000000000000000000000000000005f52604160045260245ffd5b5f6080820190506133965f830187612dc7565b6133a36020830186612e1a565b6133b06040830185612d12565b6133bd6060830184612d12565b95945050505050565b5f60c0820190506133d95f830189612dc7565b6133e66020830188612e1a565b6133f36040830187612e1a565b6134006060830186612d12565b61340d6080830185612d12565b61341a60a0830184612d12565b979650505050505050565b5f6040820190506134385f830185612e1a565b6134456020830184612e1a565b9392505050565b7f4e487b71000000000000000000000000000000000000000000000000000000005f52601160045260245ffd5b5f6134838261327f565b915061348e8361327f565b9250828201905079ffffffffffffffffffffffffffffffffffffffffffffffffffff8111156134c0576134bf61344c565b5b92915050565b5f6134d08261327f565b91506134db8361327f565b9250828203905079ffffffffffffffffffffffffffffffffffffffffffffffffffff81111561350d5761350c61344c565b5b92915050565b5f6060820190506135265f830186612e1a565b6135336020830185612d12565b6135406040830184612d12565b949350505050565b5f60408201905061355b5f830185612d12565b6135686020830184613028565b9392505050565b5f61357982612c6e565b915061358483612c6e565b925082820390508181111561359c5761359b61344c565b5b92915050565b5f6135ac82612c6e565b91506135b783612c6e565b92508282019050808211156135cf576135ce61344c565b5b92915050565b5f6040820190506135e85f830185612e1a565b6135f56020830184612d12565b9392505050565b5f60a08201905061360f5f830188612dc7565b61361c6020830187612dc7565b6136296040830186612dc7565b6136366060830185612d12565b6136436080830184612e1a565b9695505050505050565b5f819050919050565b5f819050919050565b5f61367961367461366f8461364d565b613656565b612d8a565b9050919050565b6136898161365f565b82525050565b5f6040820190506136a25f830185613680565b6136af6020830184612d12565b9392505050565b7f4e487b71000000000000000000000000000000000000000000000000000000005f52601260045260245ffd5b5f6040820190506136f65f830185612d12565b6137036020830184612d12565b9392505050565b5f819050919050565b5f61372d6137286137238461370a565b613656565b612d8a565b9050919050565b61373d81613713565b82525050565b5f6040820190506137565f830185613734565b6137636020830184612d12565b9392505050565b5f60808201905061377d5f830187612dc7565b61378a6020830186612d96565b6137976040830185612dc7565b6137a46060830184612dc7565b95945050505050565b7f4e487b71000000000000000000000000000000000000000000000000000000005f52602160045260245ffd5b7f4e487b71000000000000000000000000000000000000000000000000000000005f52603260045260245ffd5b5f819050919050565b5f61382a61382561382084613807565b613656565b612d8a565b9050919050565b61383a81613810565b82525050565b5f6040820190506138535f830185613831565b6138606020830184612d12565b939250505056fea26469706673582212201ff09d3f56143f0a2221f14bb4378a2cd2eab4a289994ab3e3a692aa883358f564736f6c63430008210033","linkReferences":{}},"methodIdentifiers":{"CLOCK_MODE()":"4bf5d7e9","DOMAIN_SEPARATOR()":"3644e515","MAX_SUPPLY()":"32cb6b0c","allowance(address,address)":"dd62ed3e","approve(address,uint256)":"095ea7b3","balanceOf(address)":"70a08231","checkpoints(address,uint32)":"f1127ed8","clock()":"91ddadf4","decimals()":"313ce567","delegate(address)":"5c19a95c","delegateBySig(address,uint256,uint256,uint8,bytes32,bytes32)":"c3cda520","delegates(address)":"587cde1e","eip712Domain()":"84b0196e","getPastTotalSupply(uint256)":"8e539e8c","getPastVotes(address,uint256)":"3a46b1a8","getVotes(address)":"9ab24eb0","name()":"06fdde03","nonces(address)":"7ecebe00","numCheckpoints(address)":"6fcfff45","owner()":"8da5cb5b","permit(address,address,uint256,uint256,uint8,bytes32,bytes32)":"d505accf","renounceOwnership()":"715018a6","symbol()":"95d89b41","totalSupply()":"18160ddd","transfer(address,uint256)":"a9059cbb","transferFrom(address,address,uint256)":"23b872dd","transferOwnership(address)":"f2fde38b"},"id":72}